Component: ARM Compiler 5.06 update 7 (build 960) Tool: armlink [4d3601]

==============================================================================

Section Cross References

    at32f421_clock.o(i.system_clock_config) refers to at32f421_crm.o(i.crm_reset) for crm_reset
    at32f421_clock.o(i.system_clock_config) refers to at32f421_crm.o(i.crm_clock_source_enable) for crm_clock_source_enable
    at32f421_clock.o(i.system_clock_config) refers to at32f421_crm.o(i.crm_pll_config) for crm_pll_config
    at32f421_clock.o(i.system_clock_config) refers to at32f421_crm.o(i.crm_flag_get) for crm_flag_get
    at32f421_clock.o(i.system_clock_config) refers to at32f421_crm.o(i.crm_ahb_div_set) for crm_ahb_div_set
    at32f421_clock.o(i.system_clock_config) refers to at32f421_crm.o(i.crm_apb2_div_set) for crm_apb2_div_set
    at32f421_clock.o(i.system_clock_config) refers to at32f421_crm.o(i.crm_apb1_div_set) for crm_apb1_div_set
    at32f421_clock.o(i.system_clock_config) refers to at32f421_crm.o(i.crm_auto_step_mode_enable) for crm_auto_step_mode_enable
    at32f421_clock.o(i.system_clock_config) refers to at32f421_crm.o(i.crm_sysclk_switch) for crm_sysclk_switch
    at32f421_clock.o(i.system_clock_config) refers to at32f421_crm.o(i.crm_sysclk_switch_status_get) for crm_sysclk_switch_status_get
    at32f421_clock.o(i.system_clock_config) refers to system_at32f421.o(i.system_core_clock_update) for system_core_clock_update
    at32f421_int.o(i.DMA1_Channel1_IRQHandler) refers to at32f421_dma.o(i.dma_flag_get) for dma_flag_get
    at32f421_int.o(i.DMA1_Channel1_IRQHandler) refers to dfltui.o(.text) for __aeabi_ui2d
    at32f421_int.o(i.DMA1_Channel1_IRQHandler) refers to dmul.o(.text) for __aeabi_dmul
    at32f421_int.o(i.DMA1_Channel1_IRQHandler) refers to ddiv.o(.text) for __aeabi_ddiv
    at32f421_int.o(i.DMA1_Channel1_IRQHandler) refers to dadd.o(.text) for __aeabi_drsub
    at32f421_int.o(i.DMA1_Channel1_IRQHandler) refers to at32f421_dma.o(i.dma_flag_clear) for dma_flag_clear
    at32f421_int.o(i.DMA1_Channel1_IRQHandler) refers to adc_ctrl.o(.data) for adcData
==============================================================================

Removing Unused input sections from the image.

    Removing at32f421_clock.o(.rev16_text), (4 bytes).
    Removing at32f421_clock.o(.revsh_text), (4 bytes).
    Removing at32f421_clock.o(.rrx_text), (6 bytes).
    Removing at32f421_int.o(.rev16_text), (4 bytes).
    Removing at32f421_int.o(.revsh_text), (4 bytes).
    Removing at32f421_int.o(.rrx_text), (6 bytes).
    Removing system_at32f421.o(.rev16_text), (4 bytes).
    Removing system_at32f421.o(.revsh_text), (4 bytes).
    Removing system_at32f421.o(.rrx_text), (6 bytes).
    Removing startup_at32f421.o(HEAP), (512 bytes).
    Removing at32f421_adc.o(.rev16_text), (4 bytes).
    Removing at32f421_adc.o(.revsh_text), (4 bytes).
    Removing at32f421_adc.o(.rrx_text), (6 bytes).
    Removing at32f421_adc.o(i.adc_base_default_para_init), (14 bytes).
    Removing at32f421_adc.o(i.adc_flag_clear), (6 bytes).
    Removing at32f421_adc.o(i.adc_flag_get), (16 bytes).
    Removing at32f421_adc.o(i.adc_interrupt_enable), (22 bytes).
    Removing at32f421_adc.o(i.adc_interrupt_flag_get), (84 bytes).
==============================================================================

Image Symbol Table

    Local Symbols

    Symbol Name                              Value     Ov Type        Size  Object(Section)

    ../clib/../cmprslib/zerorunl2.c          0x00000000   Number         0  __dczerorl2.o ABSOLUTE
    ../clib/microlib/division.c              0x00000000   Number         0  uldiv.o ABSOLUTE
    ../clib/microlib/division.c              0x00000000   Number         0  uidiv.o ABSOLUTE
    ../clib/microlib/init/entry.s            0x00000000   Number         0  entry10a.o ABSOLUTE
    ../clib/microlib/init/entry.s            0x00000000   Number         0  entry2.o ABSOLUTE
    ../clib/microlib/init/entry.s            0x00000000   Number         0  entry8b.o ABSOLUTE
    ../clib/microlib/init/entry.s            0x00000000   Number         0  entry8a.o ABSOLUTE
    ../clib/microlib/init/entry.s            0x00000000   Number         0  entry7b.o ABSOLUTE
    ../clib/microlib/init/entry.s            0x00000000   Number         0  entry11b.o ABSOLUTE
    ../clib/microlib/init/entry.s            0x00000000   Number         0  entry12a.o ABSOLUTE
    ../clib/microlib/init/entry.s            0x00000000   Number         0  entry7a.o ABSOLUTE
    ../clib/microlib/init/entry.s            0x00000000   Number         0  entry5.o ABSOLUTE
    ../clib/microlib/init/entry.s            0x00000000   Number         0  entry11a.o ABSOLUTE
    ../clib/microlib/init/entry.s            0x00000000   Number         0  entry10b.o ABSOLUTE
    ../clib/microlib/init/entry.s            0x00000000   Number         0  entry12b.o ABSOLUTE
    ../clib/microlib/init/entry.s            0x00000000   Number         0  entry9b.o ABSOLUTE
    ../clib/microlib/init/entry.s            0x00000000   Number         0  entry9a.o ABSOLUTE
    ../clib/microlib/init/entry.s            0x00000000   Number         0  entry.o ABSOLUTE
    ../clib/microlib/longlong.c              0x00000000   Number         0  llshl.o ABSOLUTE
    ../clib/microlib/longlong.c              0x00000000   Number         0  llushr.o ABSOLUTE
    ../clib/microlib/longlong.c              0x00000000   Number         0  llsshr.o ABSOLUTE
    ../clib/microlib/printf/printf.c         0x00000000   Number         0  printf1.o ABSOLUTE
    ../clib/microlib/printf/printf.c         0x00000000   Number         0  printfa.o ABSOLUTE
    ../clib/microlib/printf/printf.c         0x00000000   Number         0  printf2.o ABSOLUTE
    ../clib/microlib/printf/printf.c         0x00000000   Number         0  printf8.o ABSOLUTE
    ../clib/microlib/printf/printf.c         0x00000000   Number         0  printf3.o ABSOLUTE
    ../clib/microlib/printf/printf.c         0x00000000   Number         0  printf4.o ABSOLUTE
    ../clib/microlib/printf/printf.c         0x00000000   Number         0  printf7.o ABSOLUTE
    ../clib/microlib/printf/printf.c         0x00000000   Number         0  printf5.o ABSOLUTE
    ../clib/microlib/printf/printf.c         0x00000000   Number         0  printf6.o ABSOLUTE
    ../clib/microlib/printf/printf.c         0x00000000   Number         0  printf0.o ABSOLUTE
    ../clib/microlib/printf/printf.c         0x00000000   Number         0  printfb.o ABSOLUTE
    ../clib/microlib/printf/stubs.s          0x00000000   Number         0  stubs.o ABSOLUTE
    ../clib/microlib/stdio/streams.c         0x00000000   Number         0  stdout.o ABSOLUTE
    ../clib/microlib/stdlib/rand.c           0x00000000   Number         0  rand.o ABSOLUTE
    ../clib/microlib/string/memcpy.c         0x00000000   Number         0  memcpyb.o ABSOLUTE
    ../clib/microlib/string/memcpy.c         0x00000000   Number         0  memcpya.o ABSOLUTE
    ../clib/microlib/string/memset.c         0x00000000   Number         0  memseta.o ABSOLUTE
    ../clib/microlib/string/memset.c         0x00000000   Number         0  memset.o ABSOLUTE
    ../clib/microlib/string/strlen.c         0x00000000   Number         0  strlen.o ABSOLUTE
    ../clib/microlib/stubs.s                 0x00000000   Number         0  iusefp.o ABSOLUTE
    ../fplib/microlib/fpadd.c                0x00000000   Number         0  dadd.o ABSOLUTE
    ../fplib/microlib/fpdiv.c                0x00000000   Number         0  ddiv.o ABSOLUTE
    ../fplib/microlib/fpepilogue.c           0x00000000   Number         0  depilogue.o ABSOLUTE
    ../fplib/microlib/fpfix.c                0x00000000   Number         0  dfixul.o ABSOLUTE
    ../fplib/microlib/fpfix.c                0x00000000   Number         0  dfixui.o ABSOLUTE
    ../fplib/microlib/fpflt.c                0x00000000   Number         0  dfltui.o ABSOLUTE
    ../fplib/microlib/fpmul.c                0x00000000   Number         0  dmul.o ABSOLUTE
    ..\CMSIS\src\at32f421_clock.c            0x00000000   Number         0  at32f421_clock.o ABSOLUTE
    ..\CMSIS\src\at32f421_int.c              0x00000000   Number         0  at32f421_int.o ABSOLUTE
    ..\CMSIS\src\system_at32f421.c           0x00000000   Number         0  system_at32f421.o ABSOLUTE
    ..\CMSIS\startup_at32f421.s              0x00000000   Number         0  startup_at32f421.o ABSOLUTE
    ..\FreeRTOS\croutine.c                   0x00000000   Number         0  croutine.o ABSOLUTE
    ..\FreeRTOS\event_groups.c               0x00000000   Number         0  event_groups.o ABSOLUTE
    ..\FreeRTOS\list.c                       0x00000000   Number         0  list.o ABSOLUTE
    ..\FreeRTOS\portable\memmang\heap_4.c    0x00000000   Number         0  heap_4.o ABSOLUTE
    ..\FreeRTOS\portable\rvds\ARM_CM3\port.c 0x00000000   Number         0  port.o ABSOLUTE
    ..\FreeRTOS\queue.c                      0x00000000   Number         0  queue.o ABSOLUTE
    ..\FreeRTOS\stream_buffer.c              0x00000000   Number         0  stream_buffer.o ABSOLUTE
    ..\FreeRTOS\tasks.c                      0x00000000   Number         0  tasks.o ABSOLUTE
    ..\FreeRTOS\timers.c                     0x00000000   Number         0  timers.o ABSOLUTE
    ..\Lib\src\at32f421_adc.c                0x00000000   Number         0  at32f421_adc.o ABSOLUTE
    ..\Lib\src\at32f421_cmp.c                0x00000000   Number         0  at32f421_cmp.o ABSOLUTE
    ..\Lib\src\at32f421_crc.c                0x00000000   Number         0  at32f421_crc.o ABSOLUTE
    ..\Lib\src\at32f421_crm.c                0x00000000   Number         0  at32f421_crm.o ABSOLUTE
    ..\Lib\src\at32f421_debug.c              0x00000000   Number         0  at32f421_debug.o ABSOLUTE
    ..\Lib\src\at32f421_dma.c                0x00000000   Number         0  at32f421_dma.o ABSOLUTE
    ..\Lib\src\at32f421_ertc.c               0x00000000   Number         0  at32f421_ertc.o ABSOLUTE
    ..\Lib\src\at32f421_exint.c              0x00000000   Number         0  at32f421_exint.o ABSOLUTE
    ..\Lib\src\at32f421_flash.c              0x00000000   Number         0  at32f421_flash.o ABSOLUTE
    ..\Lib\src\at32f421_gpio.c               0x00000000   Number         0  at32f421_gpio.o ABSOLUTE
    ..\Lib\src\at32f421_i2c.c                0x00000000   Number         0  at32f421_i2c.o ABSOLUTE
    ..\Lib\src\at32f421_misc.c               0x00000000   Number         0  at32f421_misc.o ABSOLUTE
    ..\Lib\src\at32f421_pwc.c                0x00000000   Number         0  at32f421_pwc.o ABSOLUTE
    ..\Lib\src\at32f421_scfg.c               0x00000000   Number         0  at32f421_scfg.o ABSOLUTE
    ..\Lib\src\at32f421_spi.c                0x00000000   Number         0  at32f421_spi.o ABSOLUTE
    ..\Lib\src\at32f421_tmr.c                0x00000000   Number         0  at32f421_tmr.o ABSOLUTE
    ..\Lib\src\at32f421_usart.c              0x00000000   Number         0  at32f421_usart.o ABSOLUTE
    ..\Lib\src\at32f421_wdt.c                0x00000000   Number         0  at32f421_wdt.o ABSOLUTE
    ..\Lib\src\at32f421_wwdt.c               0x00000000   Number         0  at32f421_wwdt.o ABSOLUTE
    ..\User\ADC\src\adc_ctrl.c               0x00000000   Number         0  adc_ctrl.o ABSOLUTE
    ..\User\Beep\src\beep_ctrl.c             0x00000000   Number         0  beep_ctrl.o ABSOLUTE
    ..\User\Beep\src\beep_logic.c            0x00000000   Number         0  beep_logic.o ABSOLUTE
    ..\User\Debug\src\debug_ctrl.c           0x00000000   Number         0  debug_ctrl.o ABSOLUTE
    ..\User\Debug\src\debug_logic.c          0x00000000   Number         0  debug_logic.o ABSOLUTE
    ..\User\Debug\src\debug_task.c           0x00000000   Number         0  debug_task.o ABSOLUTE
    ..\User\Fan\src\fan_ctrl.c               0x00000000   Number         0  fan_ctrl.o ABSOLUTE
    ..\User\Flash\src\flash_ctrl.c           0x00000000   Number         0  flash_ctrl.o ABSOLUTE
    ..\User\Flash\src\flash_logic.c          0x00000000   Number         0  flash_logic.o ABSOLUTE
    ..\User\Flash\src\flash_task.c           0x00000000   Number         0  flash_task.o ABSOLUTE
    ..\User\Key\src\key_ctrl.c               0x00000000   Number         0  key_ctrl.o ABSOLUTE
    ..\User\Key\src\key_logic.c              0x00000000   Number         0  key_logic.o ABSOLUTE
    ..\User\Key\src\key_task.c               0x00000000   Number         0  key_task.o ABSOLUTE
    ..\User\LED\src\led_ctrl.c               0x00000000   Number         0  led_ctrl.o ABSOLUTE
    ..\User\LED\src\led_logic.c              0x00000000   Number         0  led_logic.o ABSOLUTE
    ..\User\LED\src\led_task.c               0x00000000   Number         0  led_task.o ABSOLUTE
    ..\User\OLED\src\oled_ctrl.c             0x00000000   Number         0  oled_ctrl.o ABSOLUTE
    ..\User\OLED\src\oled_font.c             0x00000000   Number         0  oled_font.o ABSOLUTE
    ..\User\OLED\src\oled_logic.c            0x00000000   Number         0  oled_logic.o ABSOLUTE
    ..\User\OLED\src\oled_task.c             0x00000000   Number         0  oled_task.o ABSOLUTE
    ..\User\RS485\src\rs485_ctrl.c           0x00000000   Number         0  rs485_ctrl.o ABSOLUTE
    ..\User\RS485\src\rs485_logic.c          0x00000000   Number         0  rs485_logic.o ABSOLUTE
    ..\User\RS485\src\rs485_task.c           0x00000000   Number         0  rs485_task.o ABSOLUTE
    ..\User\Step_Motor\src\step_motor_ctrl.c 0x00000000   Number         0  step_motor_ctrl.o ABSOLUTE
    ..\User\Step_Motor\src\step_motor_logic.c 0x00000000   Number         0  step_motor_logic.o ABSOLUTE
    ..\User\Step_Motor\src\step_motor_task.c 0x00000000   Number         0  step_motor_task.o ABSOLUTE
    ..\User\Sys\src\init.c                   0x00000000   Number         0  init.o ABSOLUTE
    ..\User\Sys\src\main.c                   0x00000000   Number         0  main.o ABSOLUTE
    ..\User\WS2812B\src\ws2812b_ctrl.c       0x00000000   Number         0  ws2812b_ctrl.o ABSOLUTE
    ..\User\WS2812B\src\ws2812b_logic.c      0x00000000   Number         0  ws2812b_logic.o ABSOLUTE
    ..\User\WS2812B\src\ws2812b_task.c       0x00000000   Number         0  ws2812b_task.o ABSOLUTE
    ..\\CMSIS\\src\\at32f421_clock.c         0x00000000   Number         0  at32f421_clock.o ABSOLUTE
    ..\\CMSIS\\src\\at32f421_int.c           0x00000000   Number         0  at32f421_int.o ABSOLUTE
    ..\\CMSIS\\src\\system_at32f421.c        0x00000000   Number         0  system_at32f421.o ABSOLUTE
    ..\\FreeRTOS\\portable\\rvds\\ARM_CM3\\port.c 0x00000000   Number         0  port.o ABSOLUTE
    ..\\Lib\\src\\at32f421_adc.c             0x00000000   Number         0  at32f421_adc.o ABSOLUTE
    ..\\Lib\\src\\at32f421_cmp.c             0x00000000   Number         0  at32f421_cmp.o ABSOLUTE
    ..\\Lib\\src\\at32f421_crc.c             0x00000000   Number         0  at32f421_crc.o ABSOLUTE
    ..\\Lib\\src\\at32f421_crm.c             0x00000000   Number         0  at32f421_crm.o ABSOLUTE
    ..\\Lib\\src\\at32f421_debug.c           0x00000000   Number         0  at32f421_debug.o ABSOLUTE
    ..\\Lib\\src\\at32f421_dma.c             0x00000000   Number         0  at32f421_dma.o ABSOLUTE
    ..\\Lib\\src\\at32f421_ertc.c            0x00000000   Number         0  at32f421_ertc.o ABSOLUTE
    ..\\Lib\\src\\at32f421_exint.c           0x00000000   Number         0  at32f421_exint.o ABSOLUTE
    ..\\Lib\\src\\at32f421_flash.c           0x00000000   Number         0  at32f421_flash.o ABSOLUTE
    ..\\Lib\\src\\at32f421_gpio.c            0x00000000   Number         0  at32f421_gpio.o ABSOLUTE
    ..\\Lib\\src\\at32f421_i2c.c             0x00000000   Number         0  at32f421_i2c.o ABSOLUTE
    ..\\Lib\\src\\at32f421_misc.c            0x00000000   Number         0  at32f421_misc.o ABSOLUTE
    ..\\Lib\\src\\at32f421_pwc.c             0x00000000   Number         0  at32f421_pwc.o ABSOLUTE
    ..\\Lib\\src\\at32f421_scfg.c            0x00000000   Number         0  at32f421_scfg.o ABSOLUTE
    ..\\Lib\\src\\at32f421_spi.c             0x00000000   Number         0  at32f421_spi.o ABSOLUTE
    ..\\Lib\\src\\at32f421_tmr.c             0x00000000   Number         0  at32f421_tmr.o ABSOLUTE
    ..\\Lib\\src\\at32f421_usart.c           0x00000000   Number         0  at32f421_usart.o ABSOLUTE
    ..\\Lib\\src\\at32f421_wdt.c             0x00000000   Number         0  at32f421_wdt.o ABSOLUTE
    ..\\Lib\\src\\at32f421_wwdt.c            0x00000000   Number         0  at32f421_wwdt.o ABSOLUTE
    ..\\User\\ADC\\src\\adc_ctrl.c           0x00000000   Number         0  adc_ctrl.o ABSOLUTE
    ..\\User\\Beep\\src\\beep_ctrl.c         0x00000000   Number         0  beep_ctrl.o ABSOLUTE
    ..\\User\\Beep\\src\\beep_logic.c        0x00000000   Number         0  beep_logic.o ABSOLUTE
    ..\\User\\Debug\\src\\debug_ctrl.c       0x00000000   Number         0  debug_ctrl.o ABSOLUTE
    ..\\User\\Debug\\src\\debug_logic.c      0x00000000   Number         0  debug_logic.o ABSOLUTE
    ..\\User\\Debug\\src\\debug_task.c       0x00000000   Number         0  debug_task.o ABSOLUTE
    ..\\User\\Fan\\src\\fan_ctrl.c           0x00000000   Number         0  fan_ctrl.o ABSOLUTE
    ..\\User\\Flash\\src\\flash_ctrl.c       0x00000000   Number         0  flash_ctrl.o ABSOLUTE
    ..\\User\\Flash\\src\\flash_logic.c      0x00000000   Number         0  flash_logic.o ABSOLUTE
    ..\\User\\Flash\\src\\flash_task.c       0x00000000   Number         0  flash_task.o ABSOLUTE
    ..\\User\\Key\\src\\key_ctrl.c           0x00000000   Number         0  key_ctrl.o ABSOLUTE
    ..\\User\\Key\\src\\key_logic.c          0x00000000   Number         0  key_logic.o ABSOLUTE
    ..\\User\\Key\\src\\key_task.c           0x00000000   Number         0  key_task.o ABSOLUTE
    ..\\User\\LED\\src\\led_ctrl.c           0x00000000   Number         0  led_ctrl.o ABSOLUTE
    ..\\User\\LED\\src\\led_logic.c          0x00000000   Number         0  led_logic.o ABSOLUTE
    ..\\User\\LED\\src\\led_task.c           0x00000000   Number         0  led_task.o ABSOLUTE
    ..\\User\\OLED\\src\\oled_ctrl.c         0x00000000   Number         0  oled_ctrl.o ABSOLUTE
    ..\\User\\OLED\\src\\oled_logic.c        0x00000000   Number         0  oled_logic.o ABSOLUTE
    ..\\User\\OLED\\src\\oled_task.c         0x00000000   Number         0  oled_task.o ABSOLUTE
    ..\\User\\RS485\\src\\rs485_ctrl.c       0x00000000   Number         0  rs485_ctrl.o ABSOLUTE
    ..\\User\\RS485\\src\\rs485_logic.c      0x00000000   Number         0  rs485_logic.o ABSOLUTE
    ..\\User\\RS485\\src\\rs485_task.c       0x00000000   Number         0  rs485_task.o ABSOLUTE
    ..\\User\\Step_Motor\\src\\step_motor_ctrl.c 0x00000000   Number         0  step_motor_ctrl.o ABSOLUTE
    ..\\User\\Step_Motor\\src\\step_motor_logic.c 0x00000000   Number         0  step_motor_logic.o ABSOLUTE
    ..\\User\\Step_Motor\\src\\step_motor_task.c 0x00000000   Number         0  step_motor_task.o ABSOLUTE
    ..\\User\\Sys\\src\\init.c               0x00000000   Number         0  init.o ABSOLUTE
    ..\\User\\WS2812B\\src\\ws2812b_ctrl.c   0x00000000   Number         0  ws2812b_ctrl.o ABSOLUTE
    ..\\User\\WS2812B\\src\\ws2812b_logic.c  0x00000000   Number         0  ws2812b_logic.o ABSOLUTE
    ..\\User\\WS2812B\\src\\ws2812b_task.c   0x00000000   Number         0  ws2812b_task.o ABSOLUTE
    cdrcmple.s                               0x00000000   Number         0  cdrcmple.o ABSOLUTE
    dc.s                                     0x00000000   Number         0  dc.o ABSOLUTE
    handlers.s                               0x00000000   Number         0  handlers.o ABSOLUTE
    init.s                                   0x00000000   Number         0  init.o ABSOLUTE
    RESET                                    0x08000000   Section      204  startup_at32f421.o(RESET)
    .ARM.Collect$$$$00000000                 0x080000cc   Section        0  entry.o(.ARM.Collect$$$$00000000)
    .ARM.Collect$$$$00000001                 0x080000cc   Section        4  entry2.o(.ARM.Collect$$$$00000001)
    .ARM.Collect$$$$00000004                 0x080000d0   Section        4  entry5.o(.ARM.Collect$$$$00000004)
    .ARM.Collect$$$$00000008                 0x080000d4   Section        0  entry7b.o(.ARM.Collect$$$$00000008)
    .ARM.Collect$$$$0000000A                 0x080000d4   Section        0  entry8b.o(.ARM.Collect$$$$0000000A)
    .ARM.Collect$$$$0000000B                 0x080000d4   Section        8  entry9a.o(.ARM.Collect$$$$0000000B)
    .ARM.Collect$$$$0000000E                 0x080000dc   Section        4  entry12b.o(.ARM.Collect$$$$0000000E)
    .ARM.Collect$$$$0000000F                 0x080000e0   Section        0  entry10a.o(.ARM.Collect$$$$0000000F)
    .ARM.Collect$$$$00000011                 0x080000e0   Section        0  entry11a.o(.ARM.Collect$$$$00000011)
    .ARM.Collect$$$$00002712                 0x080000e0   Section        4  entry2.o(.ARM.Collect$$$$00002712)
    __lit__00000000                          0x080000e0   Data           4  entry2.o(.ARM.Collect$$$$00002712)
    .emb_text                                0x080000e4   Section      150  port.o(.emb_text)
    .text                                    0x0800017c   Section       36  startup_at32f421.o(.text)
    .text                                    0x080001a0   Section        0  uldiv.o(.text)
    .text                                    0x08000204   Section        0  rand.o(.text)
    .text                                    0x08000228   Section        0  memcpya.o(.text)
    .text                                    0x0800024c   Section        0  memseta.o(.text)
    .text                                    0x08000270   Section        0  strlen.o(.text)
    .text                                    0x0800027e   Section        0  dadd.o(.text)
    .text                                    0x080003cc   Section        0  dmul.o(.text)
    .text                                    0x080004b0   Section        0  ddiv.o(.text)
    .text                                    0x0800058e   Section        0  dfltui.o(.text)
    .text                                    0x080005a8   Section        0  dfixui.o(.text)
    .text                                    0x080005da   Section        0  llshl.o(.text)
    .text                                    0x080005f8   Section        0  llushr.o(.text)
    .text                                    0x08000618   Section        0  llsshr.o(.text)
    .text                                    0x0800063c   Section        0  depilogue.o(.text)
    .text                                    0x0800063c   Section        0  iusefp.o(.text)
    .text                                    0x080006f8   Section       36  init.o(.text)
    .text                                    0x0800071c   Section        0  __dczerorl2.o(.text)
    i.BusFault_Handler                       0x08000772   Section        0  at32f421_int.o(i.BusFault_Handler)
    i.DMA1_Channel1_IRQHandler               0x08000778   Section        0  at32f421_int.o(i.DMA1_Channel1_IRQHandler)
    i.DebugMon_Handler                       0x080007f4   Section        0  at32f421_int.o(i.DebugMon_Handler)
    i.HardFault_Handler                      0x080007f6   Section        0  at32f421_int.o(i.HardFault_Handler)
    i.MemManage_Handler                      0x080007fa   Section        0  at32f421_int.o(i.MemManage_Handler)
    i.NMI_Handler                            0x080007fe   Section        0  at32f421_int.o(i.NMI_Handler)
    i.SysTick_Handler                        0x08000800   Section        0  port.o(i.SysTick_Handler)
    i.SystemInit                             0x08000834   Section        0  system_at32f421.o(i.SystemInit)
    i.TMR14_GLOBAL_IRQHandler                0x080008a0   Section        0  at32f421_int.o(i.TMR14_GLOBAL_IRQHandler)
    i.TMR16_GLOBAL_IRQHandler                0x08000978   Section        0  at32f421_int.o(i.TMR16_GLOBAL_IRQHandler)
    i.TMR17_GLOBAL_IRQHandler                0x08000a50   Section        0  at32f421_int.o(i.TMR17_GLOBAL_IRQHandler)
    i.TMR6_GLOBAL_IRQHandler                 0x08000b14   Section        0  at32f421_int.o(i.TMR6_GLOBAL_IRQHandler)
    i.USART1_IRQHandler                      0x08000b4c   Section        0  at32f421_int.o(i.USART1_IRQHandler)
    i.USART2_IRQHandler                      0x08000bb0   Section        0  at32f421_int.o(i.USART2_IRQHandler)
    i.UsageFault_Handler                     0x08000c14   Section        0  at32f421_int.o(i.UsageFault_Handler)
    i.__0sprintf$8                           0x08000c18   Section        0  printf8.o(i.__0sprintf$8)
    i.__scatterload_copy                     0x08000c40   Section       14  handlers.o(i.__scatterload_copy)
    i.__scatterload_null                     0x08000c4e   Section        2  handlers.o(i.__scatterload_null)
    i.__scatterload_zeroinit                 0x08000c50   Section       14  handlers.o(i.__scatterload_zeroinit)
    i._printf_core                           0x08000c60   Section        0  printf8.o(i._printf_core)
    _printf_core                             0x08000c61   Thumb Code   984  printf8.o(i._printf_core)
    i._printf_post_padding                   0x08001064   Section        0  printf8.o(i._printf_post_padding)
    _printf_post_padding                     0x08001065   Thumb Code    36  printf8.o(i._printf_post_padding)
    i._printf_pre_padding                    0x08001088   Section        0  printf8.o(i._printf_pre_padding)
    _printf_pre_padding                      0x08001089   Thumb Code    46  printf8.o(i._printf_pre_padding)
    i._sputc                                 0x080010b6   Section        0  printf8.o(i._sputc)
    _sputc                                   0x080010b7   Thumb Code    10  printf8.o(i._sputc)
    i.adc_base_config                        0x080010c0   Section        0  at32f421_adc.o(i.adc_base_config)
    i.adc_calibration_init                   0x080010ec   Section        0  at32f421_adc.o(i.adc_calibration_init)
    i.adc_calibration_init_status_get        0x080010f8   Section        0  at32f421_adc.o(i.adc_calibration_init_status_get)
    i.adc_calibration_start                  0x0800110a   Section        0  at32f421_adc.o(i.adc_calibration_start)
    i.adc_calibration_status_get             0x08001116   Section        0  at32f421_adc.o(i.adc_calibration_status_get)
    i.adc_config                             0x08001128   Section        0  adc_ctrl.o(i.adc_config)
    i.adc_dma_mode_enable                    0x08001130   Section        0  at32f421_adc.o(i.adc_dma_mode_enable)
    i.adc_enable                             0x0800113a   Section        0  at32f421_adc.o(i.adc_enable)
    i.adc_init                               0x08001144   Section        0  adc_ctrl.o(i.adc_init)
    adc_init                                 0x08001145   Thumb Code   186  adc_ctrl.o(i.adc_init)
    i.adc_ordinary_channel_set               0x08001210   Section        0  at32f421_adc.o(i.adc_ordinary_channel_set)
    i.adc_ordinary_conversion_trigger_set    0x080012b8   Section        0  at32f421_adc.o(i.adc_ordinary_conversion_trigger_set)
    i.adc_ordinary_software_trigger_enable   0x080012d8   Section        0  at32f421_adc.o(i.adc_ordinary_software_trigger_enable)
    i.adc_tempersensor_vintrv_enable         0x080012e4   Section        0  at32f421_adc.o(i.adc_tempersensor_vintrv_enable)
    i.beep_alarm                             0x080012f8   Section        0  beep_logic.o(i.beep_alarm)
    i.beep_config                            0x08001340   Section        0  beep_ctrl.o(i.beep_config)
    i.beep_init                              0x0800134c   Section        0  beep_ctrl.o(i.beep_init)
    beep_init                                0x0800134d   Thumb Code   110  beep_ctrl.o(i.beep_init)
    i.beep_off                               0x080013cc   Section        0  beep_ctrl.o(i.beep_off)
    i.beep_on                                0x080013dc   Section        0  beep_ctrl.o(i.beep_on)
    i.crc16_modbus_calc                      0x080013ec   Section        0  rs485_logic.o(i.crc16_modbus_calc)
    i.crm_adc_clock_div_set                  0x08001428   Section        0  at32f421_crm.o(i.crm_adc_clock_div_set)
    i.crm_ahb_div_set                        0x08001448   Section        0  at32f421_crm.o(i.crm_ahb_div_set)
    i.crm_apb1_div_set                       0x0800145c   Section        0  at32f421_crm.o(i.crm_apb1_div_set)
    i.crm_apb2_div_set                       0x08001470   Section        0  at32f421_crm.o(i.crm_apb2_div_set)
    i.crm_auto_step_mode_enable              0x08001484   Section        0  at32f421_crm.o(i.crm_auto_step_mode_enable)
    i.crm_clock_source_enable                0x080014ac   Section        0  at32f421_crm.o(i.crm_clock_source_enable)
    i.crm_clocks_freq_get                    0x0800150c   Section        0  at32f421_crm.o(i.crm_clocks_freq_get)
    i.crm_flag_get                           0x080016b8   Section        0  at32f421_crm.o(i.crm_flag_get)
    i.crm_periph_clock_enable                0x080016e8   Section        0  at32f421_crm.o(i.crm_periph_clock_enable)
    i.crm_pll_config                         0x0800172c   Section        0  at32f421_crm.o(i.crm_pll_config)
    i.crm_reset                              0x08001840   Section        0  at32f421_crm.o(i.crm_reset)
    i.crm_sysclk_switch                      0x080018a4   Section        0  at32f421_crm.o(i.crm_sysclk_switch)
    i.crm_sysclk_switch_status_get           0x080018e0   Section        0  at32f421_crm.o(i.crm_sysclk_switch_status_get)
    i.debug_config                           0x080018f0   Section        0  debug_ctrl.o(i.debug_config)
    i.debug_init                             0x080018f8   Section        0  debug_ctrl.o(i.debug_init)
    debug_init                               0x080018f9   Thumb Code   170  debug_ctrl.o(i.debug_init)
    i.delay                                  0x080019b8   Section        0  oled_ctrl.o(i.delay)
    delay                                    0x080019b9   Thumb Code    14  oled_ctrl.o(i.delay)
    i.dma_channel_enable                     0x080019c6   Section        0  at32f421_dma.o(i.dma_channel_enable)
    i.dma_flag_clear                         0x080019d0   Section        0  at32f421_dma.o(i.dma_flag_clear)
    i.dma_flag_get                           0x080019dc   Section        0  at32f421_dma.o(i.dma_flag_get)
    i.dma_init                               0x080019f8   Section        0  at32f421_dma.o(i.dma_init)
    i.dma_interrupt_enable                   0x08001a54   Section        0  at32f421_dma.o(i.dma_interrupt_enable)
    i.dma_reset                              0x08001a68   Section        0  at32f421_dma.o(i.dma_reset)
    i.fan_config                             0x08001aa0   Section        0  fan_ctrl.o(i.fan_config)
    i.fan_init                               0x08001aac   Section        0  fan_ctrl.o(i.fan_init)
    fan_init                                 0x08001aad   Thumb Code    28  fan_ctrl.o(i.fan_init)
    i.fan_off                                0x08001ad4   Section        0  fan_ctrl.o(i.fan_off)
    i.fan_on                                 0x08001ae8   Section        0  fan_ctrl.o(i.fan_on)
    i.flash_data_save                        0x08001afc   Section        0  flash_logic.o(i.flash_data_save)
    i.flash_erase_sectors                    0x08001b74   Section        0  flash_ctrl.o(i.flash_erase_sectors)
    i.flash_flag_clear                       0x08001bbc   Section        0  at32f421_flash.o(i.flash_flag_clear)
    i.flash_halfword_program                 0x08001bc8   Section        0  at32f421_flash.o(i.flash_halfword_program)
    i.flash_lock                             0x08001c00   Section        0  at32f421_flash.o(i.flash_lock)
    i.flash_operation_status_get             0x08001c14   Section        0  at32f421_flash.o(i.flash_operation_status_get)
    i.flash_operation_wait_for               0x08001c48   Section        0  at32f421_flash.o(i.flash_operation_wait_for)
    i.flash_program_data_halfword            0x08001c6c   Section        0  flash_ctrl.o(i.flash_program_data_halfword)
    i.flash_read                             0x08001c98   Section        0  flash_logic.o(i.flash_read)
    i.flash_sector_erase                     0x08001ee8   Section        0  at32f421_flash.o(i.flash_sector_erase)
    i.flash_unlock                           0x08001f28   Section        0  at32f421_flash.o(i.flash_unlock)
    i.get_value_num                          0x08001f40   Section        0  oled_logic.o(i.get_value_num)
    get_value_num                            0x08001f41   Thumb Code    32  oled_logic.o(i.get_value_num)
    i.gpio_bits_reset                        0x08001f60   Section        0  at32f421_gpio.o(i.gpio_bits_reset)
    i.gpio_bits_set                          0x08001f64   Section        0  at32f421_gpio.o(i.gpio_bits_set)
    i.gpio_init                              0x08001f68   Section        0  at32f421_gpio.o(i.gpio_init)
    i.gpio_input_data_bit_read               0x08001fe2   Section        0  at32f421_gpio.o(i.gpio_input_data_bit_read)
    i.gpio_pin_mux_config                    0x08001ff4   Section        0  at32f421_gpio.o(i.gpio_pin_mux_config)
    i.key_config                             0x08002038   Section        0  key_ctrl.o(i.key_config)
    i.key_down_handle                        0x08002054   Section        0  key_logic.o(i.key_down_handle)
    i.key_init                               0x080020c0   Section        0  key_ctrl.o(i.key_init)
    key_init                                 0x080020c1   Thumb Code   158  key_ctrl.o(i.key_init)
    i.key_left_handle                        0x08002174   Section        0  key_logic.o(i.key_left_handle)
    i.key_mid_handle                         0x080021f8   Section        0  key_logic.o(i.key_mid_handle)
    i.key_right_handle                       0x080022d4   Section        0  key_logic.o(i.key_right_handle)
    i.key_scan                               0x08002358   Section        0  key_logic.o(i.key_scan)
    i.key_up_handle                          0x08002440   Section        0  key_logic.o(i.key_up_handle)
    i.led_blink                              0x080024a4   Section        0  led_logic.o(i.led_blink)
    i.led_config                             0x080024c4   Section        0  led_ctrl.o(i.led_config)
    i.led_init                               0x080024cc   Section        0  led_ctrl.o(i.led_init)
    led_init                                 0x080024cd   Thumb Code   326  led_ctrl.o(i.led_init)
    i.led_off                                0x08002630   Section        0  led_ctrl.o(i.led_off)
    i.led_on                                 0x0800264c   Section        0  led_ctrl.o(i.led_on)
    i.led_set_blink_time                     0x08002668   Section        0  led_logic.o(i.led_set_blink_time)
    i.led_set_breath_step                    0x0800268a   Section        0  led_logic.o(i.led_set_breath_step)
    i.led_set_mode                           0x080026ac   Section        0  led_logic.o(i.led_set_mode)
    i.main                                   0x080027a4   Section        0  main.o(i.main)
    i.nvic_irq_enable                        0x080027d8   Section        0  at32f421_misc.o(i.nvic_irq_enable)
    i.nvic_priority_group_config             0x080028a0   Section        0  at32f421_misc.o(i.nvic_priority_group_config)
    i.nvic_system_reset                      0x080028c8   Section        0  at32f421_misc.o(i.nvic_system_reset)
    i.oled_clear                             0x080028f4   Section        0  oled_logic.o(i.oled_clear)
    i.oled_config                            0x08002934   Section        0  oled_ctrl.o(i.oled_config)
    i.oled_dis_main                          0x08002960   Section        0  oled_logic.o(i.oled_dis_main)
    i.oled_dis_menu                          0x08003198   Section        0  oled_logic.o(i.oled_dis_menu)
    i.oled_display_off                       0x080037bc   Section        0  oled_logic.o(i.oled_display_off)
    i.oled_display_on                        0x080037d8   Section        0  oled_logic.o(i.oled_display_on)
    i.oled_iic_send_byte                     0x080037f4   Section        0  oled_ctrl.o(i.oled_iic_send_byte)
    oled_iic_send_byte                       0x080037f5   Thumb Code   104  oled_ctrl.o(i.oled_iic_send_byte)
    i.oled_iic_send_data                     0x08003860   Section        0  oled_ctrl.o(i.oled_iic_send_data)
    i.oled_iic_start                         0x08003898   Section        0  oled_ctrl.o(i.oled_iic_start)
    oled_iic_start                           0x08003899   Thumb Code    68  oled_ctrl.o(i.oled_iic_start)
    i.oled_iic_stop                          0x080038e0   Section        0  oled_ctrl.o(i.oled_iic_stop)
    oled_iic_stop                            0x080038e1   Thumb Code    52  oled_ctrl.o(i.oled_iic_stop)
    i.oled_iic_wait_ack                      0x08003918   Section        0  oled_ctrl.o(i.oled_iic_wait_ack)
    oled_iic_wait_ack                        0x08003919   Thumb Code    52  oled_ctrl.o(i.oled_iic_wait_ack)
    i.oled_init                              0x08003950   Section        0  oled_ctrl.o(i.oled_init)
    oled_init                                0x08003951   Thumb Code    42  oled_ctrl.o(i.oled_init)
    i.oled_menu_level3_key                   0x08003988   Section        0  oled_logic.o(i.oled_menu_level3_key)
    i.oled_menu_level3_led                   0x080039f8   Section        0  oled_logic.o(i.oled_menu_level3_led)
    i.oled_menu_level3_oled                  0x08003ab4   Section        0  oled_logic.o(i.oled_menu_level3_oled)
    i.oled_menu_level3_rs485                 0x08003c24   Section        0  oled_logic.o(i.oled_menu_level3_rs485)
    i.oled_menu_level3_step_motor            0x08003d9c   Section        0  oled_logic.o(i.oled_menu_level3_step_motor)
    i.oled_menu_level3_ws2812b               0x08003e28   Section        0  oled_logic.o(i.oled_menu_level3_ws2812b)
    i.oled_menu_level4_led                   0x08003e94   Section        0  oled_logic.o(i.oled_menu_level4_led)
    i.oled_menu_level4_ws2812b               0x0800402c   Section        0  oled_logic.o(i.oled_menu_level4_ws2812b)
    i.oled_menu_level5_ws2812b               0x0800413c   Section        0  oled_logic.o(i.oled_menu_level5_ws2812b)
    i.oled_set_position                      0x080042b4   Section        0  oled_logic.o(i.oled_set_position)
    i.oled_set_val                           0x080042ec   Section        0  oled_logic.o(i.oled_set_val)
    i.oled_show_char_8x16                    0x08004640   Section        0  oled_logic.o(i.oled_show_char_8x16)
    i.oled_show_str_8x16                     0x080046c0   Section        0  oled_logic.o(i.oled_show_str_8x16)
    i.prvAddCurrentTaskToDelayedList         0x08004708   Section        0  tasks.o(i.prvAddCurrentTaskToDelayedList)
    prvAddCurrentTaskToDelayedList           0x08004709   Thumb Code   124  tasks.o(i.prvAddCurrentTaskToDelayedList)
    i.prvAddNewTaskToReadyList               0x080047a0   Section        0  tasks.o(i.prvAddNewTaskToReadyList)
    prvAddNewTaskToReadyList                 0x080047a1   Thumb Code   150  tasks.o(i.prvAddNewTaskToReadyList)
    i.prvCheckTasksWaitingTermination        0x08004854   Section        0  tasks.o(i.prvCheckTasksWaitingTermination)
    prvCheckTasksWaitingTermination          0x08004855   Thumb Code    60  tasks.o(i.prvCheckTasksWaitingTermination)
    i.prvCopyDataToQueue                     0x0800489c   Section        0  queue.o(i.prvCopyDataToQueue)
    prvCopyDataToQueue                       0x0800489d   Thumb Code   126  queue.o(i.prvCopyDataToQueue)
    i.prvDeleteTCB                           0x0800491a   Section        0  tasks.o(i.prvDeleteTCB)
    prvDeleteTCB                             0x0800491b   Thumb Code    18  tasks.o(i.prvDeleteTCB)
    i.prvGetDisinheritPriorityAfterTimeout   0x0800492c   Section        0  queue.o(i.prvGetDisinheritPriorityAfterTimeout)
    prvGetDisinheritPriorityAfterTimeout     0x0800492d   Thumb Code    20  queue.o(i.prvGetDisinheritPriorityAfterTimeout)
    i.prvHeapInit                            0x08004940   Section        0  heap_4.o(i.prvHeapInit)
    prvHeapInit                              0x08004941   Thumb Code    98  heap_4.o(i.prvHeapInit)
    i.prvIdleTask                            0x080049bc   Section        0  tasks.o(i.prvIdleTask)
    prvIdleTask                              0x080049bd   Thumb Code    32  tasks.o(i.prvIdleTask)
    i.prvInitialiseNewQueue                  0x080049e4   Section        0  queue.o(i.prvInitialiseNewQueue)
    prvInitialiseNewQueue                    0x080049e5   Thumb Code    38  queue.o(i.prvInitialiseNewQueue)
    i.prvInitialiseNewTask                   0x08004a0a   Section        0  tasks.o(i.prvInitialiseNewTask)
    prvInitialiseNewTask                     0x08004a0b   Thumb Code   180  tasks.o(i.prvInitialiseNewTask)
    i.prvInitialiseTaskLists                 0x08004ac0   Section        0  tasks.o(i.prvInitialiseTaskLists)
    prvInitialiseTaskLists                   0x08004ac1   Thumb Code    70  tasks.o(i.prvInitialiseTaskLists)
    i.prvInsertBlockIntoFreeList             0x08004b28   Section        0  heap_4.o(i.prvInsertBlockIntoFreeList)
    prvInsertBlockIntoFreeList               0x08004b29   Thumb Code    96  heap_4.o(i.prvInsertBlockIntoFreeList)
    i.prvIsQueueEmpty                        0x08004b90   Section        0  queue.o(i.prvIsQueueEmpty)
    prvIsQueueEmpty                          0x08004b91   Thumb Code    26  queue.o(i.prvIsQueueEmpty)
    i.prvIsQueueFull                         0x08004baa   Section        0  queue.o(i.prvIsQueueFull)
    prvIsQueueFull                           0x08004bab   Thumb Code    30  queue.o(i.prvIsQueueFull)
    i.prvResetNextTaskUnblockTime            0x08004bc8   Section        0  tasks.o(i.prvResetNextTaskUnblockTime)
    prvResetNextTaskUnblockTime              0x08004bc9   Thumb Code    40  tasks.o(i.prvResetNextTaskUnblockTime)
    i.prvTaskExitError                       0x08004bf8   Section        0  port.o(i.prvTaskExitError)
    prvTaskExitError                         0x08004bf9   Thumb Code    60  port.o(i.prvTaskExitError)
    i.prvTaskIsTaskSuspended                 0x08004c38   Section        0  tasks.o(i.prvTaskIsTaskSuspended)
    prvTaskIsTaskSuspended                   0x08004c39   Thumb Code    80  tasks.o(i.prvTaskIsTaskSuspended)
    i.prvUnlockQueue                         0x08004c90   Section        0  queue.o(i.prvUnlockQueue)
    prvUnlockQueue                           0x08004c91   Thumb Code   126  queue.o(i.prvUnlockQueue)
    i.pvPortMalloc                           0x08004d10   Section        0  heap_4.o(i.pvPortMalloc)
    i.pvTaskIncrementMutexHeldCount          0x08004e7c   Section        0  tasks.o(i.pvTaskIncrementMutexHeldCount)
    i.pxPortInitialiseStack                  0x08004e9c   Section        0  port.o(i.pxPortInitialiseStack)
    i.rs485_config                           0x08004ec0   Section        0  rs485_ctrl.o(i.rs485_config)
    i.rs485_data_handle                      0x08004f00   Section        0  rs485_logic.o(i.rs485_data_handle)
    i.rs485_init                             0x08005918   Section        0  rs485_ctrl.o(i.rs485_init)
    rs485_init                               0x08005919   Thumb Code   190  rs485_ctrl.o(i.rs485_init)
    i.rs485_modbus_read_single_reg_response  0x080059ec   Section        0  rs485_logic.o(i.rs485_modbus_read_single_reg_response)
    i.rs485_modbus_write_single_reg_response 0x08005a60   Section        0  rs485_logic.o(i.rs485_modbus_write_single_reg_response)
    i.rs485_send_data                        0x08005b08   Section        0  rs485_logic.o(i.rs485_send_data)
    i.spi_enable                             0x08005b84   Section        0  at32f421_spi.o(i.spi_enable)
    i.spi_i2s_data_transmit                  0x08005b8e   Section        0  at32f421_spi.o(i.spi_i2s_data_transmit)
    i.spi_i2s_flag_get                       0x08005b92   Section        0  at32f421_spi.o(i.spi_i2s_flag_get)
    i.spi_init                               0x08005ba2   Section        0  at32f421_spi.o(i.spi_init)
    i.step_motor_ccw                         0x08005cc8   Section        0  step_motor_logic.o(i.step_motor_ccw)
    i.step_motor_config                      0x08005d00   Section        0  step_motor_ctrl.o(i.step_motor_config)
    i.step_motor_cw                          0x08005d3c   Section        0  step_motor_logic.o(i.step_motor_cw)
    i.step_motor_init                        0x08005d74   Section        0  step_motor_ctrl.o(i.step_motor_init)
    step_motor_init                          0x08005d75   Thumb Code   220  step_motor_ctrl.o(i.step_motor_init)
    i.step_motor_set_mode                    0x08005e64   Section        0  step_motor_logic.o(i.step_motor_set_mode)
    i.step_motor_set_rotate_speed            0x08005f44   Section        0  step_motor_logic.o(i.step_motor_set_rotate_speed)
    i.step_motor_stop                        0x08005ff8   Section        0  step_motor_logic.o(i.step_motor_stop)
    i.sys_init                               0x08006014   Section        0  init.o(i.sys_init)
    i.system_clock_config                    0x08006068   Section        0  at32f421_clock.o(i.system_clock_config)
    i.system_core_clock_update               0x080060d4   Section        0  system_at32f421.o(i.system_core_clock_update)
    i.task_debug                             0x08006228   Section        0  debug_task.o(i.task_debug)
    i.task_flash                             0x08006258   Section        0  flash_task.o(i.task_flash)
    i.task_init                              0x0800641c   Section        0  init.o(i.task_init)
    i.task_key                               0x080065a8   Section        0  key_task.o(i.task_key)
    i.task_led                               0x08006688   Section        0  led_task.o(i.task_led)
    i.task_oled                              0x0800677c   Section        0  oled_task.o(i.task_oled)
    i.task_rs485                             0x08006cf0   Section        0  rs485_task.o(i.task_rs485)
    i.task_step_motor                        0x080070a0   Section        0  step_motor_task.o(i.task_step_motor)
    i.task_ws2812b                           0x08007100   Section        0  ws2812b_task.o(i.task_ws2812b)
    i.tmr_base_init                          0x08007498   Section        0  at32f421_tmr.o(i.tmr_base_init)
    i.tmr_channel_value_set                  0x080074a8   Section        0  at32f421_tmr.o(i.tmr_channel_value_set)
    i.tmr_clock_source_div_set               0x080074d0   Section        0  at32f421_tmr.o(i.tmr_clock_source_div_set)
    i.tmr_cnt_dir_set                        0x080074da   Section        0  at32f421_tmr.o(i.tmr_cnt_dir_set)
    i.tmr_counter_enable                     0x080074e4   Section        0  at32f421_tmr.o(i.tmr_counter_enable)
    i.tmr_counter_value_set                  0x080074ee   Section        0  at32f421_tmr.o(i.tmr_counter_value_set)
    i.tmr_flag_clear                         0x080074f2   Section        0  at32f421_tmr.o(i.tmr_flag_clear)
    i.tmr_interrupt_enable                   0x080074f8   Section        0  at32f421_tmr.o(i.tmr_interrupt_enable)
    i.tmr_interrupt_flag_get                 0x0800750e   Section        0  at32f421_tmr.o(i.tmr_interrupt_flag_get)
    i.tmr_output_channel_buffer_enable       0x08007526   Section        0  at32f421_tmr.o(i.tmr_output_channel_buffer_enable)
    i.tmr_output_channel_config              0x08007568   Section        0  at32f421_tmr.o(i.tmr_output_channel_config)
    i.tmr_output_enable                      0x08007708   Section        0  at32f421_tmr.o(i.tmr_output_enable)
    i.tmr_period_buffer_enable               0x08007712   Section        0  at32f421_tmr.o(i.tmr_period_buffer_enable)
    i.tmr_period_value_set                   0x0800771c   Section        0  at32f421_tmr.o(i.tmr_period_value_set)
    i.usart_data_receive                     0x08007720   Section        0  at32f421_usart.o(i.usart_data_receive)
    i.usart_data_transmit                    0x08007728   Section        0  at32f421_usart.o(i.usart_data_transmit)
    i.usart_enable                           0x08007730   Section        0  at32f421_usart.o(i.usart_enable)
    i.usart_flag_clear                       0x0800773a   Section        0  at32f421_usart.o(i.usart_flag_clear)
    i.usart_flag_get                         0x0800774c   Section        0  at32f421_usart.o(i.usart_flag_get)
    i.usart_init                             0x0800775c   Section        0  at32f421_usart.o(i.usart_init)
    i.usart_interrupt_enable                 0x080077c8   Section        0  at32f421_usart.o(i.usart_interrupt_enable)
    i.usart_parity_selection_config          0x080077fe   Section        0  at32f421_usart.o(i.usart_parity_selection_config)
    i.usart_receiver_enable                  0x0800784a   Section        0  at32f421_usart.o(i.usart_receiver_enable)
    i.usart_transmitter_enable               0x08007854   Section        0  at32f421_usart.o(i.usart_transmitter_enable)
    i.uxListRemove                           0x0800785e   Section        0  list.o(i.uxListRemove)
    i.vListInitialise                        0x08007886   Section        0  list.o(i.vListInitialise)
    i.vListInitialiseItem                    0x080078a0   Section        0  list.o(i.vListInitialiseItem)
    i.vListInsert                            0x080078a6   Section        0  list.o(i.vListInsert)
    i.vListInsertEnd                         0x080078da   Section        0  list.o(i.vListInsertEnd)
    i.vPortEnterCritical                     0x080078f4   Section        0  port.o(i.vPortEnterCritical)
    i.vPortExitCritical                      0x08007948   Section        0  port.o(i.vPortExitCritical)
    i.vPortFree                              0x08007984   Section        0  heap_4.o(i.vPortFree)
    i.vPortSetupTimerInterrupt               0x08007a28   Section        0  port.o(i.vPortSetupTimerInterrupt)
    i.vTaskDelay                             0x08007a50   Section        0  tasks.o(i.vTaskDelay)
    i.vTaskDelete                            0x08007aac   Section        0  tasks.o(i.vTaskDelete)
    i.vTaskInternalSetTimeOutState           0x08007ba0   Section        0  tasks.o(i.vTaskInternalSetTimeOutState)
    i.vTaskMissedYield                       0x08007bb8   Section        0  tasks.o(i.vTaskMissedYield)
    i.vTaskPlaceOnEventList                  0x08007bc4   Section        0  tasks.o(i.vTaskPlaceOnEventList)
    i.vTaskPriorityDisinheritAfterTimeout    0x08007bfc   Section        0  tasks.o(i.vTaskPriorityDisinheritAfterTimeout)
    i.vTaskResume                            0x08007ce0   Section        0  tasks.o(i.vTaskResume)
    i.vTaskStartScheduler                    0x08007d70   Section        0  tasks.o(i.vTaskStartScheduler)
    i.vTaskSuspend                           0x08007e00   Section        0  tasks.o(i.vTaskSuspend)
    i.vTaskSuspendAll                        0x08007f00   Section        0  tasks.o(i.vTaskSuspendAll)
    i.vTaskSwitchContext                     0x08007f10   Section        0  tasks.o(i.vTaskSwitchContext)
    i.ws2812b_config                         0x08007f9c   Section        0  ws2812b_ctrl.o(i.ws2812b_config)
    i.ws2812b_init                           0x08007ff8   Section        0  ws2812b_ctrl.o(i.ws2812b_init)
    ws2812b_init                             0x08007ff9   Thumb Code    76  ws2812b_ctrl.o(i.ws2812b_init)
    i.ws2812b_send_bit                       0x08008054   Section        0  ws2812b_logic.o(i.ws2812b_send_bit)
    ws2812b_send_bit                         0x08008055   Thumb Code    54  ws2812b_logic.o(i.ws2812b_send_bit)
    i.ws2812b_send_byte                      0x08008090   Section        0  ws2812b_logic.o(i.ws2812b_send_byte)
    ws2812b_send_byte                        0x08008091   Thumb Code    30  ws2812b_logic.o(i.ws2812b_send_byte)
    i.ws2812b_send_reset                     0x080080b0   Section        0  ws2812b_logic.o(i.ws2812b_send_reset)
    i.ws2812b_send_rgb_data                  0x080080ec   Section        0  ws2812b_logic.o(i.ws2812b_send_rgb_data)
    i.xPortStartScheduler                    0x08008104   Section        0  port.o(i.xPortStartScheduler)
    i.xQueueGenericCreate                    0x080081d0   Section        0  queue.o(i.xQueueGenericCreate)
    i.xQueueGenericReset                     0x08008274   Section        0  queue.o(i.xQueueGenericReset)
    i.xQueueGenericSend                      0x0800830c   Section        0  queue.o(i.xQueueGenericSend)
    i.xQueueSemaphoreTake                    0x0800848c   Section        0  queue.o(i.xQueueSemaphoreTake)
    i.xTaskCheckForTimeOut                   0x0800861c   Section        0  tasks.o(i.xTaskCheckForTimeOut)
    i.xTaskCreate                            0x080086ac   Section        0  tasks.o(i.xTaskCreate)
    i.xTaskIncrementTick                     0x0800870c   Section        0  tasks.o(i.xTaskIncrementTick)
    i.xTaskPriorityDisinherit                0x08008854   Section        0  tasks.o(i.xTaskPriorityDisinherit)
    i.xTaskPriorityInherit                   0x08008910   Section        0  tasks.o(i.xTaskPriorityInherit)
    i.xTaskRemoveFromEventList               0x080089c8   Section        0  tasks.o(i.xTaskRemoveFromEventList)
    i.xTaskResumeAll                         0x08008a60   Section        0  tasks.o(i.xTaskResumeAll)
    .constdata                               0x08008b64   Section       16  system_at32f421.o(.constdata)
    sys_ahb_div_table                        0x08008b64   Data          16  system_at32f421.o(.constdata)
    .constdata                               0x08008b74   Section       40  at32f421_crm.o(.constdata)
    sclk_ahb_div_table                       0x08008b74   Data          16  at32f421_crm.o(.constdata)
    ahb_apb1_div_table                       0x08008b84   Data           8  at32f421_crm.o(.constdata)
    ahb_apb2_div_table                       0x08008b8c   Data           8  at32f421_crm.o(.constdata)
    adc_div_table                            0x08008b94   Data           8  at32f421_crm.o(.constdata)
    .constdata                               0x08008b9c   Section     2048  oled_font.o(.constdata)
    .constdata                               0x0800939c   Section       24  adc_ctrl.o(.constdata)
    .constdata                               0x080093b4   Section        8  beep_ctrl.o(.constdata)
    .constdata                               0x080093bc   Section        8  debug_ctrl.o(.constdata)
    .constdata                               0x080093c4   Section        8  fan_ctrl.o(.constdata)
    .constdata                               0x080093cc   Section        8  key_ctrl.o(.constdata)
    .constdata                               0x080093d4   Section       15  led_ctrl.o(.constdata)
    .constdata                               0x080093e4   Section        8  oled_ctrl.o(.constdata)
    .constdata                               0x080093ec   Section       48  rs485_ctrl.o(.constdata)
    .constdata                               0x0800941c   Section       15  step_motor_ctrl.o(.constdata)
    .constdata                               0x0800942c   Section       16  ws2812b_ctrl.o(.constdata)
    .constdata                               0x0800943c   Section       15  led_logic.o(.constdata)
    .conststring                             0x0800944c   Section      640  oled_ctrl.o(.conststring)
    .data                                    0x20000000   Section        4  system_at32f421.o(.data)
    .data                                    0x20000008   Section       16  adc_ctrl.o(.data)
    .data                                    0x20000018   Section        2  beep_ctrl.o(.data)
    .data                                    0x2000001a   Section        2  debug_ctrl.o(.data)
    .data                                    0x2000001c   Section        5  flash_ctrl.o(.data)
    .data                                    0x20000024   Section      106  key_ctrl.o(.data)
    .data                                    0x20000090   Section       58  led_ctrl.o(.data)
    .data                                    0x200000cc   Section     1020  oled_ctrl.o(.data)
    oledMenuItemOption                       0x200000cc   Data          72  oled_ctrl.o(.data)
    oledMenuItemKey                          0x20000114   Data          32  oled_ctrl.o(.data)
    oledMenuItemLed                          0x20000134   Data          24  oled_ctrl.o(.data)
    oledMenuItemLedOption                    0x2000014c   Data          48  oled_ctrl.o(.data)
    oledMenuItemLedMode                      0x2000017c   Data          32  oled_ctrl.o(.data)
    oledMenuItemOled                         0x2000019c   Data          56  oled_ctrl.o(.data)
    oledMenuItemOledDir                      0x200001d4   Data          24  oled_ctrl.o(.data)
    oledMenuItemOledLight                    0x200001ec   Data          32  oled_ctrl.o(.data)
    oledMenuItemOledCursorStyle              0x2000020c   Data          64  oled_ctrl.o(.data)
    oledMenuItemOledMenuNumber               0x2000024c   Data          24  oled_ctrl.o(.data)
    oledMenuItemRs485                        0x20000264   Data          40  oled_ctrl.o(.data)
    oledMenuItemRs485Mode                    0x2000028c   Data          24  oled_ctrl.o(.data)
    oledMenuItemRs485Baud                    0x200002a4   Data          88  oled_ctrl.o(.data)
    oledMenuItemStepMotor                    0x200002fc   Data          24  oled_ctrl.o(.data)
    oledMenuItemStepMotorMode                0x20000314   Data          48  oled_ctrl.o(.data)
    oledMenuItemStepMotorSpd                 0x20000344   Data          48  oled_ctrl.o(.data)
    oledMenuItemWs2812b                      0x20000374   Data          32  oled_ctrl.o(.data)
    oledMenuItemWs2812bMode                  0x20000394   Data          24  oled_ctrl.o(.data)
    oledMenuItemWs2812bFixed                 0x200003ac   Data          32  oled_ctrl.o(.data)
    .data                                    0x200004c8   Section       17  rs485_ctrl.o(.data)
    .data                                    0x200004d9   Section        3  step_motor_ctrl.o(.data)
    .data                                    0x200004dc   Section       12  ws2812b_ctrl.o(.data)
    .data                                    0x200004e8   Section        7  oled_logic.o(.data)
    temp                                     0x200004e8   Data           2  oled_logic.o(.data)
    oledValSubStep                           0x200004ea   Data           1  oled_logic.o(.data)
    oledValPlusStep                          0x200004eb   Data           1  oled_logic.o(.data)
    tempValNum                               0x200004ec   Data           1  oled_logic.o(.data)
    tempValNumLast                           0x200004ed   Data           1  oled_logic.o(.data)
    oledValStepAddFlag                       0x200004ee   Data           1  oled_logic.o(.data)
    .data                                    0x200004f0   Section        4  debug_task.o(.data)
    .data                                    0x200004f4   Section        8  flash_task.o(.data)
    .data                                    0x200004fc   Section        6  key_task.o(.data)
    i                                        0x20000500   Data           1  key_task.o(.data)
    stepMotorStateLast                       0x20000501   Data           1  key_task.o(.data)
    .data                                    0x20000504   Section        4  led_task.o(.data)
    .data                                    0x20000508   Section        8  oled_task.o(.data)
    oledMainIdCnt                            0x2000050c   Data           2  oled_task.o(.data)
    oledDisModeFlagLast                      0x2000050e   Data           1  oled_task.o(.data)
    oledMainIdFlag                           0x2000050f   Data           1  oled_task.o(.data)
    .data                                    0x20000510   Section        4  rs485_task.o(.data)
    .data                                    0x20000514   Section        8  step_motor_task.o(.data)
    .data                                    0x2000051c   Section       11  ws2812b_task.o(.data)
    randomSrand                              0x20000520   Data           4  ws2812b_task.o(.data)
    ws2812bIndex                             0x20000524   Data           1  ws2812b_task.o(.data)
    ws2812bFlowModeCw                        0x20000525   Data           1  ws2812b_task.o(.data)
    ws2812bFlowModeCcw                       0x20000526   Data           1  ws2812b_task.o(.data)
    .data                                    0x20000528   Section       32  heap_4.o(.data)
    xStart                                   0x20000528   Data           8  heap_4.o(.data)
    pxEnd                                    0x20000530   Data           4  heap_4.o(.data)
    xFreeBytesRemaining                      0x20000534   Data           4  heap_4.o(.data)
    xMinimumEverFreeBytesRemaining           0x20000538   Data           4  heap_4.o(.data)
    xNumberOfSuccessfulAllocations           0x2000053c   Data           4  heap_4.o(.data)
    xNumberOfSuccessfulFrees                 0x20000540   Data           4  heap_4.o(.data)
    xBlockAllocatedBit                       0x20000544   Data           4  heap_4.o(.data)
    .data                                    0x20000548   Section       12  port.o(.data)
    uxCriticalNesting                        0x20000548   Data           4  port.o(.data)
    ucMaxSysCallPriority                     0x2000054c   Data           1  port.o(.data)
    ulMaxPRIGROUPValue                       0x20000550   Data           4  port.o(.data)
    .data                                    0x20000554   Section       64  tasks.o(.data)
    pxDelayedTaskList                        0x20000558   Data           4  tasks.o(.data)
    pxOverflowDelayedTaskList                0x2000055c   Data           4  tasks.o(.data)
    uxDeletedTasksWaitingCleanUp             0x20000560   Data           4  tasks.o(.data)
    uxCurrentNumberOfTasks                   0x20000564   Data           4  tasks.o(.data)
    xTickCount                               0x20000568   Data           4  tasks.o(.data)
    uxTopReadyPriority                       0x2000056c   Data           4  tasks.o(.data)
    xSchedulerRunning                        0x20000570   Data           4  tasks.o(.data)
    xPendedTicks                             0x20000574   Data           4  tasks.o(.data)
    xYieldPending                            0x20000578   Data           4  tasks.o(.data)
    xNumOfOverflows                          0x2000057c   Data           4  tasks.o(.data)
    uxTaskNumber                             0x20000580   Data           4  tasks.o(.data)
    xNextTaskUnblockTime                     0x20000584   Data           4  tasks.o(.data)
    xIdleTaskHandle                          0x20000588   Data           4  tasks.o(.data)
    uxSchedulerSuspended                     0x20000590   Data           4  tasks.o(.data)
    .data                                    0x20000594   Section        4  rand.o(.data)
    _rand_state                              0x20000594   Data           4  rand.o(.data)
    .bss                                     0x20000598   Section      128  debug_ctrl.o(.bss)
    .bss                                     0x20000618   Section       70  flash_ctrl.o(.bss)
    .bss                                     0x2000065e   Section      128  rs485_ctrl.o(.bss)
    .bss                                     0x200006e0   Section       32  ws2812b_ctrl.o(.bss)
    .bss                                     0x20000700   Section       74  oled_logic.o(.bss)
    str                                      0x20000700   Data          32  oled_logic.o(.bss)
    str                                      0x20000720   Data          32  oled_logic.o(.bss)
    indexStr                                 0x20000740   Data          10  oled_logic.o(.bss)
    .bss                                     0x2000074a   Section    10240  heap_4.o(.bss)
    ucHeap                                   0x2000074a   Data       10240  heap_4.o(.bss)
    .bss                                     0x20002f4c   Section      300  tasks.o(.bss)
    pxReadyTasksLists                        0x20002f4c   Data         200  tasks.o(.bss)
    xDelayedTaskList1                        0x20003014   Data          20  tasks.o(.bss)
    xDelayedTaskList2                        0x20003028   Data          20  tasks.o(.bss)
    xPendingReadyList                        0x2000303c   Data          20  tasks.o(.bss)
    xTasksWaitingTermination                 0x20003050   Data          20  tasks.o(.bss)
    xSuspendedTaskList                       0x20003064   Data          20  tasks.o(.bss)
    STACK                                    0x20003078   Section     1024  startup_at32f421.o(STACK)

    Global Symbols

    Symbol Name                              Value     Ov Type        Size  Object(Section)

    BuildAttributes$$THM_ISAv4$E$P$D$K$B$S$7EM$PE$A:L22UL41UL21$X:L11$S22US41US21$IEEE1$IW$USESV6$~STKCKD$USESV7$~SHL$OSPACE$ROPI$EBA8$MICROLIB$REQ8$PRES8$EABIv2 0x00000000   Number         0  anon$$obj.o ABSOLUTE
    __ARM_use_no_argv                        0x00000000   Number         0  main.o ABSOLUTE
    _printf_a                                0x00000000   Number         0  stubs.o ABSOLUTE
    _printf_c                                0x00000000   Number         0  stubs.o ABSOLUTE
    _printf_charcount                        0x00000000   Number         0  stubs.o ABSOLUTE
    _printf_d                                0x00000000   Number         0  stubs.o ABSOLUTE
    _printf_e                                0x00000000   Number         0  stubs.o ABSOLUTE
    _printf_f                                0x00000000   Number         0  stubs.o ABSOLUTE
    _printf_flags                            0x00000000   Number         0  stubs.o ABSOLUTE
    _printf_fp_dec                           0x00000000   Number         0  stubs.o ABSOLUTE
    _printf_fp_hex                           0x00000000   Number         0  stubs.o ABSOLUTE
    _printf_g                                0x00000000   Number         0  stubs.o ABSOLUTE
    _printf_i                                0x00000000   Number         0  stubs.o ABSOLUTE
    _printf_int_dec                          0x00000000   Number         0  stubs.o ABSOLUTE
    _printf_l                                0x00000000   Number         0  stubs.o ABSOLUTE
    _printf_lc                               0x00000000   Number         0  stubs.o ABSOLUTE
    _printf_ll                               0x00000000   Number         0  stubs.o ABSOLUTE
    _printf_lld                              0x00000000   Number         0  stubs.o ABSOLUTE
    _printf_lli                              0x00000000   Number         0  stubs.o ABSOLUTE
    _printf_llo                              0x00000000   Number         0  stubs.o ABSOLUTE
    _printf_llu                              0x00000000   Number         0  stubs.o ABSOLUTE
    _printf_llx                              0x00000000   Number         0  stubs.o ABSOLUTE
    _printf_longlong_dec                     0x00000000   Number         0  stubs.o ABSOLUTE
    _printf_longlong_hex                     0x00000000   Number         0  stubs.o ABSOLUTE
    _printf_longlong_oct                     0x00000000   Number         0  stubs.o ABSOLUTE
    _printf_ls                               0x00000000   Number         0  stubs.o ABSOLUTE
    _printf_mbtowc                           0x00000000   Number         0  stubs.o ABSOLUTE
    _printf_n                                0x00000000   Number         0  stubs.o ABSOLUTE
    _printf_o                                0x00000000   Number         0  stubs.o ABSOLUTE
    _printf_p                                0x00000000   Number         0  stubs.o ABSOLUTE
    _printf_percent                          0x00000000   Number         0  stubs.o ABSOLUTE
    _printf_pre_padding                      0x00000000   Number         0  stubs.o ABSOLUTE
    _printf_return_value                     0x00000000   Number         0  stubs.o ABSOLUTE
    _printf_s                                0x00000000   Number         0  stubs.o ABSOLUTE
    _printf_sizespec                         0x00000000   Number         0  stubs.o ABSOLUTE
    _printf_str                              0x00000000   Number         0  stubs.o ABSOLUTE
    _printf_truncate_signed                  0x00000000   Number         0  stubs.o ABSOLUTE
    _printf_truncate_unsigned                0x00000000   Number         0  stubs.o ABSOLUTE
    _printf_u                                0x00000000   Number         0  stubs.o ABSOLUTE
    _printf_wc                               0x00000000   Number         0  stubs.o ABSOLUTE
    _printf_wctomb                           0x00000000   Number         0  stubs.o ABSOLUTE
    _printf_widthprec                        0x00000000   Number         0  stubs.o ABSOLUTE
    _printf_x                                0x00000000   Number         0  stubs.o ABSOLUTE
    __arm_fini_                               - Undefined Weak Reference
    __cpp_initialize__aeabi_                  - Undefined Weak Reference
    __cxa_finalize                            - Undefined Weak Reference
    _clock_init                               - Undefined Weak Reference
    _microlib_exit                            - Undefined Weak Reference
    __Vectors_Size                           0x000000cc   Number         0  startup_at32f421.o ABSOLUTE
    __Vectors                                0x08000000   Data           4  startup_at32f421.o(RESET)
    __Vectors_End                            0x080000cc   Data           0  startup_at32f421.o(RESET)
    __main                                   0x080000cd   Thumb Code     0  entry.o(.ARM.Collect$$$$00000000)
    _main_stk                                0x080000cd   Thumb Code     0  entry2.o(.ARM.Collect$$$$00000001)
    _main_scatterload                        0x080000d1   Thumb Code     0  entry5.o(.ARM.Collect$$$$00000004)
    __main_after_scatterload                 0x080000d5   Thumb Code     0  entry5.o(.ARM.Collect$$$$00000004)
    _main_clock                              0x080000d5   Thumb Code     0  entry7b.o(.ARM.Collect$$$$00000008)
    _main_cpp_init                           0x080000d5   Thumb Code     0  entry8b.o(.ARM.Collect$$$$0000000A)
    _main_init                               0x080000d5   Thumb Code     0  entry9a.o(.ARM.Collect$$$$0000000B)
    __rt_lib_shutdown_fini                   0x080000dd   Thumb Code     0  entry12b.o(.ARM.Collect$$$$0000000E)
    __rt_final_cpp                           0x080000e1   Thumb Code     0  entry10a.o(.ARM.Collect$$$$0000000F)
    __rt_final_exit                          0x080000e1   Thumb Code     0  entry11a.o(.ARM.Collect$$$$00000011)
    SVC_Handler                              0x080000e5   Thumb Code    32  port.o(.emb_text)
    __asm___6_port_c_39a90d8d__prvStartFirstTask 0x08000109   Thumb Code    28  port.o(.emb_text)
    PendSV_Handler                           0x08000129   Thumb Code    72  port.o(.emb_text)
    vPortGetIPSR                             0x08000175   Thumb Code     6  port.o(.emb_text)
    Reset_Handler                            0x0800017d   Thumb Code     8  startup_at32f421.o(.text)
    ADC1_CMP_IRQHandler                      0x08000197   Thumb Code     0  startup_at32f421.o(.text)
    CRM_IRQHandler                           0x08000197   Thumb Code     0  startup_at32f421.o(.text)
    DMA1_Channel3_2_IRQHandler               0x08000197   Thumb Code     0  startup_at32f421.o(.text)
    DMA1_Channel5_4_IRQHandler               0x08000197   Thumb Code     0  startup_at32f421.o(.text)
    ERTC_IRQHandler                          0x08000197   Thumb Code     0  startup_at32f421.o(.text)
    EXINT15_4_IRQHandler                     0x08000197   Thumb Code     0  startup_at32f421.o(.text)
    EXINT1_0_IRQHandler                      0x08000197   Thumb Code     0  startup_at32f421.o(.text)
    EXINT3_2_IRQHandler                      0x08000197   Thumb Code     0  startup_at32f421.o(.text)
    FLASH_IRQHandler                         0x08000197   Thumb Code     0  startup_at32f421.o(.text)
    I2C1_ERR_IRQHandler                      0x08000197   Thumb Code     0  startup_at32f421.o(.text)
    I2C1_EVT_IRQHandler                      0x08000197   Thumb Code     0  startup_at32f421.o(.text)
    I2C2_ERR_IRQHandler                      0x08000197   Thumb Code     0  startup_at32f421.o(.text)
    I2C2_EVT_IRQHandler                      0x08000197   Thumb Code     0  startup_at32f421.o(.text)
    PVM_IRQHandler                           0x08000197   Thumb Code     0  startup_at32f421.o(.text)
    SPI1_IRQHandler                          0x08000197   Thumb Code     0  startup_at32f421.o(.text)
    SPI2_IRQHandler                          0x08000197   Thumb Code     0  startup_at32f421.o(.text)
    TMR15_GLOBAL_IRQHandler                  0x08000197   Thumb Code     0  startup_at32f421.o(.text)
    TMR1_BRK_OVF_TRG_HALL_IRQHandler         0x08000197   Thumb Code     0  startup_at32f421.o(.text)
    TMR1_CH_IRQHandler                       0x08000197   Thumb Code     0  startup_at32f421.o(.text)
    TMR3_GLOBAL_IRQHandler                   0x08000197   Thumb Code     0  startup_at32f421.o(.text)
    WWDT_IRQHandler                          0x08000197   Thumb Code     0  startup_at32f421.o(.text)
    __aeabi_uldivmod                         0x080001a1   Thumb Code    98  uldiv.o(.text)
    rand                                     0x08000205   Thumb Code    20  rand.o(.text)
    srand                                    0x08000219   Thumb Code     6  rand.o(.text)
    __aeabi_memcpy                           0x08000229   Thumb Code    36  memcpya.o(.text)
    __aeabi_memcpy4                          0x08000229   Thumb Code     0  memcpya.o(.text)
    __aeabi_memcpy8                          0x08000229   Thumb Code     0  memcpya.o(.text)
    __aeabi_memset                           0x0800024d   Thumb Code    14  memseta.o(.text)
    __aeabi_memset4                          0x0800024d   Thumb Code     0  memseta.o(.text)
    __aeabi_memset8                          0x0800024d   Thumb Code     0  memseta.o(.text)
    __aeabi_memclr                           0x0800025b   Thumb Code     4  memseta.o(.text)
    __aeabi_memclr4                          0x0800025b   Thumb Code     0  memseta.o(.text)
    __aeabi_memclr8                          0x0800025b   Thumb Code     0  memseta.o(.text)
    memset                                   0x0800025f   Thumb Code    18  memseta.o(.text)
    strlen                                   0x08000271   Thumb Code    14  strlen.o(.text)
    __aeabi_dadd                             0x0800027f   Thumb Code   322  dadd.o(.text)
    __aeabi_dsub                             0x080003c1   Thumb Code     6  dadd.o(.text)
    __aeabi_drsub                            0x080003c7   Thumb Code     6  dadd.o(.text)
    __aeabi_dmul                             0x080003cd   Thumb Code   228  dmul.o(.text)
    __aeabi_ddiv                             0x080004b1   Thumb Code   222  ddiv.o(.text)
    __aeabi_ui2d                             0x0800058f   Thumb Code    26  dfltui.o(.text)
    __aeabi_d2uiz                            0x080005a9   Thumb Code    50  dfixui.o(.text)
    __aeabi_llsl                             0x080005db   Thumb Code    30  llshl.o(.text)
    _ll_shift_l                              0x080005db   Thumb Code     0  llshl.o(.text)
    __aeabi_llsr                             0x080005f9   Thumb Code    32  llushr.o(.text)
    _ll_ushift_r                             0x080005f9   Thumb Code     0  llushr.o(.text)
    __aeabi_lasr                             0x08000619   Thumb Code    36  llsshr.o(.text)
    _ll_sshift_r                             0x08000619   Thumb Code     0  llsshr.o(.text)
    __I$use$fp                               0x0800063d   Thumb Code     0  iusefp.o(.text)
    _double_round                            0x0800063d   Thumb Code    30  depilogue.o(.text)
    _double_epilogue                         0x0800065b   Thumb Code   156  depilogue.o(.text)
    __scatterload                            0x080006f9   Thumb Code    28  init.o(.text)
    __scatterload_rt2                        0x080006f9   Thumb Code     0  init.o(.text)
    __decompress                             0x0800071d   Thumb Code     0  __dczerorl2.o(.text)
    __decompress1                            0x0800071d   Thumb Code    86  __dczerorl2.o(.text)
    BusFault_Handler                         0x08000773   Thumb Code     4  at32f421_int.o(i.BusFault_Handler)
    DMA1_Channel1_IRQHandler                 0x08000779   Thumb Code    88  at32f421_int.o(i.DMA1_Channel1_IRQHandler)
    DebugMon_Handler                         0x080007f5   Thumb Code     2  at32f421_int.o(i.DebugMon_Handler)
    HardFault_Handler                        0x080007f7   Thumb Code     4  at32f421_int.o(i.HardFault_Handler)
    MemManage_Handler                        0x080007fb   Thumb Code     4  at32f421_int.o(i.MemManage_Handler)
    NMI_Handler                              0x080007ff   Thumb Code     2  at32f421_int.o(i.NMI_Handler)
    SysTick_Handler                          0x08000801   Thumb Code    46  port.o(i.SysTick_Handler)
    SystemInit                               0x08000835   Thumb Code    96  system_at32f421.o(i.SystemInit)
    TMR14_GLOBAL_IRQHandler                  0x080008a1   Thumb Code   206  at32f421_int.o(i.TMR14_GLOBAL_IRQHandler)
    TMR16_GLOBAL_IRQHandler                  0x08000979   Thumb Code   206  at32f421_int.o(i.TMR16_GLOBAL_IRQHandler)
    TMR17_GLOBAL_IRQHandler                  0x08000a51   Thumb Code   182  at32f421_int.o(i.TMR17_GLOBAL_IRQHandler)
    TMR6_GLOBAL_IRQHandler                   0x08000b15   Thumb Code    48  at32f421_int.o(i.TMR6_GLOBAL_IRQHandler)
    USART1_IRQHandler                        0x08000b4d   Thumb Code    84  at32f421_int.o(i.USART1_IRQHandler)
    USART2_IRQHandler                        0x08000bb1   Thumb Code    84  at32f421_int.o(i.USART2_IRQHandler)
    UsageFault_Handler                       0x08000c15   Thumb Code     4  at32f421_int.o(i.UsageFault_Handler)
    __0sprintf$8                             0x08000c19   Thumb Code    34  printf8.o(i.__0sprintf$8)
    __1sprintf$8                             0x08000c19   Thumb Code     0  printf8.o(i.__0sprintf$8)
    __2sprintf                               0x08000c19   Thumb Code     0  printf8.o(i.__0sprintf$8)
    __scatterload_copy                       0x08000c41   Thumb Code    14  handlers.o(i.__scatterload_copy)
    __scatterload_null                       0x08000c4f   Thumb Code     2  handlers.o(i.__scatterload_null)
    __scatterload_zeroinit                   0x08000c51   Thumb Code    14  handlers.o(i.__scatterload_zeroinit)
    adc_base_config                          0x080010c1   Thumb Code    44  at32f421_adc.o(i.adc_base_config)
    adc_calibration_init                     0x080010ed   Thumb Code    12  at32f421_adc.o(i.adc_calibration_init)
    adc_calibration_init_status_get          0x080010f9   Thumb Code    18  at32f421_adc.o(i.adc_calibration_init_status_get)
    adc_calibration_start                    0x0800110b   Thumb Code    12  at32f421_adc.o(i.adc_calibration_start)
    adc_calibration_status_get               0x08001117   Thumb Code    18  at32f421_adc.o(i.adc_calibration_status_get)
    adc_config                               0x08001129   Thumb Code     8  adc_ctrl.o(i.adc_config)
    adc_dma_mode_enable                      0x08001131   Thumb Code    10  at32f421_adc.o(i.adc_dma_mode_enable)
    adc_enable                               0x0800113b   Thumb Code    10  at32f421_adc.o(i.adc_enable)
    adc_ordinary_channel_set                 0x08001211   Thumb Code   168  at32f421_adc.o(i.adc_ordinary_channel_set)
    adc_ordinary_conversion_trigger_set      0x080012b9   Thumb Code    32  at32f421_adc.o(i.adc_ordinary_conversion_trigger_set)
    adc_ordinary_software_trigger_enable     0x080012d9   Thumb Code    10  at32f421_adc.o(i.adc_ordinary_software_trigger_enable)
    adc_tempersensor_vintrv_enable           0x080012e5   Thumb Code    14  at32f421_adc.o(i.adc_tempersensor_vintrv_enable)
    beep_alarm                               0x080012f9   Thumb Code    64  beep_logic.o(i.beep_alarm)
    beep_config                              0x08001341   Thumb Code    12  beep_ctrl.o(i.beep_config)
    beep_off                                 0x080013cd   Thumb Code    16  beep_ctrl.o(i.beep_off)
    beep_on                                  0x080013dd   Thumb Code    16  beep_ctrl.o(i.beep_on)
    crc16_modbus_calc                        0x080013ed   Thumb Code    60  rs485_logic.o(i.crc16_modbus_calc)
    crm_adc_clock_div_set                    0x08001429   Thumb Code    28  at32f421_crm.o(i.crm_adc_clock_div_set)
    crm_ahb_div_set                          0x08001449   Thumb Code    14  at32f421_crm.o(i.crm_ahb_div_set)
    crm_apb1_div_set                         0x0800145d   Thumb Code    14  at32f421_crm.o(i.crm_apb1_div_set)
    crm_apb2_div_set                         0x08001471   Thumb Code    14  at32f421_crm.o(i.crm_apb2_div_set)
    crm_auto_step_mode_enable                0x08001485   Thumb Code    34  at32f421_crm.o(i.crm_auto_step_mode_enable)
    crm_clock_source_enable                  0x080014ad   Thumb Code    90  at32f421_crm.o(i.crm_clock_source_enable)
    crm_clocks_freq_get                      0x0800150d   Thumb Code   396  at32f421_crm.o(i.crm_clocks_freq_get)
    crm_flag_get                             0x080016b9   Thumb Code    42  at32f421_crm.o(i.crm_flag_get)
    crm_periph_clock_enable                  0x080016e9   Thumb Code    62  at32f421_crm.o(i.crm_periph_clock_enable)
    crm_pll_config                           0x0800172d   Thumb Code   224  at32f421_crm.o(i.crm_pll_config)
    crm_reset                                0x08001841   Thumb Code    90  at32f421_crm.o(i.crm_reset)
    crm_sysclk_switch                        0x080018a5   Thumb Code    54  at32f421_crm.o(i.crm_sysclk_switch)
    crm_sysclk_switch_status_get             0x080018e1   Thumb Code    10  at32f421_crm.o(i.crm_sysclk_switch_status_get)
    debug_config                             0x080018f1   Thumb Code     8  debug_ctrl.o(i.debug_config)
    dma_channel_enable                       0x080019c7   Thumb Code    10  at32f421_dma.o(i.dma_channel_enable)
    dma_flag_clear                           0x080019d1   Thumb Code     6  at32f421_dma.o(i.dma_flag_clear)
    dma_flag_get                             0x080019dd   Thumb Code    24  at32f421_dma.o(i.dma_flag_get)
    dma_init                                 0x080019f9   Thumb Code    92  at32f421_dma.o(i.dma_init)
    dma_interrupt_enable                     0x08001a55   Thumb Code    18  at32f421_dma.o(i.dma_interrupt_enable)
    dma_reset                                0x08001a69   Thumb Code    50  at32f421_dma.o(i.dma_reset)
    fan_config                               0x08001aa1   Thumb Code    12  fan_ctrl.o(i.fan_config)
    fan_off                                  0x08001ad5   Thumb Code    14  fan_ctrl.o(i.fan_off)
    fan_on                                   0x08001ae9   Thumb Code    14  fan_ctrl.o(i.fan_on)
    flash_data_save                          0x08001afd   Thumb Code   114  flash_logic.o(i.flash_data_save)
    flash_erase_sectors                      0x08001b75   Thumb Code    70  flash_ctrl.o(i.flash_erase_sectors)
    flash_flag_clear                         0x08001bbd   Thumb Code     6  at32f421_flash.o(i.flash_flag_clear)
    flash_halfword_program                   0x08001bc9   Thumb Code    50  at32f421_flash.o(i.flash_halfword_program)
    flash_lock                               0x08001c01   Thumb Code    16  at32f421_flash.o(i.flash_lock)
    flash_operation_status_get               0x08001c15   Thumb Code    48  at32f421_flash.o(i.flash_operation_status_get)
    flash_operation_wait_for                 0x08001c49   Thumb Code    36  at32f421_flash.o(i.flash_operation_wait_for)
    flash_program_data_halfword              0x08001c6d   Thumb Code    34  flash_ctrl.o(i.flash_program_data_halfword)
    flash_read                               0x08001c99   Thumb Code   446  flash_logic.o(i.flash_read)
    flash_sector_erase                       0x08001ee9   Thumb Code    58  at32f421_flash.o(i.flash_sector_erase)
    flash_unlock                             0x08001f29   Thumb Code    12  at32f421_flash.o(i.flash_unlock)
    gpio_bits_reset                          0x08001f61   Thumb Code     4  at32f421_gpio.o(i.gpio_bits_reset)
    gpio_bits_set                            0x08001f65   Thumb Code     4  at32f421_gpio.o(i.gpio_bits_set)
    gpio_init                                0x08001f69   Thumb Code   122  at32f421_gpio.o(i.gpio_init)
    gpio_input_data_bit_read                 0x08001fe3   Thumb Code    18  at32f421_gpio.o(i.gpio_input_data_bit_read)
    gpio_pin_mux_config                      0x08001ff5   Thumb Code    66  at32f421_gpio.o(i.gpio_pin_mux_config)
    key_config                               0x08002039   Thumb Code    20  key_ctrl.o(i.key_config)
    key_down_handle                          0x08002055   Thumb Code    84  key_logic.o(i.key_down_handle)
    key_left_handle                          0x08002175   Thumb Code    98  key_logic.o(i.key_left_handle)
    key_mid_handle                           0x080021f9   Thumb Code   174  key_logic.o(i.key_mid_handle)
    key_right_handle                         0x080022d5   Thumb Code    98  key_logic.o(i.key_right_handle)
    key_scan                                 0x08002359   Thumb Code   220  key_logic.o(i.key_scan)
    key_up_handle                            0x08002441   Thumb Code    76  key_logic.o(i.key_up_handle)
    led_blink                                0x080024a5   Thumb Code    32  led_logic.o(i.led_blink)
    led_config                               0x080024c5   Thumb Code     8  led_ctrl.o(i.led_config)
    led_off                                  0x08002631   Thumb Code    28  led_ctrl.o(i.led_off)
    led_on                                   0x0800264d   Thumb Code    28  led_ctrl.o(i.led_on)
    led_set_blink_time                       0x08002669   Thumb Code    34  led_logic.o(i.led_set_blink_time)
    led_set_breath_step                      0x0800268b   Thumb Code    32  led_logic.o(i.led_set_breath_step)
    led_set_mode                             0x080026ad   Thumb Code   234  led_logic.o(i.led_set_mode)
    main                                     0x080027a5   Thumb Code    34  main.o(i.main)
    nvic_irq_enable                          0x080027d9   Thumb Code   190  at32f421_misc.o(i.nvic_irq_enable)
    nvic_priority_group_config               0x080028a1   Thumb Code    32  at32f421_misc.o(i.nvic_priority_group_config)
    nvic_system_reset                        0x080028c9   Thumb Code    36  at32f421_misc.o(i.nvic_system_reset)
    oled_clear                               0x080028f5   Thumb Code    64  oled_logic.o(i.oled_clear)
    oled_config                              0x08002935   Thumb Code    36  oled_ctrl.o(i.oled_config)
    oled_dis_main                            0x08002961   Thumb Code  1910  oled_logic.o(i.oled_dis_main)
    oled_dis_menu                            0x08003199   Thumb Code  1560  oled_logic.o(i.oled_dis_menu)
    oled_display_off                         0x080037bd   Thumb Code    28  oled_logic.o(i.oled_display_off)
    oled_display_on                          0x080037d9   Thumb Code    28  oled_logic.o(i.oled_display_on)
    oled_iic_send_data                       0x08003861   Thumb Code    56  oled_ctrl.o(i.oled_iic_send_data)
    oled_menu_level3_key                     0x08003989   Thumb Code    94  oled_logic.o(i.oled_menu_level3_key)
    oled_menu_level3_led                     0x080039f9   Thumb Code   160  oled_logic.o(i.oled_menu_level3_led)
    oled_menu_level3_oled                    0x08003ab5   Thumb Code   320  oled_logic.o(i.oled_menu_level3_oled)
    oled_menu_level3_rs485                   0x08003c25   Thumb Code   324  oled_logic.o(i.oled_menu_level3_rs485)
    oled_menu_level3_step_motor              0x08003d9d   Thumb Code   124  oled_logic.o(i.oled_menu_level3_step_motor)
    oled_menu_level3_ws2812b                 0x08003e29   Thumb Code    84  oled_logic.o(i.oled_menu_level3_ws2812b)
    oled_menu_level4_led                     0x08003e95   Thumb Code   378  oled_logic.o(i.oled_menu_level4_led)
    oled_menu_level4_ws2812b                 0x0800402d   Thumb Code   234  oled_logic.o(i.oled_menu_level4_ws2812b)
    oled_menu_level5_ws2812b                 0x0800413d   Thumb Code   336  oled_logic.o(i.oled_menu_level5_ws2812b)
    oled_set_position                        0x080042b5   Thumb Code    54  oled_logic.o(i.oled_set_position)
    oled_set_val                             0x080042ed   Thumb Code   794  oled_logic.o(i.oled_set_val)
    oled_show_char_8x16                      0x08004641   Thumb Code   124  oled_logic.o(i.oled_show_char_8x16)
    oled_show_str_8x16                       0x080046c1   Thumb Code    70  oled_logic.o(i.oled_show_str_8x16)
    pvPortMalloc                             0x08004d11   Thumb Code   338  heap_4.o(i.pvPortMalloc)
    pvTaskIncrementMutexHeldCount            0x08004e7d   Thumb Code    26  tasks.o(i.pvTaskIncrementMutexHeldCount)
    pxPortInitialiseStack                    0x08004e9d   Thumb Code    30  port.o(i.pxPortInitialiseStack)
    rs485_config                             0x08004ec1   Thumb Code    46  rs485_ctrl.o(i.rs485_config)
    rs485_data_handle                        0x08004f01   Thumb Code  2534  rs485_logic.o(i.rs485_data_handle)
    rs485_modbus_read_single_reg_response    0x080059ed   Thumb Code   108  rs485_logic.o(i.rs485_modbus_read_single_reg_response)
    rs485_modbus_write_single_reg_response   0x08005a61   Thumb Code   158  rs485_logic.o(i.rs485_modbus_write_single_reg_response)
    rs485_send_data                          0x08005b09   Thumb Code   120  rs485_logic.o(i.rs485_send_data)
    spi_enable                               0x08005b85   Thumb Code    10  at32f421_spi.o(i.spi_enable)
    spi_i2s_data_transmit                    0x08005b8f   Thumb Code     4  at32f421_spi.o(i.spi_i2s_data_transmit)
    spi_i2s_flag_get                         0x08005b93   Thumb Code    16  at32f421_spi.o(i.spi_i2s_flag_get)
    spi_init                                 0x08005ba3   Thumb Code   292  at32f421_spi.o(i.spi_init)
    step_motor_ccw                           0x08005cc9   Thumb Code    42  step_motor_logic.o(i.step_motor_ccw)
    step_motor_config                        0x08005d01   Thumb Code    54  step_motor_ctrl.o(i.step_motor_config)
    step_motor_cw                            0x08005d3d   Thumb Code    42  step_motor_logic.o(i.step_motor_cw)
    step_motor_set_mode                      0x08005e65   Thumb Code   218  step_motor_logic.o(i.step_motor_set_mode)
    step_motor_set_rotate_speed              0x08005f45   Thumb Code   170  step_motor_logic.o(i.step_motor_set_rotate_speed)
    step_motor_stop                          0x08005ff9   Thumb Code    18  step_motor_logic.o(i.step_motor_stop)
    sys_init                                 0x08006015   Thumb Code    76  init.o(i.sys_init)
    system_clock_config                      0x08006069   Thumb Code   102  at32f421_clock.o(i.system_clock_config)
    system_core_clock_update                 0x080060d5   Thumb Code   316  system_at32f421.o(i.system_core_clock_update)
    task_debug                               0x08006229   Thumb Code    34  debug_task.o(i.task_debug)
    task_flash                               0x08006259   Thumb Code   314  flash_task.o(i.task_flash)
    task_init                                0x0800641d   Thumb Code   220  init.o(i.task_init)
    task_key                                 0x080065a9   Thumb Code   194  key_task.o(i.task_key)
    task_led                                 0x08006689   Thumb Code   226  led_task.o(i.task_led)
    task_oled                                0x0800677d   Thumb Code  1352  oled_task.o(i.task_oled)
    task_rs485                               0x08006cf1   Thumb Code   806  rs485_task.o(i.task_rs485)
    task_step_motor                          0x080070a1   Thumb Code    78  step_motor_task.o(i.task_step_motor)
    task_ws2812b                             0x08007101   Thumb Code   850  ws2812b_task.o(i.task_ws2812b)
    tmr_base_init                            0x08007499   Thumb Code    16  at32f421_tmr.o(i.tmr_base_init)
    tmr_channel_value_set                    0x080074a9   Thumb Code    40  at32f421_tmr.o(i.tmr_channel_value_set)
    tmr_clock_source_div_set                 0x080074d1   Thumb Code    10  at32f421_tmr.o(i.tmr_clock_source_div_set)
    tmr_cnt_dir_set                          0x080074db   Thumb Code    10  at32f421_tmr.o(i.tmr_cnt_dir_set)
    tmr_counter_enable                       0x080074e5   Thumb Code    10  at32f421_tmr.o(i.tmr_counter_enable)
    tmr_counter_value_set                    0x080074ef   Thumb Code     4  at32f421_tmr.o(i.tmr_counter_value_set)
    tmr_flag_clear                           0x080074f3   Thumb Code     6  at32f421_tmr.o(i.tmr_flag_clear)
    tmr_interrupt_enable                     0x080074f9   Thumb Code    22  at32f421_tmr.o(i.tmr_interrupt_enable)
    tmr_interrupt_flag_get                   0x0800750f   Thumb Code    24  at32f421_tmr.o(i.tmr_interrupt_flag_get)
    tmr_output_channel_buffer_enable         0x08007527   Thumb Code    66  at32f421_tmr.o(i.tmr_output_channel_buffer_enable)
    tmr_output_channel_config                0x08007569   Thumb Code   416  at32f421_tmr.o(i.tmr_output_channel_config)
    tmr_output_enable                        0x08007709   Thumb Code    10  at32f421_tmr.o(i.tmr_output_enable)
    tmr_period_buffer_enable                 0x08007713   Thumb Code    10  at32f421_tmr.o(i.tmr_period_buffer_enable)
    tmr_period_value_set                     0x0800771d   Thumb Code     4  at32f421_tmr.o(i.tmr_period_value_set)
    usart_data_receive                       0x08007721   Thumb Code     8  at32f421_usart.o(i.usart_data_receive)
    usart_data_transmit                      0x08007729   Thumb Code     8  at32f421_usart.o(i.usart_data_transmit)
    usart_enable                             0x08007731   Thumb Code    10  at32f421_usart.o(i.usart_enable)
    usart_flag_clear                         0x0800773b   Thumb Code    18  at32f421_usart.o(i.usart_flag_clear)
    usart_flag_get                           0x0800774d   Thumb Code    16  at32f421_usart.o(i.usart_flag_get)
    usart_init                               0x0800775d   Thumb Code   102  at32f421_usart.o(i.usart_init)
    usart_interrupt_enable                   0x080077c9   Thumb Code    54  at32f421_usart.o(i.usart_interrupt_enable)
    usart_parity_selection_config            0x080077ff   Thumb Code    76  at32f421_usart.o(i.usart_parity_selection_config)
    usart_receiver_enable                    0x0800784b   Thumb Code    10  at32f421_usart.o(i.usart_receiver_enable)
    usart_transmitter_enable                 0x08007855   Thumb Code    10  at32f421_usart.o(i.usart_transmitter_enable)
    uxListRemove                             0x0800785f   Thumb Code    40  list.o(i.uxListRemove)
    vListInitialise                          0x08007887   Thumb Code    26  list.o(i.vListInitialise)
    vListInitialiseItem                      0x080078a1   Thumb Code     6  list.o(i.vListInitialiseItem)
    vListInsert                              0x080078a7   Thumb Code    52  list.o(i.vListInsert)
    vListInsertEnd                           0x080078db   Thumb Code    24  list.o(i.vListInsertEnd)
    vPortEnterCritical                       0x080078f5   Thumb Code    76  port.o(i.vPortEnterCritical)
    vPortExitCritical                        0x08007949   Thumb Code    56  port.o(i.vPortExitCritical)
    vPortFree                                0x08007985   Thumb Code   150  heap_4.o(i.vPortFree)
    vPortSetupTimerInterrupt                 0x08007a29   Thumb Code    36  port.o(i.vPortSetupTimerInterrupt)
    vTaskDelay                               0x08007a51   Thumb Code    82  tasks.o(i.vTaskDelay)
    vTaskDelete                              0x08007aad   Thumb Code   202  tasks.o(i.vTaskDelete)
    vTaskInternalSetTimeOutState             0x08007ba1   Thumb Code    14  tasks.o(i.vTaskInternalSetTimeOutState)
    vTaskMissedYield                         0x08007bb9   Thumb Code     8  tasks.o(i.vTaskMissedYield)
    vTaskPlaceOnEventList                    0x08007bc5   Thumb Code    52  tasks.o(i.vTaskPlaceOnEventList)
    vTaskPriorityDisinheritAfterTimeout      0x08007bfd   Thumb Code   216  tasks.o(i.vTaskPriorityDisinheritAfterTimeout)
    vTaskResume                              0x08007ce1   Thumb Code   128  tasks.o(i.vTaskResume)
    vTaskStartScheduler                      0x08007d71   Thumb Code   112  tasks.o(i.vTaskStartScheduler)
    vTaskSuspend                             0x08007e01   Thumb Code   224  tasks.o(i.vTaskSuspend)
    vTaskSuspendAll                          0x08007f01   Thumb Code    12  tasks.o(i.vTaskSuspendAll)
    vTaskSwitchContext                       0x08007f11   Thumb Code   118  tasks.o(i.vTaskSwitchContext)
    ws2812b_config                           0x08007f9d   Thumb Code    56  ws2812b_ctrl.o(i.ws2812b_config)
    ws2812b_send_reset                       0x080080b1   Thumb Code    54  ws2812b_logic.o(i.ws2812b_send_reset)
    ws2812b_send_rgb_data                    0x080080ed   Thumb Code    24  ws2812b_logic.o(i.ws2812b_send_rgb_data)
    xPortStartScheduler                      0x08008105   Thumb Code   182  port.o(i.xPortStartScheduler)
    xQueueGenericCreate                      0x080081d1   Thumb Code   162  queue.o(i.xQueueGenericCreate)
    xQueueGenericReset                       0x08008275   Thumb Code   146  queue.o(i.xQueueGenericReset)
    xQueueGenericSend                        0x0800830d   Thumb Code   380  queue.o(i.xQueueGenericSend)
    xQueueSemaphoreTake                      0x0800848d   Thumb Code   394  queue.o(i.xQueueSemaphoreTake)
    xTaskCheckForTimeOut                     0x0800861d   Thumb Code   136  tasks.o(i.xTaskCheckForTimeOut)
    xTaskCreate                              0x080086ad   Thumb Code    96  tasks.o(i.xTaskCreate)
    xTaskIncrementTick                       0x0800870d   Thumb Code   282  tasks.o(i.xTaskIncrementTick)
    xTaskPriorityDisinherit                  0x08008855   Thumb Code   174  tasks.o(i.xTaskPriorityDisinherit)
    xTaskPriorityInherit                     0x08008911   Thumb Code   172  tasks.o(i.xTaskPriorityInherit)
    xTaskRemoveFromEventList                 0x080089c9   Thumb Code   128  tasks.o(i.xTaskRemoveFromEventList)
    xTaskResumeAll                           0x08008a61   Thumb Code   224  tasks.o(i.xTaskResumeAll)
    oledFont8x16                             0x08008b9c   Data        2048  oled_font.o(.constdata)
    rs485UsartBaudRateList                   0x080093ec   Data          40  rs485_ctrl.o(.constdata)
    Region$$Table$$Base                      0x080096cc   Number         0  anon$$obj.o(Region$$Table)
    Region$$Table$$Limit                     0x080096ec   Number         0  anon$$obj.o(Region$$Table)
    system_core_clock                        0x20000000   Data           4  system_at32f421.o(.data)
    adcData                                  0x20000008   Data           2  adc_ctrl.o(.data)
    temperature                              0x20000010   Data           8  adc_ctrl.o(.data)
    beepOnMsCnt                              0x20000018   Data           2  beep_ctrl.o(.data)
    debugUsartRxIndex                        0x2000001a   Data           1  debug_ctrl.o(.data)
    debugUsartRxFinishFlag                   0x2000001b   Data           1  debug_ctrl.o(.data)
    flashSaveFlag                            0x2000001c   Data           1  flash_ctrl.o(.data)
    flashReadFlag                            0x2000001d   Data           1  flash_ctrl.o(.data)
    versionMain                              0x2000001e   Data           1  flash_ctrl.o(.data)
    versionSecond                            0x2000001f   Data           1  flash_ctrl.o(.data)
    versionPhase                             0x20000020   Data           1  flash_ctrl.o(.data)
    key                                      0x20000024   Data         100  key_ctrl.o(.data)
    keyAllReleaseFlag                        0x20000088   Data           1  key_ctrl.o(.data)
    keyLockFlag                              0x20000089   Data           1  key_ctrl.o(.data)
    keyClickBeep                             0x2000008a   Data           2  key_ctrl.o(.data)
    keyLongBeep                              0x2000008c   Data           2  key_ctrl.o(.data)
    led1                                     0x20000090   Data          28  led_ctrl.o(.data)
    led2                                     0x200000ac   Data          28  led_ctrl.o(.data)
    led1Switch                               0x200000c8   Data           1  led_ctrl.o(.data)
    led2Switch                               0x200000c9   Data           1  led_ctrl.o(.data)
    oledMenuOption                           0x200003cc   Data          12  oled_ctrl.o(.data)
    oledMenuKey                              0x200003d8   Data          12  oled_ctrl.o(.data)
    oledMenuLed                              0x200003e4   Data          12  oled_ctrl.o(.data)
    oledMenuLedOption                        0x200003f0   Data          12  oled_ctrl.o(.data)
    oledMenuLedMode                          0x200003fc   Data          12  oled_ctrl.o(.data)
    oledMenuOled                             0x20000408   Data          12  oled_ctrl.o(.data)
    oledMenuOledDir                          0x20000414   Data          12  oled_ctrl.o(.data)
    oledMenuOledLight                        0x20000420   Data          12  oled_ctrl.o(.data)
    oledMenuOledCursorStyle                  0x2000042c   Data          12  oled_ctrl.o(.data)
    oledMenuOledMenuNumber                   0x20000438   Data          12  oled_ctrl.o(.data)
    oledMenuRs485                            0x20000444   Data          12  oled_ctrl.o(.data)
    oledMenuRs485Mode                        0x20000450   Data          12  oled_ctrl.o(.data)
    oledMenuRs485Baud                        0x2000045c   Data          12  oled_ctrl.o(.data)
    oledMenuStepMotor                        0x20000468   Data          12  oled_ctrl.o(.data)
    oledMenuStepMotorMode                    0x20000474   Data          12  oled_ctrl.o(.data)
    oledMenuStepMotorSpd                     0x20000480   Data          12  oled_ctrl.o(.data)
    oledMenuWs2812b                          0x2000048c   Data          12  oled_ctrl.o(.data)
    oledMenuWs2812bMode                      0x20000498   Data          12  oled_ctrl.o(.data)
    oledMenuWs2812bFixed                     0x200004a4   Data          12  oled_ctrl.o(.data)
    oledMainPageRefreshInterval              0x200004b0   Data           2  oled_ctrl.o(.data)
    oledSelectLevel1                         0x200004b2   Data           1  oled_ctrl.o(.data)
    oledSelectLevel2                         0x200004b3   Data           1  oled_ctrl.o(.data)
    oledSelectLevel3                         0x200004b4   Data           1  oled_ctrl.o(.data)
    oledSelectLevel4                         0x200004b5   Data           1  oled_ctrl.o(.data)
    oledDisModeFlag                          0x200004b6   Data           1  oled_ctrl.o(.data)
    oledMenuLevel                            0x200004b7   Data           1  oled_ctrl.o(.data)
    oledItemUpDnEnaFlag                      0x200004b8   Data           1  oled_ctrl.o(.data)
    oledItemUpFlag                           0x200004b9   Data           1  oled_ctrl.o(.data)
    oledItemDnFlag                           0x200004ba   Data           1  oled_ctrl.o(.data)
    oledItemSelectFlag                       0x200004bb   Data           1  oled_ctrl.o(.data)
    oledValSetEnaFlag                        0x200004bc   Data           1  oled_ctrl.o(.data)
    oledValSetSubFlag                        0x200004bd   Data           1  oled_ctrl.o(.data)
    oledValSetPlusFlag                       0x200004be   Data           1  oled_ctrl.o(.data)
    oledOffFlag                              0x200004bf   Data           1  oled_ctrl.o(.data)
    oledDir                                  0x200004c0   Data           1  oled_ctrl.o(.data)
    oledLightLevel                           0x200004c1   Data           1  oled_ctrl.o(.data)
    oledCursorStyle                          0x200004c2   Data           1  oled_ctrl.o(.data)
    oledMenuNumberFlag                       0x200004c3   Data           1  oled_ctrl.o(.data)
    oledMenuNumberFlagLast                   0x200004c4   Data           1  oled_ctrl.o(.data)
    oledWarnOledAwakenedFlag                 0x200004c5   Data           1  oled_ctrl.o(.data)
    oledWarnKeyLockedFlag                    0x200004c6   Data           1  oled_ctrl.o(.data)
    oledWarnKeyUnlockedFlag                  0x200004c7   Data           1  oled_ctrl.o(.data)
    rs485UsartBaudRate                       0x200004c8   Data           4  rs485_ctrl.o(.data)
    rs485UsartBaudRateNew                    0x200004cc   Data           4  rs485_ctrl.o(.data)
    rs485ActiveInterval                      0x200004d0   Data           2  rs485_ctrl.o(.data)
    rs485UsartRxIndex                        0x200004d2   Data           1  rs485_ctrl.o(.data)
    rs485UsartRxFinishFlag                   0x200004d3   Data           1  rs485_ctrl.o(.data)
    rs485Mode                                0x200004d4   Data           1  rs485_ctrl.o(.data)
    rs485Id                                  0x200004d5   Data           1  rs485_ctrl.o(.data)
    rs485SaveFlag                            0x200004d6   Data           1  rs485_ctrl.o(.data)
    rs485RebootFlag                          0x200004d7   Data           1  rs485_ctrl.o(.data)
    rs485ResetFlag                           0x200004d8   Data           1  rs485_ctrl.o(.data)
    stepMotorState                           0x200004d9   Data           1  step_motor_ctrl.o(.data)
    stepMotorMode                            0x200004da   Data           1  step_motor_ctrl.o(.data)
    stepMotorSpd                             0x200004db   Data           1  step_motor_ctrl.o(.data)
    ws2812bState                             0x200004dc   Data           1  ws2812b_ctrl.o(.data)
    ws2812bCwMode                            0x200004dd   Data           1  ws2812b_ctrl.o(.data)
    ws2812bCcwMode                           0x200004de   Data           1  ws2812b_ctrl.o(.data)
    ws2812bStopRed                           0x200004df   Data           1  ws2812b_ctrl.o(.data)
    ws2812bStopGreen                         0x200004e0   Data           1  ws2812b_ctrl.o(.data)
    ws2812bStopBlue                          0x200004e1   Data           1  ws2812b_ctrl.o(.data)
    ws2812bCwRed                             0x200004e2   Data           1  ws2812b_ctrl.o(.data)
    ws2812bCwGreen                           0x200004e3   Data           1  ws2812b_ctrl.o(.data)
    ws2812bCwBlue                            0x200004e4   Data           1  ws2812b_ctrl.o(.data)
    ws2812bCcwRed                            0x200004e5   Data           1  ws2812b_ctrl.o(.data)
    ws2812bCcwGreen                          0x200004e6   Data           1  ws2812b_ctrl.o(.data)
    ws2812bCcwBlue                           0x200004e7   Data           1  ws2812b_ctrl.o(.data)
    taskHandleDebug                          0x200004f0   Data           4  debug_task.o(.data)
    taskHandleFlash                          0x200004f4   Data           4  flash_task.o(.data)
    semaphBinFlash                           0x200004f8   Data           4  flash_task.o(.data)
    taskHandleKey                            0x200004fc   Data           4  key_task.o(.data)
    taskHandleLed                            0x20000504   Data           4  led_task.o(.data)
    taskHandleOled                           0x20000508   Data           4  oled_task.o(.data)
    taskHandleRs485                          0x20000510   Data           4  rs485_task.o(.data)
    taskHandleStepMotor                      0x20000514   Data           4  step_motor_task.o(.data)
    semaphBinStepMotor                       0x20000518   Data           4  step_motor_task.o(.data)
    taskHandleWs2812b                        0x2000051c   Data           4  ws2812b_task.o(.data)
    pxCurrentTCB                             0x20000554   Data           4  tasks.o(.data)
    uxTopUsedPriority                        0x2000058c   Data           4  tasks.o(.data)
    debugUsartTxBuffer                       0x20000598   Data          64  debug_ctrl.o(.bss)
    debugUsartRxBuffer                       0x200005d8   Data          64  debug_ctrl.o(.bss)
    flashData                                0x20000618   Data          70  flash_ctrl.o(.bss)
    rs485UsartTxBuffer                       0x2000065e   Data          64  rs485_ctrl.o(.bss)
    rs485UsartRxBuffer                       0x2000069e   Data          64  rs485_ctrl.o(.bss)
    ws2812b                                  0x200006e0   Data          32  ws2812b_ctrl.o(.bss)
    __initial_sp                             0x20003478   Data           0  startup_at32f421.o(STACK)



==============================================================================

Memory Map of the image

  Image Entry point : 0x080000cd

  Load Region LR_IROM1 (Base: 0x08000000, Size: 0x00009c84, Max: 0x00010000, ABSOLUTE, COMPRESSED[0x00009890])

    Execution Region ER_IROM1 (Exec base: 0x08000000, Load base: 0x08000000, Size: 0x000096ec, Max: 0x00010000, ABSOLUTE)

    Exec Addr    Load Addr    Size         Type   Attr      Idx    E Section Name        Object

    0x08000000   0x08000000   0x000000cc   Data   RO          378    RESET               startup_at32f421.o
    0x080000cc   0x080000cc   0x00000000   Code   RO         5500  * .ARM.Collect$$$$00000000  mc_w.l(entry.o)
    0x080000cc   0x080000cc   0x00000004   Code   RO         5789    .ARM.Collect$$$$00000001  mc_w.l(entry2.o)
    0x080000d0   0x080000d0   0x00000004   Code   RO         5792    .ARM.Collect$$$$00000004  mc_w.l(entry5.o)
    0x080000d4   0x080000d4   0x00000000   Code   RO         5794    .ARM.Collect$$$$00000008  mc_w.l(entry7b.o)
    0x080000d4   0x080000d4   0x00000000   Code   RO         5796    .ARM.Collect$$$$0000000A  mc_w.l(entry8b.o)
    0x080000d4   0x080000d4   0x00000008   Code   RO         5797    .ARM.Collect$$$$0000000B  mc_w.l(entry9a.o)
    0x080000dc   0x080000dc   0x00000004   Code   RO         5804    .ARM.Collect$$$$0000000E  mc_w.l(entry12b.o)
    0x080000e0   0x080000e0   0x00000000   Code   RO         5799    .ARM.Collect$$$$0000000F  mc_w.l(entry10a.o)
    0x080000e0   0x080000e0   0x00000000   Code   RO         5801    .ARM.Collect$$$$00000011  mc_w.l(entry11a.o)
    0x080000e0   0x080000e0   0x00000004   Code   RO         5790    .ARM.Collect$$$$00002712  mc_w.l(entry2.o)
    0x080000e4   0x080000e4   0x00000096   Code   RO         4642    .emb_text           port.o
    0x0800017a   0x0800017a   0x00000002   PAD
    0x0800017c   0x0800017c   0x00000024   Code   RO          379    .text               startup_at32f421.o
    0x080001a0   0x080001a0   0x00000062   Code   RO         5503    .text               mc_w.l(uldiv.o)
    0x08000202   0x08000202   0x00000002   PAD
    0x08000204   0x08000204   0x00000024   Code   RO         5505    .text               mc_w.l(rand.o)
    0x08000228   0x08000228   0x00000024   Code   RO         5508    .text               mc_w.l(memcpya.o)
    0x0800024c   0x0800024c   0x00000024   Code   RO         5512    .text               mc_w.l(memseta.o)
    0x08000270   0x08000270   0x0000000e   Code   RO         5514    .text               mc_w.l(strlen.o)
    0x0800027e   0x0800027e   0x0000014e   Code   RO         5779    .text               mf_w.l(dadd.o)
    0x080003cc   0x080003cc   0x000000e4   Code   RO         5781    .text               mf_w.l(dmul.o)
    0x080004b0   0x080004b0   0x000000de   Code   RO         5783    .text               mf_w.l(ddiv.o)
    0x0800058e   0x0800058e   0x0000001a   Code   RO         5785    .text               mf_w.l(dfltui.o)
    0x080005a8   0x080005a8   0x00000032   Code   RO         5787    .text               mf_w.l(dfixui.o)
    0x080005da   0x080005da   0x0000001e   Code   RO         5808    .text               mc_w.l(llshl.o)
    0x080005f8   0x080005f8   0x00000020   Code   RO         5810    .text               mc_w.l(llushr.o)
    0x08000618   0x08000618   0x00000024   Code   RO         5812    .text               mc_w.l(llsshr.o)
    0x0800063c   0x0800063c   0x00000000   Code   RO         5814    .text               mc_w.l(iusefp.o)
    0x0800063c   0x0800063c   0x000000ba   Code   RO         5815    .text               mf_w.l(depilogue.o)
    0x080006f6   0x080006f6   0x00000002   PAD
    0x080006f8   0x080006f8   0x00000024   Code   RO         5821    .text               mc_w.l(init.o)
    0x0800071c   0x0800071c   0x00000056   Code   RO         5831    .text               mc_w.l(__dczerorl2.o)
    0x08000772   0x08000772   0x00000004   Code   RO          123    i.BusFault_Handler  at32f421_int.o
    0x08000776   0x08000776   0x00000002   PAD
    0x08000778   0x08000778   0x0000007c   Code   RO          124    i.DMA1_Channel1_IRQHandler  at32f421_int.o
    0x080007f4   0x080007f4   0x00000002   Code   RO          125    i.DebugMon_Handler  at32f421_int.o
    0x080007f6   0x080007f6   0x00000004   Code   RO          126    i.HardFault_Handler  at32f421_int.o
    0x080007fa   0x080007fa   0x00000004   Code   RO          127    i.MemManage_Handler  at32f421_int.o
    0x080007fe   0x080007fe   0x00000002   Code   RO          128    i.NMI_Handler       at32f421_int.o
    0x08000800   0x08000800   0x00000034   Code   RO         4643    i.SysTick_Handler   port.o
    0x08000834   0x08000834   0x0000006c   Code   RO          342    i.SystemInit        system_at32f421.o
    0x080008a0   0x080008a0   0x000000d8   Code   RO          129    i.TMR14_GLOBAL_IRQHandler  at32f421_int.o
    0x08000978   0x08000978   0x000000d8   Code   RO          130    i.TMR16_GLOBAL_IRQHandler  at32f421_int.o
    0x08000a50   0x08000a50   0x000000c4   Code   RO          131    i.TMR17_GLOBAL_IRQHandler  at32f421_int.o
    0x08000b14   0x08000b14   0x00000038   Code   RO          132    i.TMR6_GLOBAL_IRQHandler  at32f421_int.o
    0x08000b4c   0x08000b4c   0x00000064   Code   RO          133    i.USART1_IRQHandler  at32f421_int.o
    0x08000bb0   0x08000bb0   0x00000064   Code   RO          134    i.USART2_IRQHandler  at32f421_int.o
    0x08000c14   0x08000c14   0x00000004   Code   RO          135    i.UsageFault_Handler  at32f421_int.o
    0x08000c18   0x08000c18   0x00000028   Code   RO         5727    i.__0sprintf$8      mc_w.l(printf8.o)
    0x08000c40   0x08000c40   0x0000000e   Code   RO         5825    i.__scatterload_copy  mc_w.l(handlers.o)
    0x08000c4e   0x08000c4e   0x00000002   Code   RO         5826    i.__scatterload_null  mc_w.l(handlers.o)
    0x08000c50   0x08000c50   0x0000000e   Code   RO         5827    i.__scatterload_zeroinit  mc_w.l(handlers.o)
    0x08000c5e   0x08000c5e   0x00000002   PAD
    0x08000c60   0x08000c60   0x00000404   Code   RO         5732    i._printf_core      mc_w.l(printf8.o)
    0x08001064   0x08001064   0x00000024   Code   RO         5733    i._printf_post_padding  mc_w.l(printf8.o)
    0x08001088   0x08001088   0x0000002e   Code   RO         5734    i._printf_pre_padding  mc_w.l(printf8.o)
    0x080010b6   0x080010b6   0x0000000a   Code   RO         5736    i._sputc            mc_w.l(printf8.o)
    0x080010c0   0x080010c0   0x0000002c   Code   RO          386    i.adc_base_config   at32f421_adc.o
    0x080010ec   0x080010ec   0x0000000c   Code   RO          388    i.adc_calibration_init  at32f421_adc.o
    0x080010f8   0x080010f8   0x00000012   Code   RO          389    i.adc_calibration_init_status_get  at32f421_adc.o
    0x0800110a   0x0800110a   0x0000000c   Code   RO          390    i.adc_calibration_start  at32f421_adc.o
    0x08001116   0x08001116   0x00000012   Code   RO          391    i.adc_calibration_status_get  at32f421_adc.o
    0x08001128   0x08001128   0x00000008   Code   RO         3275    i.adc_config        adc_ctrl.o
    0x08001130   0x08001130   0x0000000a   Code   RO          392    i.adc_dma_mode_enable  at32f421_adc.o
    0x0800113a   0x0800113a   0x0000000a   Code   RO          393    i.adc_enable        at32f421_adc.o
    0x08001144   0x08001144   0x000000cc   Code   RO         3276    i.adc_init          adc_ctrl.o
    0x08001210   0x08001210   0x000000a8   Code   RO          398    i.adc_ordinary_channel_set  at32f421_adc.o
    0x080012b8   0x080012b8   0x00000020   Code   RO          400    i.adc_ordinary_conversion_trigger_set  at32f421_adc.o
    0x080012d8   0x080012d8   0x0000000a   Code   RO          403    i.adc_ordinary_software_trigger_enable  at32f421_adc.o
    0x080012e2   0x080012e2   0x00000002   PAD
    0x080012e4   0x080012e4   0x00000014   Code   RO          415    i.adc_tempersensor_vintrv_enable  at32f421_adc.o
    0x080012f8   0x080012f8   0x00000048   Code   RO         3763    i.beep_alarm        beep_logic.o
    0x08001340   0x08001340   0x0000000c   Code   RO         3311    i.beep_config       beep_ctrl.o
    0x0800134c   0x0800134c   0x00000080   Code   RO         3312    i.beep_init         beep_ctrl.o
    0x080013cc   0x080013cc   0x00000010   Code   RO         3313    i.beep_off          beep_ctrl.o
    0x080013dc   0x080013dc   0x00000010   Code   RO         3314    i.beep_on           beep_ctrl.o
    0x080013ec   0x080013ec   0x0000003c   Code   RO         4170    i.crc16_modbus_calc  rs485_logic.o
    0x08001428   0x08001428   0x00000020   Code   RO          776    i.crm_adc_clock_div_set  at32f421_crm.o
    0x08001448   0x08001448   0x00000014   Code   RO          777    i.crm_ahb_div_set   at32f421_crm.o
    0x0800145c   0x0800145c   0x00000014   Code   RO          778    i.crm_apb1_div_set  at32f421_crm.o
    0x08001470   0x08001470   0x00000014   Code   RO          779    i.crm_apb2_div_set  at32f421_crm.o
    0x08001484   0x08001484   0x00000028   Code   RO          780    i.crm_auto_step_mode_enable  at32f421_crm.o
    0x080014ac   0x080014ac   0x00000060   Code   RO          785    i.crm_clock_source_enable  at32f421_crm.o
    0x0800150c   0x0800150c   0x000001ac   Code   RO          786    i.crm_clocks_freq_get  at32f421_crm.o
    0x080016b8   0x080016b8   0x00000030   Code   RO          790    i.crm_flag_get      at32f421_crm.o
    0x080016e8   0x080016e8   0x00000044   Code   RO          800    i.crm_periph_clock_enable  at32f421_crm.o
    0x0800172c   0x0800172c   0x00000114   Code   RO          803    i.crm_pll_config    at32f421_crm.o
    0x08001840   0x08001840   0x00000064   Code   RO          805    i.crm_reset         at32f421_crm.o
    0x080018a4   0x080018a4   0x0000003c   Code   RO          806    i.crm_sysclk_switch  at32f421_crm.o
    0x080018e0   0x080018e0   0x00000010   Code   RO          807    i.crm_sysclk_switch_status_get  at32f421_crm.o
    0x080018f0   0x080018f0   0x00000008   Code   RO         3359    i.debug_config      debug_ctrl.o
    0x080018f8   0x080018f8   0x000000c0   Code   RO         3360    i.debug_init        debug_ctrl.o
    0x080019b8   0x080019b8   0x0000000e   Code   RO         3584    i.delay             oled_ctrl.o
    0x080019c6   0x080019c6   0x0000000a   Code   RO         1017    i.dma_channel_enable  at32f421_dma.o
    0x080019d0   0x080019d0   0x0000000c   Code   RO         1021    i.dma_flag_clear    at32f421_dma.o
    0x080019dc   0x080019dc   0x0000001c   Code   RO         1022    i.dma_flag_get      at32f421_dma.o
    0x080019f8   0x080019f8   0x0000005c   Code   RO         1023    i.dma_init          at32f421_dma.o
    0x08001a54   0x08001a54   0x00000012   Code   RO         1024    i.dma_interrupt_enable  at32f421_dma.o
    0x08001a66   0x08001a66   0x00000002   PAD
    0x08001a68   0x08001a68   0x00000038   Code   RO         1025    i.dma_reset         at32f421_dma.o
    0x08001aa0   0x08001aa0   0x0000000c   Code   RO         3406    i.fan_config        fan_ctrl.o
    0x08001aac   0x08001aac   0x00000028   Code   RO         3407    i.fan_init          fan_ctrl.o
    0x08001ad4   0x08001ad4   0x00000014   Code   RO         3408    i.fan_off           fan_ctrl.o
    0x08001ae8   0x08001ae8   0x00000014   Code   RO         3409    i.fan_on            fan_ctrl.o
    0x08001afc   0x08001afc   0x00000078   Code   RO         3818    i.flash_data_save   flash_logic.o
    0x08001b74   0x08001b74   0x00000046   Code   RO         3451    i.flash_erase_sectors  flash_ctrl.o
    0x08001bba   0x08001bba   0x00000002   PAD
    0x08001bbc   0x08001bbc   0x0000000c   Code   RO         1485    i.flash_flag_clear  at32f421_flash.o
    0x08001bc8   0x08001bc8   0x00000038   Code   RO         1487    i.flash_halfword_program  at32f421_flash.o
    0x08001c00   0x08001c00   0x00000014   Code   RO         1490    i.flash_lock        at32f421_flash.o
    0x08001c14   0x08001c14   0x00000034   Code   RO         1492    i.flash_operation_status_get  at32f421_flash.o
    0x08001c48   0x08001c48   0x00000024   Code   RO         1493    i.flash_operation_wait_for  at32f421_flash.o
    0x08001c6c   0x08001c6c   0x0000002c   Code   RO         3453    i.flash_program_data_halfword  flash_ctrl.o
    0x08001c98   0x08001c98   0x00000250   Code   RO         3819    i.flash_read        flash_logic.o
    0x08001ee8   0x08001ee8   0x00000040   Code   RO         1494    i.flash_sector_erase  at32f421_flash.o
    0x08001f28   0x08001f28   0x00000018   Code   RO         1503    i.flash_unlock      at32f421_flash.o
    0x08001f40   0x08001f40   0x00000020   Code   RO         4012    i.get_value_num     oled_logic.o
    0x08001f60   0x08001f60   0x00000004   Code   RO         1696    i.gpio_bits_reset   at32f421_gpio.o
    0x08001f64   0x08001f64   0x00000004   Code   RO         1697    i.gpio_bits_set     at32f421_gpio.o
    0x08001f68   0x08001f68   0x0000007a   Code   RO         1700    i.gpio_init         at32f421_gpio.o
    0x08001fe2   0x08001fe2   0x00000012   Code   RO         1701    i.gpio_input_data_bit_read  at32f421_gpio.o
    0x08001ff4   0x08001ff4   0x00000042   Code   RO         1705    i.gpio_pin_mux_config  at32f421_gpio.o
    0x08002036   0x08002036   0x00000002   PAD
    0x08002038   0x08002038   0x0000001c   Code   RO         3500    i.key_config        key_ctrl.o
    0x08002054   0x08002054   0x0000006c   Code   RO         3882    i.key_down_handle   key_logic.o
    0x080020c0   0x080020c0   0x000000b4   Code   RO         3501    i.key_init          key_ctrl.o
    0x08002174   0x08002174   0x00000084   Code   RO         3883    i.key_left_handle   key_logic.o
    0x080021f8   0x080021f8   0x000000dc   Code   RO         3884    i.key_mid_handle    key_logic.o
    0x080022d4   0x080022d4   0x00000084   Code   RO         3885    i.key_right_handle  key_logic.o
    0x08002358   0x08002358   0x000000e8   Code   RO         3886    i.key_scan          key_logic.o
    0x08002440   0x08002440   0x00000064   Code   RO         3887    i.key_up_handle     key_logic.o
    0x080024a4   0x080024a4   0x00000020   Code   RO         3959    i.led_blink         led_logic.o
    0x080024c4   0x080024c4   0x00000008   Code   RO         3536    i.led_config        led_ctrl.o
    0x080024cc   0x080024cc   0x00000164   Code   RO         3537    i.led_init          led_ctrl.o
    0x08002630   0x08002630   0x0000001c   Code   RO         3538    i.led_off           led_ctrl.o
    0x0800264c   0x0800264c   0x0000001c   Code   RO         3539    i.led_on            led_ctrl.o
    0x08002668   0x08002668   0x00000022   Code   RO         3960    i.led_set_blink_time  led_logic.o
    0x0800268a   0x0800268a   0x00000020   Code   RO         3961    i.led_set_breath_step  led_logic.o
    0x080026aa   0x080026aa   0x00000002   PAD
    0x080026ac   0x080026ac   0x000000f8   Code   RO         3962    i.led_set_mode      led_logic.o
    0x080027a4   0x080027a4   0x00000034   Code   RO         3217    i.main              main.o
    0x080027d8   0x080027d8   0x000000c8   Code   RO         2003    i.nvic_irq_enable   at32f421_misc.o
    0x080028a0   0x080028a0   0x00000028   Code   RO         2005    i.nvic_priority_group_config  at32f421_misc.o
    0x080028c8   0x080028c8   0x0000002c   Code   RO         2006    i.nvic_system_reset  at32f421_misc.o
    0x080028f4   0x080028f4   0x00000040   Code   RO         4013    i.oled_clear        oled_logic.o
    0x08002934   0x08002934   0x0000002c   Code   RO         3585    i.oled_config       oled_ctrl.o
    0x08002960   0x08002960   0x00000838   Code   RO         4014    i.oled_dis_main     oled_logic.o
    0x08003198   0x08003198   0x00000624   Code   RO         4015    i.oled_dis_menu     oled_logic.o
    0x080037bc   0x080037bc   0x0000001c   Code   RO         4016    i.oled_display_off  oled_logic.o
    0x080037d8   0x080037d8   0x0000001c   Code   RO         4017    i.oled_display_on   oled_logic.o
    0x080037f4   0x080037f4   0x0000006c   Code   RO         3586    i.oled_iic_send_byte  oled_ctrl.o
    0x08003860   0x08003860   0x00000038   Code   RO         3587    i.oled_iic_send_data  oled_ctrl.o
    0x08003898   0x08003898   0x00000048   Code   RO         3588    i.oled_iic_start    oled_ctrl.o
    0x080038e0   0x080038e0   0x00000038   Code   RO         3589    i.oled_iic_stop     oled_ctrl.o
    0x08003918   0x08003918   0x00000038   Code   RO         3590    i.oled_iic_wait_ack  oled_ctrl.o
    0x08003950   0x08003950   0x00000038   Code   RO         3591    i.oled_init         oled_ctrl.o
    0x08003988   0x08003988   0x00000070   Code   RO         4018    i.oled_menu_level3_key  oled_logic.o
    0x080039f8   0x080039f8   0x000000bc   Code   RO         4019    i.oled_menu_level3_led  oled_logic.o
    0x08003ab4   0x08003ab4   0x00000170   Code   RO         4020    i.oled_menu_level3_oled  oled_logic.o
    0x08003c24   0x08003c24   0x00000178   Code   RO         4021    i.oled_menu_level3_rs485  oled_logic.o
    0x08003d9c   0x08003d9c   0x0000008c   Code   RO         4022    i.oled_menu_level3_step_motor  oled_logic.o
    0x08003e28   0x08003e28   0x0000006c   Code   RO         4023    i.oled_menu_level3_ws2812b  oled_logic.o
    0x08003e94   0x08003e94   0x00000198   Code   RO         4024    i.oled_menu_level4_led  oled_logic.o
    0x0800402c   0x0800402c   0x00000110   Code   RO         4025    i.oled_menu_level4_ws2812b  oled_logic.o
    0x0800413c   0x0800413c   0x00000178   Code   RO         4026    i.oled_menu_level5_ws2812b  oled_logic.o
    0x080042b4   0x080042b4   0x00000036   Code   RO         4027    i.oled_set_position  oled_logic.o
    0x080042ea   0x080042ea   0x00000002   PAD
    0x080042ec   0x080042ec   0x00000354   Code   RO         4028    i.oled_set_val      oled_logic.o
    0x08004640   0x08004640   0x00000080   Code   RO         4029    i.oled_show_char_8x16  oled_logic.o
    0x080046c0   0x080046c0   0x00000046   Code   RO         4031    i.oled_show_str_8x16  oled_logic.o
    0x08004706   0x08004706   0x00000002   PAD
    0x08004708   0x08004708   0x00000098   Code   RO         5182    i.prvAddCurrentTaskToDelayedList  tasks.o
    0x080047a0   0x080047a0   0x000000b4   Code   RO         5183    i.prvAddNewTaskToReadyList  tasks.o
    0x08004854   0x08004854   0x00000048   Code   RO         5184    i.prvCheckTasksWaitingTermination  tasks.o
    0x0800489c   0x0800489c   0x0000007e   Code   RO         4852    i.prvCopyDataToQueue  queue.o
    0x0800491a   0x0800491a   0x00000012   Code   RO         5185    i.prvDeleteTCB      tasks.o
    0x0800492c   0x0800492c   0x00000014   Code   RO         4853    i.prvGetDisinheritPriorityAfterTimeout  queue.o
    0x08004940   0x08004940   0x0000007c   Code   RO         4566    i.prvHeapInit       heap_4.o
    0x080049bc   0x080049bc   0x00000028   Code   RO         5186    i.prvIdleTask       tasks.o
    0x080049e4   0x080049e4   0x00000026   Code   RO         4855    i.prvInitialiseNewQueue  queue.o
    0x08004a0a   0x08004a0a   0x000000b4   Code   RO         5187    i.prvInitialiseNewTask  tasks.o
    0x08004abe   0x08004abe   0x00000002   PAD
    0x08004ac0   0x08004ac0   0x00000068   Code   RO         5188    i.prvInitialiseTaskLists  tasks.o
    0x08004b28   0x08004b28   0x00000068   Code   RO         4567    i.prvInsertBlockIntoFreeList  heap_4.o
    0x08004b90   0x08004b90   0x0000001a   Code   RO         4856    i.prvIsQueueEmpty   queue.o
    0x08004baa   0x08004baa   0x0000001e   Code   RO         4857    i.prvIsQueueFull    queue.o
    0x08004bc8   0x08004bc8   0x00000030   Code   RO         5189    i.prvResetNextTaskUnblockTime  tasks.o
    0x08004bf8   0x08004bf8   0x00000040   Code   RO         4644    i.prvTaskExitError  port.o
    0x08004c38   0x08004c38   0x00000058   Code   RO         5190    i.prvTaskIsTaskSuspended  tasks.o
    0x08004c90   0x08004c90   0x0000007e   Code   RO         4858    i.prvUnlockQueue    queue.o
    0x08004d0e   0x08004d0e   0x00000002   PAD
    0x08004d10   0x08004d10   0x0000016c   Code   RO         4568    i.pvPortMalloc      heap_4.o
    0x08004e7c   0x08004e7c   0x00000020   Code   RO         5191    i.pvTaskIncrementMutexHeldCount  tasks.o
    0x08004e9c   0x08004e9c   0x00000024   Code   RO         4645    i.pxPortInitialiseStack  port.o
    0x08004ec0   0x08004ec0   0x00000040   Code   RO         3652    i.rs485_config      rs485_ctrl.o
    0x08004f00   0x08004f00   0x00000a18   Code   RO         4171    i.rs485_data_handle  rs485_logic.o
    0x08005918   0x08005918   0x000000d4   Code   RO         3653    i.rs485_init        rs485_ctrl.o
    0x080059ec   0x080059ec   0x00000074   Code   RO         4172    i.rs485_modbus_read_single_reg_response  rs485_logic.o
    0x08005a60   0x08005a60   0x000000a8   Code   RO         4173    i.rs485_modbus_write_single_reg_response  rs485_logic.o
    0x08005b08   0x08005b08   0x0000007c   Code   RO         4174    i.rs485_send_data   rs485_logic.o
    0x08005b84   0x08005b84   0x0000000a   Code   RO         2237    i.spi_enable        at32f421_spi.o
    0x08005b8e   0x08005b8e   0x00000004   Code   RO         2242    i.spi_i2s_data_transmit  at32f421_spi.o
    0x08005b92   0x08005b92   0x00000010   Code   RO         2246    i.spi_i2s_flag_get  at32f421_spi.o
    0x08005ba2   0x08005ba2   0x00000124   Code   RO         2250    i.spi_init          at32f421_spi.o
    0x08005cc6   0x08005cc6   0x00000002   PAD
    0x08005cc8   0x08005cc8   0x00000038   Code   RO         4221    i.step_motor_ccw    step_motor_logic.o
    0x08005d00   0x08005d00   0x0000003c   Code   RO         3689    i.step_motor_config  step_motor_ctrl.o
    0x08005d3c   0x08005d3c   0x00000038   Code   RO         4222    i.step_motor_cw     step_motor_logic.o
    0x08005d74   0x08005d74   0x000000f0   Code   RO         3690    i.step_motor_init   step_motor_ctrl.o
    0x08005e64   0x08005e64   0x000000e0   Code   RO         4223    i.step_motor_set_mode  step_motor_logic.o
    0x08005f44   0x08005f44   0x000000b4   Code   RO         4224    i.step_motor_set_rotate_speed  step_motor_logic.o
    0x08005ff8   0x08005ff8   0x0000001c   Code   RO         4225    i.step_motor_stop   step_motor_logic.o
    0x08006014   0x08006014   0x00000054   Code   RO         3080    i.sys_init          init.o
    0x08006068   0x08006068   0x0000006c   Code   RO            4    i.system_clock_config  at32f421_clock.o
    0x080060d4   0x080060d4   0x00000154   Code   RO          343    i.system_core_clock_update  system_at32f421.o
    0x08006228   0x08006228   0x00000030   Code   RO         4312    i.task_debug        debug_task.o
    0x08006258   0x08006258   0x000001c4   Code   RO         4345    i.task_flash        flash_task.o
    0x0800641c   0x0800641c   0x0000018c   Code   RO         3081    i.task_init         init.o
    0x080065a8   0x080065a8   0x000000e0   Code   RO         4375    i.task_key          key_task.o
    0x08006688   0x08006688   0x000000f4   Code   RO         4409    i.task_led          led_task.o
    0x0800677c   0x0800677c   0x00000574   Code   RO         4442    i.task_oled         oled_task.o
    0x08006cf0   0x08006cf0   0x000003b0   Code   RO         4476    i.task_rs485        rs485_task.o
    0x080070a0   0x080070a0   0x00000060   Code   RO         4506    i.task_step_motor   step_motor_task.o
    0x08007100   0x08007100   0x00000398   Code   RO         4536    i.task_ws2812b      ws2812b_task.o
    0x08007498   0x08007498   0x00000010   Code   RO         2390    i.tmr_base_init     at32f421_tmr.o
    0x080074a8   0x080074a8   0x00000028   Code   RO         2398    i.tmr_channel_value_set  at32f421_tmr.o
    0x080074d0   0x080074d0   0x0000000a   Code   RO         2399    i.tmr_clock_source_div_set  at32f421_tmr.o
    0x080074da   0x080074da   0x0000000a   Code   RO         2400    i.tmr_cnt_dir_set   at32f421_tmr.o
    0x080074e4   0x080074e4   0x0000000a   Code   RO         2401    i.tmr_counter_enable  at32f421_tmr.o
    0x080074ee   0x080074ee   0x00000004   Code   RO         2403    i.tmr_counter_value_set  at32f421_tmr.o
    0x080074f2   0x080074f2   0x00000006   Code   RO         2413    i.tmr_flag_clear    at32f421_tmr.o
    0x080074f8   0x080074f8   0x00000016   Code   RO         2422    i.tmr_interrupt_enable  at32f421_tmr.o
    0x0800750e   0x0800750e   0x00000018   Code   RO         2423    i.tmr_interrupt_flag_get  at32f421_tmr.o
    0x08007526   0x08007526   0x00000042   Code   RO         2426    i.tmr_output_channel_buffer_enable  at32f421_tmr.o
    0x08007568   0x08007568   0x000001a0   Code   RO         2427    i.tmr_output_channel_config  at32f421_tmr.o
    0x08007708   0x08007708   0x0000000a   Code   RO         2434    i.tmr_output_enable  at32f421_tmr.o
    0x08007712   0x08007712   0x0000000a   Code   RO         2437    i.tmr_period_buffer_enable  at32f421_tmr.o
    0x0800771c   0x0800771c   0x00000004   Code   RO         2439    i.tmr_period_value_set  at32f421_tmr.o
    0x08007720   0x08007720   0x00000008   Code   RO         2754    i.usart_data_receive  at32f421_usart.o
    0x08007728   0x08007728   0x00000008   Code   RO         2755    i.usart_data_transmit  at32f421_usart.o
    0x08007730   0x08007730   0x0000000a   Code   RO         2758    i.usart_enable      at32f421_usart.o
    0x0800773a   0x0800773a   0x00000012   Code   RO         2759    i.usart_flag_clear  at32f421_usart.o
    0x0800774c   0x0800774c   0x00000010   Code   RO         2760    i.usart_flag_get    at32f421_usart.o
    0x0800775c   0x0800775c   0x0000006c   Code   RO         2762    i.usart_init        at32f421_usart.o
    0x080077c8   0x080077c8   0x00000036   Code   RO         2763    i.usart_interrupt_enable  at32f421_usart.o
    0x080077fe   0x080077fe   0x0000004c   Code   RO         2769    i.usart_parity_selection_config  at32f421_usart.o
    0x0800784a   0x0800784a   0x0000000a   Code   RO         2770    i.usart_receiver_enable  at32f421_usart.o
    0x08007854   0x08007854   0x0000000a   Code   RO         2778    i.usart_transmitter_enable  at32f421_usart.o
    0x0800785e   0x0800785e   0x00000028   Code   RO         4811    i.uxListRemove      list.o
    0x08007886   0x08007886   0x0000001a   Code   RO         4812    i.vListInitialise   list.o
    0x080078a0   0x080078a0   0x00000006   Code   RO         4813    i.vListInitialiseItem  list.o
    0x080078a6   0x080078a6   0x00000034   Code   RO         4814    i.vListInsert       list.o
    0x080078da   0x080078da   0x00000018   Code   RO         4815    i.vListInsertEnd    list.o
    0x080078f2   0x080078f2   0x00000002   PAD
    0x080078f4   0x080078f4   0x00000054   Code   RO         4647    i.vPortEnterCritical  port.o
    0x08007948   0x08007948   0x0000003c   Code   RO         4648    i.vPortExitCritical  port.o
    0x08007984   0x08007984   0x000000a4   Code   RO         4569    i.vPortFree         heap_4.o
    0x08007a28   0x08007a28   0x00000028   Code   RO         4649    i.vPortSetupTimerInterrupt  port.o
    0x08007a50   0x08007a50   0x0000005c   Code   RO         5198    i.vTaskDelay        tasks.o
    0x08007aac   0x08007aac   0x000000f4   Code   RO         5199    i.vTaskDelete       tasks.o
    0x08007ba0   0x08007ba0   0x00000018   Code   RO         5202    i.vTaskInternalSetTimeOutState  tasks.o
    0x08007bb8   0x08007bb8   0x0000000c   Code   RO         5203    i.vTaskMissedYield  tasks.o
    0x08007bc4   0x08007bc4   0x00000038   Code   RO         5204    i.vTaskPlaceOnEventList  tasks.o
    0x08007bfc   0x08007bfc   0x000000e4   Code   RO         5206    i.vTaskPriorityDisinheritAfterTimeout  tasks.o
    0x08007ce0   0x08007ce0   0x00000090   Code   RO         5209    i.vTaskResume       tasks.o
    0x08007d70   0x08007d70   0x00000090   Code   RO         5211    i.vTaskStartScheduler  tasks.o
    0x08007e00   0x08007e00   0x00000100   Code   RO         5212    i.vTaskSuspend      tasks.o
    0x08007f00   0x08007f00   0x00000010   Code   RO         5213    i.vTaskSuspendAll   tasks.o
    0x08007f10   0x08007f10   0x0000008c   Code   RO         5214    i.vTaskSwitchContext  tasks.o
    0x08007f9c   0x08007f9c   0x0000005c   Code   RO         3725    i.ws2812b_config    ws2812b_ctrl.o
    0x08007ff8   0x08007ff8   0x0000005c   Code   RO         3726    i.ws2812b_init      ws2812b_ctrl.o
    0x08008054   0x08008054   0x0000003c   Code   RO         4269    i.ws2812b_send_bit  ws2812b_logic.o
    0x08008090   0x08008090   0x0000001e   Code   RO         4270    i.ws2812b_send_byte  ws2812b_logic.o
    0x080080ae   0x080080ae   0x00000002   PAD
    0x080080b0   0x080080b0   0x0000003c   Code   RO         4271    i.ws2812b_send_reset  ws2812b_logic.o
    0x080080ec   0x080080ec   0x00000018   Code   RO         4272    i.ws2812b_send_rgb_data  ws2812b_logic.o
    0x08008104   0x08008104   0x000000cc   Code   RO         4651    i.xPortStartScheduler  port.o
    0x080081d0   0x080081d0   0x000000a2   Code   RO         4867    i.xQueueGenericCreate  queue.o
    0x08008272   0x08008272   0x00000002   PAD
    0x08008274   0x08008274   0x00000098   Code   RO         4868    i.xQueueGenericReset  queue.o
    0x0800830c   0x0800830c   0x00000180   Code   RO         4869    i.xQueueGenericSend  queue.o
    0x0800848c   0x0800848c   0x00000190   Code   RO         4879    i.xQueueSemaphoreTake  queue.o
    0x0800861c   0x0800861c   0x00000090   Code   RO         5216    i.xTaskCheckForTimeOut  tasks.o
    0x080086ac   0x080086ac   0x00000060   Code   RO         5217    i.xTaskCreate       tasks.o
    0x0800870c   0x0800870c   0x00000148   Code   RO         5226    i.xTaskIncrementTick  tasks.o
    0x08008854   0x08008854   0x000000bc   Code   RO         5227    i.xTaskPriorityDisinherit  tasks.o
    0x08008910   0x08008910   0x000000b8   Code   RO         5228    i.xTaskPriorityInherit  tasks.o
    0x080089c8   0x080089c8   0x00000098   Code   RO         5229    i.xTaskRemoveFromEventList  tasks.o
    0x08008a60   0x08008a60   0x00000104   Code   RO         5230    i.xTaskResumeAll    tasks.o
    0x08008b64   0x08008b64   0x00000010   Data   RO          344    .constdata          system_at32f421.o
    0x08008b74   0x08008b74   0x00000028   Data   RO          808    .constdata          at32f421_crm.o
    0x08008b9c   0x08008b9c   0x00000800   Data   RO         3260    .constdata          oled_font.o
    0x0800939c   0x0800939c   0x00000018   Data   RO         3277    .constdata          adc_ctrl.o
    0x080093b4   0x080093b4   0x00000008   Data   RO         3315    .constdata          beep_ctrl.o
    0x080093bc   0x080093bc   0x00000008   Data   RO         3363    .constdata          debug_ctrl.o
    0x080093c4   0x080093c4   0x00000008   Data   RO         3410    .constdata          fan_ctrl.o
    0x080093cc   0x080093cc   0x00000008   Data   RO         3502    .constdata          key_ctrl.o
    0x080093d4   0x080093d4   0x0000000f   Data   RO         3540    .constdata          led_ctrl.o
    0x080093e3   0x080093e3   0x00000001   PAD
    0x080093e4   0x080093e4   0x00000008   Data   RO         3592    .constdata          oled_ctrl.o
    0x080093ec   0x080093ec   0x00000030   Data   RO         3655    .constdata          rs485_ctrl.o
    0x0800941c   0x0800941c   0x0000000f   Data   RO         3691    .constdata          step_motor_ctrl.o
    0x0800942b   0x0800942b   0x00000001   PAD
    0x0800942c   0x0800942c   0x00000010   Data   RO         3728    .constdata          ws2812b_ctrl.o
    0x0800943c   0x0800943c   0x0000000f   Data   RO         3963    .constdata          led_logic.o
    0x0800944b   0x0800944b   0x00000001   PAD
    0x0800944c   0x0800944c   0x00000280   Data   RO         3593    .conststring        oled_ctrl.o
    0x080096cc   0x080096cc   0x00000020   Data   RO         5823    Region$$Table       anon$$obj.o


    Execution Region RW_IRAM1 (Exec base: 0x20000000, Load base: 0x080096ec, Size: 0x00003478, Max: 0x00004000, ABSOLUTE, COMPRESSED[0x000001a4])

    Exec Addr    Load Addr    Size         Type   Attr      Idx    E Section Name        Object

    0x20000000   COMPRESSED   0x00000004   Data   RW          345    .data               system_at32f421.o
    0x20000004   COMPRESSED   0x00000004   PAD
    0x20000008   COMPRESSED   0x00000010   Data   RW         3278    .data               adc_ctrl.o
    0x20000018   COMPRESSED   0x00000002   Data   RW         3316    .data               beep_ctrl.o
    0x2000001a   COMPRESSED   0x00000002   Data   RW         3364    .data               debug_ctrl.o
    0x2000001c   COMPRESSED   0x00000005   Data   RW         3456    .data               flash_ctrl.o
    0x20000021   COMPRESSED   0x00000003   PAD
    0x20000024   COMPRESSED   0x0000006a   Data   RW         3503    .data               key_ctrl.o
    0x2000008e   COMPRESSED   0x00000002   PAD
    0x20000090   COMPRESSED   0x0000003a   Data   RW         3541    .data               led_ctrl.o
    0x200000ca   COMPRESSED   0x00000002   PAD
    0x200000cc   COMPRESSED   0x000003fc   Data   RW         3594    .data               oled_ctrl.o
    0x200004c8   COMPRESSED   0x00000011   Data   RW         3656    .data               rs485_ctrl.o
    0x200004d9   COMPRESSED   0x00000003   Data   RW         3692    .data               step_motor_ctrl.o
    0x200004dc   COMPRESSED   0x0000000c   Data   RW         3729    .data               ws2812b_ctrl.o
    0x200004e8   COMPRESSED   0x00000007   Data   RW         4033    .data               oled_logic.o
    0x200004ef   COMPRESSED   0x00000001   PAD
    0x200004f0   COMPRESSED   0x00000004   Data   RW         4313    .data               debug_task.o
    0x200004f4   COMPRESSED   0x00000008   Data   RW         4346    .data               flash_task.o
    0x200004fc   COMPRESSED   0x00000006   Data   RW         4376    .data               key_task.o
    0x20000502   COMPRESSED   0x00000002   PAD
    0x20000504   COMPRESSED   0x00000004   Data   RW         4410    .data               led_task.o
    0x20000508   COMPRESSED   0x00000008   Data   RW         4443    .data               oled_task.o
    0x20000510   COMPRESSED   0x00000004   Data   RW         4477    .data               rs485_task.o
    0x20000514   COMPRESSED   0x00000008   Data   RW         4507    .data               step_motor_task.o
    0x2000051c   COMPRESSED   0x0000000b   Data   RW         4537    .data               ws2812b_task.o
    0x20000527   COMPRESSED   0x00000001   PAD
    0x20000528   COMPRESSED   0x00000020   Data   RW         4575    .data               heap_4.o
    0x20000548   COMPRESSED   0x0000000c   Data   RW         4652    .data               port.o
    0x20000554   COMPRESSED   0x00000040   Data   RW         5233    .data               tasks.o
    0x20000594   COMPRESSED   0x00000004   Data   RW         5506    .data               mc_w.l(rand.o)
    0x20000598        -       0x00000080   Zero   RW         3362    .bss                debug_ctrl.o
    0x20000618        -       0x00000046   Zero   RW         3455    .bss                flash_ctrl.o
    0x2000065e        -       0x00000080   Zero   RW         3654    .bss                rs485_ctrl.o
    0x200006de   COMPRESSED   0x00000002   PAD
    0x200006e0        -       0x00000020   Zero   RW         3727    .bss                ws2812b_ctrl.o
    0x20000700        -       0x0000004a   Zero   RW         4032    .bss                oled_logic.o
    0x2000074a        -       0x00002800   Zero   RW         4574    .bss                heap_4.o
    0x20002f4a   COMPRESSED   0x00000002   PAD
    0x20002f4c        -       0x0000012c   Zero   RW         5232    .bss                tasks.o
    0x20003078        -       0x00000400   Zero   RW          376    STACK               startup_at32f421.o


==============================================================================

Image component sizes


      Code (inc. data)   RO Data    RW Data    ZI Data      Debug   Object Name

       212         18         24         16          0       1707   adc_ctrl.o
       354          6          0          0          0       6344   at32f421_adc.o
       108          6          0          0          0      56554   at32f421_clock.o
      1224        158         40          0          0       7629   at32f421_crm.o
       216         16          0          0          0       3491   at32f421_dma.o
       264         38          0          0          0       3613   at32f421_flash.o
       214          0          0          0          0       3287   at32f421_gpio.o
      1028        110          0          0          0      11715   at32f421_int.o
       284         26          0          0          0      32274   at32f421_misc.o
       322          0          0          0          0       2603   at32f421_spi.o
       648          0          0          0          0       8208   at32f421_tmr.o
       318          6          0          0          0       5959   at32f421_usart.o
       172         18          8          2          0       2005   beep_ctrl.o
        72          8          0          0          0        529   beep_logic.o
       200         22          8          2        128       1868   debug_ctrl.o
        48         14          0          4          0        723   debug_task.o
         0          0          0          0          0      11224   event_groups.o
        92         24          8          0          0       1724   fan_ctrl.o
       114         10          0          5         70       2199   flash_ctrl.o
       712        152          0          0          0      14298   flash_logic.o
       452        138          0          8          0        934   flash_task.o
       756         74          0         32      10240       9227   heap_4.o
       480        184          0          0          0      11815   init.o
       208         30          8        106          0       3426   key_ctrl.o
       924        174          0          0          0       7515   key_logic.o
       224         30          0          6          0        847   key_task.o
       420         30         15         58          0       4030   led_ctrl.o
       346         14         15          0          0       9820   led_logic.o
       244         18          0          4          0        787   led_task.o
       148          0          0          0          0       3126   list.o
        52         18          0          0          0      13819   main.o
       462         38        648       1020          0      11822   oled_ctrl.o
         0          0       2048          0          0        659   oled_font.o
      7280       1254          0          7         74      15177   oled_logic.o
      1396        216          0          8          0       1489   oled_task.o
       690         66          0         12          0       9616   port.o
      1464         16          0          0          0      12309   queue.o
       276         40         48         17        128       2299   rs485_ctrl.o
      3052        312          0          0          0       4871   rs485_logic.o
       944        138          0          4          0       1099   rs485_task.o
        36          8        204          0       1024        772   startup_at32f421.o
       300         26         15          3          0       3648   step_motor_ctrl.o
       544         66          0          0          0       2695   step_motor_logic.o
        96         18          0          8          0        843   step_motor_task.o
       448         36         16          4          0       2080   system_at32f421.o
      3622        462          0         64        300      29181   tasks.o
       184         52         16         12         32       3166   ws2812b_ctrl.o
       174         12          0          0          0       2125   ws2812b_logic.o
       920         70          0         11          0       1199   ws2812b_task.o

    ----------------------------------------------------------------------
     32774       4172       3156       1428      12000     348350   Object Totals
         0          0         32          0          0          0   (incl. Generated)
        30          0          3         15          4          0   (incl. Padding)

    ----------------------------------------------------------------------

      Code (inc. data)   RO Data    RW Data    ZI Data      Debug   Library Member Name

        86          0          0          0          0          0   __dczerorl2.o
         0          0          0          0          0          0   entry.o
         0          0          0          0          0          0   entry10a.o
         0          0          0          0          0          0   entry11a.o
         4          0          0          0          0          0   entry12b.o
         8          4          0          0          0          0   entry2.o
         4          0          0          0          0          0   entry5.o
         0          0          0          0          0          0   entry7b.o
         0          0          0          0          0          0   entry8b.o
         8          4          0          0          0          0   entry9a.o
        30          0          0          0          0          0   handlers.o
        36          8          0          0          0         68   init.o
         0          0          0          0          0          0   iusefp.o
        30          0          0          0          0         68   llshl.o
        36          0          0          0          0         68   llsshr.o
        32          0          0          0          0         68   llushr.o
        36          0          0          0          0         68   memcpya.o
        36          0          0          0          0        108   memseta.o
      1160         50          0          0          0        420   printf8.o
        36         10          0          4          0        136   rand.o
        14          0          0          0          0         68   strlen.o
        98          0          0          0          0         92   uldiv.o
       334          0          0          0          0        148   dadd.o
       222          0          0          0          0        100   ddiv.o
       186          0          0          0          0        176   depilogue.o
        50          0          0          0          0         76   dfixui.o
        26          0          0          0          0         76   dfltui.o
       228          0          0          0          0         96   dmul.o

    ----------------------------------------------------------------------
      2706         76          0          4          0       1836   Library Totals
         6          0          0          0          0          0   (incl. Padding)

    ----------------------------------------------------------------------

      Code (inc. data)   RO Data    RW Data    ZI Data      Debug   Library Name

      1654         76          0          4          0       1164   mc_w.l
      1046          0          0          0          0        672   mf_w.l

    ----------------------------------------------------------------------
      2706         76          0          4          0       1836   Library Totals

    ----------------------------------------------------------------------

==============================================================================


      Code (inc. data)   RO Data    RW Data    ZI Data      Debug   

     35480       4248       3156       1432      12000     337522   Grand Totals
     35480       4248       3156        420      12000     337522   ELF Image Totals (compressed)
     35480       4248       3156        420          0          0   ROM Totals

==============================================================================

    Total RO  Size (Code + RO Data)                38636 (  37.73kB)
    Total RW  Size (RW Data + ZI Data)             13432 (  13.12kB)
    Total ROM Size (Code + RO Data + RW Data)      39056 (  38.14kB)

==============================================================================

