:020000040800F2
:10000000783400207D010008FF070008F70700088A
:10001000FB07000873070008150C0008000000002B
:10002000000000000000000000000000E5000008E3
:10003000F507000800000000290100080108000879
:100040009701000897010008970100089701000830
:100050009701000897010008970100089701000820
:1000600000000000790700089701000897010008C8
:1000700097010008970100089701000800000000A0
:1000800097010008150B000800000000A1080008F7
:100090009701000879090008510A00089701000833
:1000A0009701000897010008970100084D0B000810
:1000B000B10B00080000000000000000000000007C
:1000C000970100080000000097010008DFF810D039
:1000D00000F012FB00480047A5270008AFF300809E
:1000E00078340020224B19680868B0E8F00F80F3DC
:1000F0000988BFF36F8F4FF0000080F311884EF036
:100100000D0E70470000000006480068006880F38C
:10011000088862B661B6BFF34F8FBFF36F8F00DF01
:1001200000BF00BF08ED00E0EFF30980BFF36F8F61
:100130000F4B1A6820E9F00F106008B54FF0BF00B0
:1001400080F31188BFF34F8FBFF36F8F07F0E0FE8E
:100150004FF0000080F31188BDE808401968086876
:10016000B0E8F00F80F30988BFF36F8F704700BFCE
:1001700054050020EFF305807047000006488047D3
:1001800006480047FEE7FEE7FEE7FEE7FEE7FEE77C
:10019000FEE7FEE7FEE7FEE735080008CD000008B1
:1001A0002DE9F05F0546002092469B4688460646AC
:1001B000814640241BE0284641464746224600F03F
:1001C0001BFA53465A46C01A914110D3114618469D
:1001D000224600F002FA2D1A67EB01084F4622462C
:1001E0000120002100F0F9F917EB00094E41201E13
:1001F000A4F10104DFDC484631462A464346BDE807
:10020000F09F00000649074A0868504343F239024C
:1002100010440860400870470149086070470000BA
:10022000940500206D4EC64140EA01039B0703D0B0
:1002300009E008C9121F08C0042AFAD203E011F825
:10024000013B00F8013B521EF9D27047D2B201E0E7
:1002500000F8012B491EFBD270470022F6E710B5CB
:1002600013460A4604461946FFF7F0FF204610BD24
:10027000421C10F8011B0029FBD1801A70472DE9A0
:10028000FE4F804681EA0300C00F0C46009021F02B
:10029000004123F00045B8EB0200A94105D24046D9
:1002A000214690461C460B46024623F00040104370
:1002B00047D0270DC7F30A00C3F30A510290401A32
:1002C000019040286BDAC3F3130040F4801B0098C0
:1002D000924620B10023D2EB030A63EB0B0B01988B
:1002E0005946C0F14002504600F077F906460D46E7
:1002F00050465946019A00F08FF910EB0800614111
:10030000002487EA115284EAE7731A4340D0009A26
:1003100062B3019A012A4FEA075215DC001B61EB18
:1003200002014FF0004202EA0752CDE90042001CF0
:1003300041F5801132462B4600F08FF903B0BDE83D
:10034000F08F40462146F9E7001B61EB0201001CDB
:1003500041F5801300185B412018A2F5001747EB08
:10036000030140EAD570B6196D4111E06D084FEAFE
:10037000360645EAC0754FEA0752001B61EB0201E1
:10038000001C41F5801149084FEA30000019514125
:1003900032462B4603B0BDE8F04F00F04FB900984D
:1003A000012240000023D0EB020263EBE0730098CF
:1003B00021464FEAE074B8EB000061EB0401E9E785
:1003C00083F000435BE781F0004158E72DE9FE4FE1
:1003D00081EA030404F0004421F0004100944FF04E
:1003E000000B23F0004350EA01045ED052EA0304FC
:1003F0005BD0C3F30A54C1F30A552C44A4F2F3347E
:100400000194A0FB0254C1F3130141F48011C3F322
:10041000130343F4801301FB024400FB034E840AE0
:10042000970A44EA815447EA8357A4FB0768029578
:100430008D0A05FB07854FEA932C04FB0C54270516
:10044000029D4FEA065847EA1637B5EB08056EEBF2
:10045000070C870E920E47EA811742EA8312A7FB28
:100460000201B6EB0B0164EB00042B0D43EA0C33E5
:100470005E1844EB1C50DA465146E7FB0201C5F317
:1004800013044FEA0B3343EA14534FEA0432019C3E
:1004900043EA0603A4F10C040294009CCDE900B4E5
:1004A00000F0DBF803B0BDE8F08F00200146F9E76B
:1004B0002DE9F04D81EA030404F0004B21F00045E2
:1004C00014464FF0000A23F0004150EA050220D004
:1004D00054EA01021DD0C5F30A570246C5F31303BF
:1004E000C1F31300C1F30A5640F4801543F480139E
:1004F000A7EB0608101BD64608F2FD3873EB050083
:1005000002D308F1010801E092185B41B8F1000F35
:1005100003DA00200146BDE8F08D00204FF4801181
:10052000064684460EE0171B73EB050705D3121B26
:1005300063EB050306434CEA010C49084FEA30001F
:1005400092185B4150EA0107EDD152EA030012D044
:1005500082EA040083EA0501084305D0101BAB4181
:1005600006D20122002306E000224FF0004302E001
:100570006FF0010253101AEB06004CEB085110EB20
:100580000A0041EB0B01BDE8F04D00F057B80EB585
:1005900040F2334102910021CDE900110A460B4699
:1005A00000F05BF803B000BDC1F30A5210B5C1F30F
:1005B000130140F2FF3341F480119A4201DA002026
:1005C00010BD40F233439A42A2F2334203DC52425E
:1005D00000F012F810BD904010BD202A04DB203A34
:1005E00000FA02F1002070479140C2F1200320FA86
:1005F00003F3194390407047202A04DB203A21FA84
:1006000002F00021704721FA02F3D040C2F120022B
:100610009140084319467047202A06DBCB17203A41
:1006200041FA02F043EAE07306E041FA02F3D040F7
:10063000C2F12002914008431946704710B5141EBC
:1006400073F1000408DA401C41F1000192185B418B
:100650001A4301D120F0010010BD2DE9F04D924662
:100660009B4611B1B1FA81F202E0B0FA80F2203279
:100670009046FFF7B2FF04460F4640EA0A0041EAFF
:100680000B0153465A46084313D0114653EA010062
:1006900019D0C8F140025046FFF7AEFF05460E469E
:1006A000504659464246FFF798FF084305D00120BF
:1006B00004E020463946BDE8F08D0020054346EAB7
:1006C000E0762C4337430A986305E40AA0EB080060
:1006D0000022FD0A44EA47540A3002D500200146B0
:1006E000E9E7010510196941DDE90845001969418B
:1006F000BDE8F04DA2E70000064C074D06E0E068BB
:1007000040F0010394E8070098471034AC42F6D358
:10071000FFF7E0FCCC960008EC96000870B58C184A
:1007200010F8015B15F0070301D110F8013B2A1105
:1007300006D110F8012B03E010F8016B01F8016BF2
:100740005B1EF9D12B0705D40023521E0DD401F8EE
:10075000013BFAE710F8013BCB1A921C03E013F8B7
:10076000015B01F8015B521EF9D5A142D8D30020EC
:1007700070BD00BFFEE700002DE9FC5F022001F024
:100780002DF918B312490888FFF701FF80464FF092
:100790006632104BFFF71AFE064600220E4BFFF79B
:1007A00087FE04460D4A0E4BFFF70DFE82460D4AAA
:1007B0000D4BFFF77DFE00220C4BCDE90001FFF74A
:1007C0005EFD0B4A03C2022001F002F9BDE8FC9F66
:1007D0000800002066660A400000B040295C8FC215
:1007E000F528F43F33E197FA795371BF000039409F
:1007F00010000020704700BFFEE700BFFEE7704713
:1008000010B500BFBF2080F31188BFF34F8FBFF337
:100810006F8F00BF07F07AFF18B14FF08050044986
:10082000086000BF002080F3118800BF10BD0000E9
:1008300004ED00E01748006820F00100401C154955
:10084000086000BF13480068C0F340000028F9D0DA
:100850001048406820F003000E49486000BF0D4872
:100860004068C0F381000028F9D10A4800680A49AD
:100870000840084908600020486041F61070C862CE
:100880004FF4801008634FF41F008860C8030349C9
:100890000860704700100240FFFFF2FE08ED00E024
:1008A00010B50121324806F032FE00285ED03148F2
:1008B000407E00F00300002845D12E48407EC0F362
:1008C0008000F0B12B48C08941F2883188420EDAAD
:1008D0002848C089081A2749098A884207DB254821
:1008E000C0892449098A08442249C88124E041F288
:1008F00088302049C8810846407E20F004004876B0
:100900001AE01C48C08900280DDD1A48C089194921
:10091000098A884207DB1748C0891649098A401AA4
:100920001449C88108E000201249C8810846407E69
:1009300020F00400001D48760E4BDA89197E986875
:1009400006F0B2FD0EE00B48808A401C80B20949D7
:100950008882498A884205DB002006498882084649
:1009600001F0A0FD0121024806F0C3FD10BD00000A
:10097000002000409000002010B50121324806F010
:10098000C6FD00285ED03148407E00F003000028FC
:1009900045D12E48407EC0F38000F0B12B48C0897D
:1009A00041F2883188420EDA2848C089081A27495E
:1009B000098A884207DB2548C0892449098A0844F6
:1009C0002249C88124E041F288302049C881084684
:1009D000407E20F0040048761AE01C48C0890028B8
:1009E0000DDD1A48C0891949098A884207DB174872
:1009F000C0891649098A401A1449C88108E00020B4
:100A00001249C8810846407E20F00400001D487647
:100A10000E4BDA89197E986806F046FD0EE00B4809
:100A2000808A401C80B209498882498A884205DB55
:100A3000002006498882084601F034FD0121024861
:100A400006F057FD10BD000000440140AC0000203E
:100A500010B501212C4806F05AFD002852D0002480
:100A60004AE004EB8400294901EB8000007C00F09F
:100A70000100E0B304EB840001EB80008089401C9E
:100A800080B204EB8401214A02EB8101888104EBEE
:100A9000840102EB8101498988422BDB04EB84004D
:100AA000114601EB8000007C20F0010004EB840182
:100AB00002EB81010874002004EB840102EB810148
:100AC0008881022004EB840102EB8101887304EB2E
:100AD0008400114601EB8000C07B40B9022004EB8A
:100AE000840102EB8101C8730948008800E001E03D
:100AF00000F002FC601CC4B2052CB2DB01210248EC
:100B000006F0F7FC10BD0000004801402400002062
:100B10008C00002010B501210A4806F0F8FC80B1D5
:100B200009480088401E80B20749088028B900F0B3
:100B30004DFC0021034806F0D5FC0121014806F0D8
:100B4000D8FC10BD001000401800002010B5202176
:100B5000134806F0FBFDB8B11248007880B912487E
:100B6000007840280CDA0E4806F0DAFDC1B20E48D3
:100B700002780078401C0C4B18700C48815403E03C
:100B80002021074806F0D9FD1021054806F0DEFDBA
:100B900028B1034806F0C4FD01200249087010BDC9
:100BA000003801401B0000201A000020D80500205A
:100BB00010B52021134806F0C9FDB8B112480078DD
:100BC00080B91248007840280CDA0E4806F0A8FDDB
:100BD000C1B20E4802780078401C0C4B18700C48CB
:100BE000815403E02021074806F0A7FD10210548A5
:100BF00006F0ACFD28B1034806F092FD0120024941
:100C0000087010BD00440040D3040020D20400202E
:100C10009E06002000BFFEE70FB4084B10B504A9E4
:100C200002AA039800F01CF8044602A9002000F074
:100C300042FA204610BC5DF814FB0000B710000813
:100C400002E008C8121F08C1002AFAD17047704795
:100C5000002001E001C1121F002AFBD170470000F3
:100C60002DE9FF4F8DB00F460546002606E02528EA
:100C70000BD0DDE90F1290476D1C761C28780028F8
:100C8000F5D111B03046BDE8F08F0024A246A14650
:100C90000122E94900E0044315F8013F203B02FA34
:100CA00003F00842F7D128782A2810D06FF02F02DD
:100CB0002878A0F13001092914D80AEB8A0102EB47
:100CC000410144F0020400EB010A6D1CF0E701CF82
:100CD0005FEA000A03D544F40054CAF1000A44F064
:100CE00002046D1C28782E2817D115F8010F44F046
:100CF00004042A280ED06FF02F022878A0F13001CA
:100D000009290AD809EB890102EB410100EB01092D
:100D10006D1CF2E757F8049B6D1C28786C280FD0E7
:100D200006DC4C2817D068280DD06A2814D104E0BE
:100D3000742810D07A280FD10DE044F400140AE092
:100D400044F4801401E044F440146978814202D1F3
:100D500004F580146D1C6D1C28786E281ED00CDCE8
:100D6000632830D004DC00288BD0582811D19FE0B4
:100D7000642867D069280CD164E073282DD004DC86
:100D80006F2872D0702804D194E075286ED078282E
:100D90006DD0DDE90F129047761C4BE1C4F3025091
:100DA000022806D0032809D0042801CF09D0066004
:100DB00040E101CFF117C0E900613BE101CF0680BE
:100DC00038E1067036E117F8040B8DF800000020BA
:100DD0008DF80100EB46012003E057F804BB4FF00B
:100DE000FF3061074FF0000102D40DE008F101016E
:100DF000884649450FDA8045F8DB1BF808100029C2
:100E0000F4D108E008F1010188468142FADB1BF8C1
:100E100008100029F6D1DDE90F23AAEB080081466E
:100E2000214600F031F9304400EB080604E0DDE92A
:100E30000F121BF8010B9047B8F10108F7D22146B9
:100E40004846F2E00A21C4F302524FF0000B089129
:100E5000022A04D001CFC117032A09D00AE0FF1DDE
:100E600027F00707F7E8020108E02CE01EE01FE08A
:100E700000B2C117042A01D140B2C117021E71F19C
:100E8000000206DA0023D0EB030063EB01012D2200
:100E900002E0220504D52B228DF82420012203E054
:100EA000E20701D02022F7E7904653E00A210BE049
:100EB000102109E010214FF0000B44F004044FF022
:100EC0000809089103E008214FF0000B0891C4F3D2
:100ED0000252022A04D001CF0021032A06D006E0E4
:100EE000FF1D27F00707F7E8020103E080B2042A9C
:100EF00000D1C0B24FF0000822072BD52A78702A03
:100F000007D0DDF820C08CF0100C5CEA0B0C05D08B
:100F10000EE040228DF82420012208E050EA01036F
:100F200006D030238DF824308DF8252002229046FB
:100F3000089B83F0080353EA0B030BD150EA01022C
:100F400001D1620706D530228DF824204FF0010828
:100F5000A9F101092A78582A04D038A20B9208AACC
:100F60000A920BE03AA2F9E75B46089AFFF718F9F4
:100F70000B9B9B5C0A9A521E0A92137050EA010264
:100F8000F2D10A98ADEB000000F1200B600702D50A
:100F900024F4803401E04FF00109D94502DDA9EBCA
:100FA0000B0000E0002000EB0B0141440890AAEB8D
:100FB000010AE00306D4DDE90F232146504600F084
:100FC00063F806444FF0000908E009A911F8090088
:100FD000DDE90F12904709F10109761CC145F4DBE8
:100FE000E0030CD5DDE90F232146504600F04CF814
:100FF000064404E0DDE90F1230209047761C089982
:10100000481E08900029F5DC08E00A980A99007843
:10101000491C0A91DDE90F129047761CBBF10001D3
:10102000ABF1010BF1DC21465046DDE90F2300F066
:1010300019F806446D1C21E60928010030313233CD
:101040003435363738396162636465660000000004
:1010500030313233343536373839414243444546EE
:10106000000000002DE9F041044600251E46174609
:10107000880404D405E039462020B0476D1C641E66
:10108000F9D52846BDE8F0812DE9F0410446002558
:101090001E469046C80301D5302700E0202788046B
:1010A00004D505E041463846B0476D1C641EF9D5AD
:1010B0002846BDE8F0810A68531C0B601070704729
:1010C0000B78426863F3082242604B78826863F3CE
:1010D000410282608B78826863F3CB228260CA7897
:1010E000521EC36A62F31753C3627047816821F0CE
:1010F000080108318160704701468868C0F3C0006C
:1011000008B1012070470020FCE7816821F004014C
:10111000091D8160704701468868C0F3800008B1EE
:10112000012070470020FCE710B500F00BF810BD5F
:10113000826861F3082282607047826861F300026E
:101140008260704700B587B014222D4902A8FFF7CE
:101150006BF82B4814300068019001214FF4A01067
:1011600000F0C2FA274800F07FFC02A9254800F0F1
:1011700043FC022000F02CFC01220221214800F057
:1011800069FC01211F4800F01EFC01211E4800F0EF
:10119000ABFA022000F048F901A91C48FFF790FFC4
:1011A000072301221021194800F032F801220721FB
:1011B000164800F081F8012000F094F8012113484E
:1011C000FFF7B6FF01211148FFF7B7FF0F48FFF700
:1011D0008DFF00BF0D48FFF78FFF0028FAD10B48A5
:1011E000FFF793FF00BF0948FFF795FF0028FAD1EA
:1011F00000221146092001F0EFFA07B000BD0000FF
:101200009C930008080002400900180000240140D7
:1012100070B504460A290CDA206901EB410607255E
:10122000B540A84301EB410503FA05F528432061C9
:101230000FE0E068A1F10A0505EB45060725B5407A
:10124000A843A1F10A0505EB450503FA05F5284376
:10125000E0600D2A10DBE06AA2F10D0505EB8506C2
:101260001F25B540A843A2F10D0505EB850501FA40
:1012700005F52843E0621EE0072A0EDB206BD51F30
:1012800005EB85061F25B540A843D51F05EB850551
:1012900001FA05F5284320630DE0606B551E05EB50
:1012A00085061F25B540A843551E05EB850501FAA7
:1012B00005F52843606370BD072904DD836861F389
:1012C0005343836003E0836861F35343836083681F
:1012D00062F3145383607047826861F396528260B0
:1012E000704700000349096860F3D751014A116053
:1012F000704700000824014010B504460A2C01DAAA
:101300000A2404E041F28830844200DD04460A48A1
:10131000048000F063F80021084806F0E3F800219B
:10132000064806F0E4F80121044806F0E2F801213D
:10133000024806F0D7F810BD180000200010004049
:1013400010B500F003F800F041F810BD1CB51B49C2
:1013500003C9CDE900010121194800F0C5F969462A
:101360004FF0904000F000FE0121164800F0BCF95B
:1013700078224FF47A71144806F08EF80021124852
:1013800006F0ABF80021104806F0A2F801210E4843
:1013900006F0BFF901210C4806F0ABF80122114616
:1013A000094806F0A9F80021074806F09BF800223A
:1013B0001146112001F010FA1CBD0000B493000882
:1013C0001100140004001C000010004010B54FF480
:1013D00000414FF0904000F0C3FD10BD10B54FF438
:1013E00000414FF0904000F0BDFD10BDF0B5024649
:1013F0000B464FF6FF754AF201062846002110E021
:10140000545C6040002408E000F0010717B186EA50
:10141000600000E04010671CFCB2082CF4DB4C1CA0
:10142000A1B29942ECDBF0BD0649496860F38F3107
:10143000044A516082080349496862F31C71014AF9
:1014400051607047001002400349496860F307117A
:10145000014A51607047000000100240034949688A
:1014600060F30A21014A51607047000000100240F9
:101470000349496860F3CD21014A5160704700007B
:1014800000100240012807D10749496D21F03001C1
:101490003031054A516505E00349496D21F03001BD
:1014A000014A51657047000000100240052827D20C
:1014B000DFE800F0030A11181F00134A126861F3F5
:1014C0000002114B1A601CE00F4A126861F31042CF
:1014D0000D4B1A6015E00C4A126861F318620A4B52
:1014E0001A600EE0084A126A61F30002064B1A62A3
:1014F00007E0054A526A61F30002034B5A6200E0BA
:1015000000BF00BF70470000001002402DE9F04FFF
:1015100085B004460025AA46AB460026A946002011
:10152000049003900290019000F0DAF90090009886
:1015300020B1012812D0022875D112E05648406D22
:10154000C0F3402038B15448006BC0F3406010B184
:101550005248206001E05248206067E05048206017
:1015600064E04D484068C0F3004B4B48C06AC00F70
:1015700030BB49484068C0F3834547484068C0F3E2
:10158000417ABAF1000F01D10F2D04D14FEA0A10B0
:10159000401C054400E0AD1CBBF1000F03D14148E5
:1015A000684320603DE03C484068C0F3404018B1CB
:1015B0003C486843206034E039486843206030E0AC
:1015C0003548C06AC0F3031003903348C06AC0F3C3
:1015D000082002903048C06A00F007000190BBF17B
:1015E000000F02D12F48049009E02B484068C0F357
:1015F000404010B12B48049001E02948049001219B
:10160000019801FA00F0039900FB01FC029904988B
:10161000A0FB01700146624600233846FEF7C0FD7C
:10162000206003E0FFE71E48206000BF00BF1A48AB
:101630004068C0F303161C4810F80690206820FA92
:1016400009F0606014484068C0F30226174810F89B
:101650000690606820FA09F0E0600F484068C0F327
:10166000C226134810F80690606820FA09F0A060BE
:1016700009484068C0F3007607484068C0F38130ED
:1016800040EA86060B4810F80690A068B0FBF9F017
:10169000206105B0BDE8F08F00100240006CDC0254
:1016A00000127A0000093D00748B0008848B00084A
:1016B0008C8B0008948B000810B501460020094B64
:1016C00003EB1142126801F01F040123A3401A40EA
:1016D00001F01F040123A3409A4200D000E0012042
:1016E00010BD00000010024010B501290DD10E4BB5
:1016F00003EB1042126800F01F040123A3401A43B9
:10170000094C04EB10431A600CE0074B03EB10424A
:10171000126800F01F040123A3409A43024C04EB1B
:1017200010431A6010BD00000010024030B50246A0
:101730000020002372B9354C646824F48034334DA2
:101740006C6033482C46246B24F0007404F1007460
:101750002C6319E02D4C646824F4803404F5803443
:101760002A4D6C60012A06D12A482C46646824F46C
:1017700000346C6008E02648244C646824F400348B
:1017800004F50034214D6C60234CA04204D9234C55
:10179000A04201D2002326E0214CA04204D9214CD2
:1017A000A04201D201231EE01F4CA04204D91F4CCD
:1017B000A04201D2022316E01C4CA04204D91C4CCA
:1017C000A04201D203230EE01A4CA04204D91A4CC5
:1017D000A04201D2042306E0174CA04203D9174CC3
:1017E000A04200D20523094C646861F39544074D7B
:1017F0006C600D09054C646865F35E74034D6C60A4
:101800002C46E46A63F31A64EC6230BD00100240B7
:1018100000093D0000127A0060823B00404B4C0002
:1018200080584F00105E5F0094357700101B7F00DA
:1018300020BCBE00286BEE0030D73D01D8E9DC01AA
:101840001648006820F00100401C1449086000BFE1
:1018500012480068C0F340000028F9D00F484068E3
:1018600020F003000D49486000BF0C484068C0F3F9
:1018700081000028F9D10948006809490840074952
:1018800008600020486041F61070C8624FF4801074
:1018900008634FF41F00886070470000001002408A
:1018A000FFFFF2FE0D49496860F301010B4A5160E8
:1018B00000BF00BF00BF00BF00BF00BF00BF00BF30
:1018C00000BF00BF00BF00BF00BF00BF00BF00BF20
:1018D00000BF00BF00BF00BF704700000010024003
:1018E00002484068C0F381007047000000100240C9
:1018F00010B500F001F810BD1CB52A4903C9CDE9A7
:10190000000101212848FFF7EFFE69464FF09040A3
:1019100000F02AFB4FF48060009069464FF0904041
:1019200000F022FB01220921C80600F063FB01221E
:101930000A214FF0904000F05DFB01211B48FFF7AA
:10194000D3FE00211A4805F05AFF00231A464FF42F
:10195000E131174805F002FF0121154805F07AFF33
:101960000121134805F071FF2021114805F0E5FE23
:1019700010210F4805F0E1FE01220E490C4805F048
:1019800023FF01220B49491E094805F01DFF0121D3
:10199000074805F0CDFE002211461B2000F01CFF79
:1019A0001CBD0000BC930008110014000E001800BC
:1019B0000038014005000C0000E000BF011EA0F14E
:1019C0000100FAD17047026861F3000202607047BB
:1019D00001494860704700000000024001460020B5
:1019E0000022044B1A6802EA01030BB1012000E057
:1019F000002070470000024002684BF6EF731A4067
:101A0000026002680B891A4302604B7C026863F330
:101A10000D320260CB7B026863F38B2202608B7B0A
:101A2000026863F3092202604B7B026863F3C7120A
:101A300002600B7B026863F3861202600B7C026813
:101A400063F3451202604A8942600A6882604A680C
:101A5000C26070471AB103680B43036002E0036879
:101A60008B430360704700000021026822F00102EE
:101A700002600022026042608260C2600146CAB217
:101A8000083A1423B2FBF3F293000F229A40034B5F
:101A90005B681A43014B5A60704700000000024027
:101AA00010B500F003F800F015F810BD1CB506499C
:101AB00003C9CDE9000101210448FFF715FE69467D
:101AC000034800F051FA1CBDC49300081200140032
:101AD0000004004810B54FF40071024800F040FACD
:101AE00010BD00000004004810B54FF4007102481A
:101AF00000F038FA10BD0000000400482DE9F04164
:101B000005460F46164600F00FFA194800F032F865
:101B100020B100F075F80120BDE8F08141F212110A
:101B2000284600F0A3F818B100F06AF80220F3E7A5
:101B30003146A81C00F09AF818B100F061F80220B4
:101B4000EAE700240DE037F81410A21C05EB420070
:101B500000F08CF818B100F053F80220DCE7601CAC
:101B6000C4B2B442EFDB00F04BF80020D4E7000031
:101B700000FC000870B505460324C5F30900D0B980
:101B80004FF0804000F060F80446012C01D0022C98
:101B900003D1142000F012F803E0042C01D101203D
:101BA00070BD284600F0A0F90446032C01D00220A5
:101BB000F6E70020F4E70320F2E700000149C860DF
:101BC000704700000020024070B504460D46032611
:101BD0000A48006920F00100401C0849086125807E
:101BE0004FF4801000F030F806460448006920F0F9
:101BF000010002490861304670BD0000002002402B
:101C00000348006920F08000803001490861704776
:101C10000020024003200B49C96801F0010109B10D
:101C200000200EE00749C968C1F3800109B1012015
:101C300007E00449C968C1F3001109B1022000E0BE
:101C4000032070470020024000B502460323FFF73F
:101C5000E1FF034603E0FFF7DDFF0346521E0BB929
:101C6000002AF8D102B90423184600BD70B5044615
:101C70000D460748844208D30648844205D82946C1
:101C80002046FFF7A1FF002070BD0120FCE7000007
:101C900000FC0008FEFF000810B500246E48008814
:101CA00041F2121188427DD16B48801C00882328A4
:101CB000F9D146226849091D6848FEF7B5FA674818
:101CC00000886749088065484088664908806348FD
:101CD00000796549497E60F30101634841765F48B8
:101CE000C088614948825D48008908825B48807AE3
:101CF0005E49497E60F301015C484176574880891E
:101D00005A4948825548C08908825448007C58493D
:101D100008705248807C574908705048007D5649E9
:101D200008704E48807D554908704C48007E5449E3
:101D300008704A48408B534908804848007F524900
:101D400008704648807F51490870444890F8200048
:101D50004F490870414890F822004E4908703F48AA
:101D600090F824004C4908703C4890F826004B49F4
:101D700008703A4890F8280049490870374890F8A8
:101D80002A0048490870354890F82C0046490870E8
:101D9000324890F82E0045490870304890F83000DD
:101DA000434900E055E008702C4890F83200414962
:101DB00008702A4890F834003F490870274890F886
:101DC00036003E490870254890F838003C490870B4
:101DD000224890F83A003B4908702048C08F1F49BC
:101DE000898F40EA0140384908601C48B0F840003B
:101DF00036490880194890F842003549087017485C
:101E0000B0F84400000A33490870144890F84400C0
:101E10003149087000BF09E0304850F824002A49D1
:101E20000968884200D103E0601CC4B20A2CF3D3D5
:101E300000BF0A2C03D14FF4E13023490860124857
:101E4000007827490870204800682649086000206B
:101E500010BD0120FCE7000000FC0008180600206F
:101E60008A0000208C00002090000020AC000020A0
:101E7000C8000020C9000020C0040020C1040020C8
:101E8000C2040020B0040020C3040020DA040020B3
:101E9000DB040020DF040020E0040020E104002037
:101EA000DD040020E2040020E3040020E40400201C
:101EB000DE040020E5040020E6040020E704002002
:101EC000D4040020D5040020C8040020D004002041
:101ED0001E0000201F00002020000020EC930008BE
:101EE000C4040020CC04002030B5044603250D486E
:101EF000006920F00200801C0A490861084644611C
:101F0000006920F04000403008614804FFF79CFE63
:101F100005460448006920F002000249086128468D
:101F200030BD0000002002400248034948600348D9
:101F3000486070472301674500200240AB89EFCD20
:101F40000146002209B90120704705E0501CC2B2C9
:101F50000A2091FBF0F081B20029F7D11046F3E797
:101F6000816270478161704770B50A46002114880C
:101F7000A3B233E003F001046CB304684E00032500
:101F8000B540AC43046094794D00AC4005682C43E7
:101F90000460446801258D40AC4344604468157971
:101FA0008D402C43446084684E000325B540AC430B
:101FB0008460D4794D00AC4085682C438460C4684B
:101FC0004E000325B540AC43C46054794D00AC408D
:101FD000C5682C43C4605B104C1CA1B2002BC9DC4B
:101FE00070BD0246002013690B408B4200D000E018
:101FF00001207047F0B5002300244D07ED0E02FAD2
:1020000005F3CD105DB1456A4E07F70E0F26BE40B1
:10201000B5434562456A45EA030444620AE0056A3D
:102020004E07F70E0F26BE40B5430562056A45EA26
:1020300003040462F0BD000010B500F041F8322046
:1020400002490880C8200249088010BD8A0000208B
:102050008C000020144890F8370002280AD1002193
:10206000114880F8371011480078E0B1012010497C
:10207000087018E00C4890F83700012813D10021AF
:10208000094880F837100948007818B1012008493C
:10209000087008E00748007828B10748007810B1B8
:1020A00001200649087070472400002089000020A4
:1020B000C6040020B6040020B8040020BA040020A2
:1020C0001CB5274903C9CDE9000101212548FFF7C7
:1020D0000BFB69462448FFF747FF40200090694604
:1020E0002148FFF741FF2020009069461E48FFF776
:1020F0003BFF1020009069461B48FFF735FF082082
:10210000009069461848FFF72FFF01211748FFF795
:10211000EBFA4FF4966242F21071154805F0BCF9E3
:102120000021134805F0D9F90021114805F0D0F934
:1021300001210F4805F0EDFA01210D4805F0D9F90C
:10214000012211460A4805F0D7F90021084805F098
:10215000C9F900221146162000F03EFB1CBD00000C
:10216000CC9300081200140000040048120018006C
:1021700000480140184890F82300022811D100219E
:10218000154880F823101548007818B1012014492B
:1021900008701FE013480078E0B902201249087067
:1021A00018E00D4890F82300012813D100210A48B7
:1021B00080F823100948007818B1012008490870F8
:1021C00008E00A48007828B10948007810B10120D9
:1021D0000849087070470000240000208900002092
:1021E000C6040020B6040020D9040020B704002053
:1021F000BC040020BD04002010B52B4890F85F00FF
:10220000022833D10021284880F85F102748007841
:1022100088B1002025490870012025490870002058
:10222000244908702449087001F0D6FA2348006850
:1022300005F056FD36E02248007830B100202049F4
:10224000087001201C4908702CE01E48007818B95D
:1022500001201C49087025E01A48007810B31A487C
:102260000078F8B10220194908701BE00E4890F878
:102270005F00012816D100210B4880F85F1010483C
:10228000007818B101200B4908700BE00D48007868
:1022900040B10F48007810B90B48007810B1012008
:1022A0000A49087010BD000024000020BF0400206F
:1022B000C5040020C6040020C70400200805002033
:1022C00089000020B6040020BC040020BB040020CC
:1022D000B8040020184890F84B00022811D10021C2
:1022E000154880F84B101548007818B101201449A2
:1022F00008701FE013480078E0B901201249087007
:1023000018E00D4890F84B00012813D100210A482D
:1023100080F84B100948007818B10120084908706E
:1023200008E00A48007828B10948007810B1012077
:102330000849087070470000240000208900002030
:10234000C6040020B6040020D9040020B7040020F1
:10235000BC040020BE04002010B5044604B910BD22
:10236000207CC0F3800000283BD1A28891B2206875
:10237000FFF737FE217CC1F34001884231D10F20A5
:1023800005F066FBA28891B22068FFF72AFE217C47
:10239000C1F3400188424BD1207C20F00400001D95
:1023A00020742089401C20812248007878B122487E
:1023B000006800F0010050B900201E49087000219B
:1023C0001D4805F094F801211B4805F08BF8012009
:1023D000A0730020A081207C20F00100401C20740C
:1023E00026E0A28891B22068FFF7FBFD217CC1F3B3
:1023F000400188421CD0207C20F004002074002082
:10240000A081207C20F001002074A07B012808D14D
:10241000E07B30B90120E07308480088FEF76CFFCC
:1024200004E0A07B022801D10020E0730020A0730B
:1024300000BF94E788000020004801408A00002087
:102440001248C07B022809D100201049C8731048E7
:102450000078D0B101200F49087016E00B48C07B0E
:10246000012812D100200949C8730948007818B121
:1024700001200849087008E00748007828B107489B
:10248000007810B101200649087070472400002030
:1024900089000020C6040020B6040020B8040020F3
:1024A000B904002010B50446A28891B22068FFF755
:1024B00098FD18B9204600F0BBF802E0204600F075
:1024C000C5F810BD10B500F001F810BD1FB5514999
:1024D00003C9CDE902014F49083103C9CDE9000123
:1024E00001214D48FFF700F901214B48401CFFF73F
:1024F000FBF802A94FF09040FFF736FD4FF48070D3
:10250000029002A94548FFF72FFD042211464FF023
:102510009040FFF76FFD022208214048FFF76AFD57
:1025200001213F48FFF7E0F801213E48FFF7DCF8C2
:10253000782241F288313C4804F0AEFF00213A484D
:1025400004F0CBFF0021384804F0C2FF01213648D7
:1025500005F0DFF86A460021334805F005F841F23E
:1025600088320021304804F09FFF002211462E4897
:1025700004F0D9FF01212C4805F0C6F801212A48B2
:1025800004F0B7FF01221146274804F0B5FF0121EE
:10259000254804F0A7FF782241F28831234804F04F
:1025A0007BFF0021214804F098FF00211F4804F020
:1025B0008FFF01211D4805F0ACF86A4600211B4839
:1025C00004F0D2FF41F288320021184804F06CFF79
:1025D00000221146154804F0A6FF0121134805F01A
:1025E00093F80121114804F084FF012211460F489D
:1025F00004F082FF01210D4804F074FF002211460F
:10260000132000F0E9F800221146152000F0E4F84C
:102610001FBD0000D49300081100140000040048FE
:1026200008001C0011001800002000400044014078
:1026300010B50446607E00F0030000B910BDA2880A
:1026400091B22068FFF78EFC00BFF7E710B5044693
:10265000607E00F0030000B910BDA28891B220682E
:10266000FFF77EFC00BFF7E7427E02F0030202B9EB
:102670007047322901DA322104E0B1F5FA6F01DD49
:102680004FF4FA61418200BFF2E7427E02F003029A
:10269000012A00D170470A2901DA0A2102E06429DF
:1026A00000DD6421018200BFF4E700007FB504462D
:1026B0000D46394903C9CDE90201606802901DB990
:1026C00002208DF80E0002E001208DF80E00324944
:1026D000083103C9CDE900011DB901208DF80500BD
:1026E00002E000208DF8050002A92068FFF73CFCFD
:1026F00025B9E27DA17D2068FFF77CFC0021A06860
:1027000004F0F0FE217E6A46A06804F02DFFA28945
:10271000217EA06804F0C8FE204884420CD12DB967
:1027200041F28831A06804F0F9FF14E04FF47A71A7
:10273000A06804F0F3FF0EE0194884420BD12DB9D4
:1027400041F28831A06804F0E9FF04E04FF47A71A7
:10275000A06804F0E3FF0121A06804F0CAFE002194
:10276000A06804F0C4FE022D04D10021A06804F08A
:10277000B9FE03E00121A06804F0B4FE607E65F3B9
:1027800001006076A089E081607E20F00400607620
:102790000020A0827FBD00003C9400089000002033
:1027A000AC0000201CB503F035FC002001210346DD
:1027B0004022CDE9001004A1064805F077FF05F09E
:1027C000D7FA00201CBD00007461736B20696E692C
:1027D000740000001D6400082DE9F0470B46144604
:1027E0004FF0000C00BF2C4A1268C2F302211D46B4
:1027F00026460A46C2F10709B9F1040F02D94FF083
:10280000040901E0C2F10709C84602F10409B9F15F
:10281000070F02D24FF0000901E0A2F103094F4671
:102820004FF0010909FA08F9A9F1010909EA0509B6
:1028300009FA07F94FF0010A0AFA07FAAAF1010AA0
:102840000AEA060A49EA0A09CC4601466246002914
:1028500004DB15072E0E114D6E5407E015072F0EE1
:102860000D4D0C3501F00F06361FAF5500BF014668
:1028700000290DDB00BF00BF01F01F050122AA40A7
:102880004D09AD0005F1E025C5F8002100BF00BFEE
:1028900000BFBDE8F08700000CED00E000E400E0C0
:1028A00000BF00F00702064B19684FF6FF031940FE
:1028B000044B0B4343EA0221014B196000BF7047F0
:1028C0000CED00E00000FA0500BFBFF34F8F074892
:1028D000006800F4E06006490843001D03490860F1
:1028E000BFF34F8F00BF00BF00BFFDE70CED00E05E
:1028F0000000FA0570B5002419E004F1B001C8B277
:10290000002100F0ADFF0021084600F0A9FF0021E2
:10291000102000F0A5FF002505E00121002000F0B7
:102920009FFF681CC5B2802DF7DB601CC4B2042C6D
:10293000E3DB70BD10B501F00BF84FF4FA60064907
:1029400008804FF480610548FFF70CFB4FF40061ED
:102950000248FFF707FB10BDB00400200004004848
:102960002DE9F84304462021FE48FDF776FC1A2C99
:1029700079D2DFE804F00D1A273C49566B79869925
:10298000B9F0EFEEEDECEBEAE9E8E7E6E5E4E3E2E7
:102990000023F5A21946184601F092FEF648028877
:1029A000F6A1F048FEF738F983E30023F4A21946B4
:1029B000184601F085FEF6480288F0A1E948FEF7C6
:1029C0002BF976E30023F3A21946184601F078FEAE
:1029D000F348407E00F0030020B9F2A1E148FEF781
:1029E0001BF903E0F1A1DF48FEF716F961E30023CC
:1029F000F0A21946184601F063FEE948028ADFA1F9
:102A0000D848FEF709F954E30023EFA21946184607
:102A100001F056FEE248428AD8A1D248FEF7FCF8FF
:102A200047E30023ECA21946184601F049FEED48A1
:102A3000407E00F0030020B9DAA1CA48FEF7ECF8A6
:102A400003E0DAA1C748FEF7E7F832E30023E6A285
:102A50001946184601F034FEE248028AC7A1C1486F
:102A6000FEF7DAF825E323E30023E4A2194618462B
:102A700001F026FEDB48428AC0A1BA48FEF7CCF836
:102A800017E30023E1A21946184601F019FEE248B7
:102A9000007820B1E1A1B348FEF7BEF803E0E1A160
:102AA000B048FEF7B9F804E30023E0A2194618463F
:102AB00001F006FEE048007820B9E0A1A948FEF741
:102AC000ABF810E0DC480078012804D1DDA1A5486E
:102AD000FEF7A2F807E0D8480078022803D1DBA16E
:102AE000A048FEF799F8E4E20023D9A21946184657
:102AF00001F0E6FDD948007820B9C8A19948FEF751
:102B00008BF843E0D5480078012804D1D4A195483A
:102B1000FEF782F83AE0D1480078022804D1D1A12A
:102B20009048FEF779F831E0CC480078032813D1BB
:102B3000CDA18C48FEF770F828E0A6E292E27BE295
:102B400064E24DE23DE2F3E0C0E08DE06CE05EE087
:102B50004AE03CE028E01AE0C0480078042804D1AC
:102B6000C2A18048FEF758F810E0BC48007805285C
:102B700004D1BFA17B48FEF74FF807E0B7480078C3
:102B8000062803D1BBA17748FEF746F891E200235F
:102B9000B9A21946184601F093FDBB48028877A1F7
:102BA0007048FEF739F884E20023B8A219461846A7
:102BB00001F086FDBA48007820B1BAA16948FEF755
:102BC0002BF803E0B9A16748FEF726F871E200236D
:102BD000B8A21946184601F073FDB9480278B9A1A8
:102BE0006048FEF719F864E20023B8A219461846B7
:102BF00001F066FDB848007820B9B8A15948FEF741
:102C00000BF803E0B7A15748FEF706F851E200239E
:102C1000B6A21946184601F053FDB84857A10268FC
:102C20005048FDF7F9FF44E20023B5A219461846C3
:102C300001F046FDB748007820B9B7A14948FDF733
:102C4000EBFF10E0B3480078012804D1B4A1454857
:102C5000FDF7E2FF07E0AF480078022803D1B1A1F9
:102C60004048FDF7D9FF24E20023AFA219461846D9
:102C700001F026FDB048007820B9B0A13948FDF731
:102C8000CBFF22E0AC480078012804D1ADA1354843
:102C9000FDF7C2FF19E0A8480078022804D1ABA1D3
:102CA0003048FDF7B9FF10E0A3480078032804D1AD
:102CB000A8A12C48FDF7B0FF07E09F480078042842
:102CC00003D1A6A12748FDF7A7FFF2E10023A6A2A2
:102CD0001946184601F0F4FCA848007820B9A8A1CC
:102CE0002048FDF799FF22E0A4480078012804D18C
:102CF000A6A11C48FDF790FF19E0A0480078022823
:102D000004D148A11748FDF787FF10E09B480078E1
:102D1000032804D14DA11348FDF77EFF07E0974833
:102D20000078042803D19BA10E48FDF775FFC0E190
:102D300000239BA21946184601F0C2FC00229B4BBF
:102D40009B4903C9FDF742FB0646FDF72DFC6421B4
:102D5000B0FBF1F201FB1205954903C9FDF724FC14
:102D6000804627E1200700204B657920636C69636A
:102D70006B206265657000008A00002025750000E8
:102D80004B6579206C6F6E6720626565700000008E
:102D90008C0000204C454431206D6F6465000000BC
:102DA000900000206272656174680000626C696E58
:102DB0006B0000004C4544312062726561746820EC
:102DC00073746570000000004C45443120626C69EA
:102DD0006E6B2066726571004C454432206D6F64E5
:102DE00065000000AC0000204C4544322062726552
:102DF0006174682073746570000000004C454432B3
:102E000020626C696E6B2066726571004F4C4544A0
:102E10002064697200000000C004002072657665BD
:102E2000727365006E6F726D616C00004F4C4544AB
:102E3000206C696768740000C104002068696768D5
:102E4000000000006D6964646C6500006C6F7700C1
:102E50004F4C454420637572736F7200C2040020AA
:102E60003E0000002A000000400000002D3E00004F
:102E70003C2D00005B205D004F4C45442072656690
:102E800072657368206D7300B00400204F4C454498
:102E9000206D656E75206E756D62657200000000B4
:102EA000C3040020626C616E6B00000073686F7772
:102EB000000000005253343835204944000000001F
:102EC000D5040020252330347800000052533438D4
:102ED00035206D6F64650000D4040020616374695F
:102EE00076650000706173736976650052533438FB
:102EF000352062617564726174650000C804002049
:102F000053746570206D6F746F7220737461746593
:102F100000000000D904002073746F7000000000EE
:102F2000637700006363770053746570206D6F747E
:102F30006F72206D6F646500DA04002066756C6C3A
:102F40000000000068616C6600000000717561722D
:102F500074657200656967687468000073697874E5
:102F600065656E746800000053746570206D6F7441
:102F70006F7220737065656400000000DB04002040
:102F8000756C7472612D6661737400006661737490
:102F900000000000756C7472612D6C6F770000008A
:102FA00054656D70657261747572650000005940FA
:102FB000100000202B46424647A14948FDF72CFE51
:102FC00077E0002347A21946184601F079FB00205C
:102FD0000723024645A100904148FDF71DFE68E029
:102FE000002345A21946184601F06AFB47480078BD
:102FF00000044749097840EA01204649097840EA37
:10300000010245A13648FDF707FE52E0002344A225
:103010001946184601F054FB45480078000445491C
:10302000097840EA01204449097840EA01023AA1BE
:103030002B48FDF7F1FD3CE0002340A2194618465D
:1030400001F03EFB4148007800044149097840EA1C
:1030500001204049097840EA01022FA12048FDF7EC
:10306000DBFD26E000233CA21946184601F028FBB0
:103070003D48007820B93DA11948FDF7CDFD03E09A
:103080003CA11748FDF7C8FD13E000233BA21946F9
:10309000184601F015FB3E48007820B933A11048CE
:1030A000FDF7BAFD03E033A10D48FDF7B5FD00E0E3
:1030B00000BF00BF00230A4A0221184601F000FBAE
:1030C0003448007828B101234C220221782001F0F5
:1030D000B7FABDE8F88300002532752E2532750059
:1030E0002007002056657273696F6E007625752E75
:1030F00025752E2575000000575332383132422095
:1031000073746F702072676200000000DF0400209B
:10311000E0040020E10400203078253036780000FB
:103120005753323831324220637720726762000091
:10313000E2040020E3040020E40400205753323866
:10314000313242206363772072676200E504002019
:10315000E6040020E7040020575332383132422081
:103160006377206D6F646500DD04002072616E641A
:103170006F6D00006669786564000000575332384F
:1031800031324220636377206D6F64650000000078
:10319000DE0400208900002070B50446FF250120D0
:1031A000FE490870FE48007890B194F905000028A7
:1031B00003DD6079401E40B2607194F90700002879
:1031C00003DDE079401E40B2E0710020F449087050
:1031D000F4480078D0B194F905102079401E81425E
:1031E00003DA6079401C40B2607194F9070001284D
:1031F00009DA94F9070094F90510884203DAE079B6
:10320000401C40B2E0710020E6490870E6480078B2
:10321000002839D094F905102079401E81420DD143
:10322000E2480078002805DDE0480078401EDF49CC
:10323000087019E00020DE49087015E094F90510C7
:10324000206800EBC100007928B1D8480078401C04
:10325000D649087008E0D5480078002804DDD34836
:103260000078401ED149087065790020E0716071D6
:10327000401E2072A0710020C8490870CA49087019
:10328000FFF738FB284670BD94F9060094F9051045
:10329000884205D194F9080094F90710884205D0B6
:1032A000FFF728FB6079A071E0792072C1480078AF
:1032B000072876D2DFE800F004173B5F84A8CC0033
:1032C00094F9050094F90710401A216851F830204C
:1032D000E07908B9012000E00020034600210846FB
:1032E00001F0EEF9FFE0E07998B994F9050094F95E
:1032F0000710401A216851F8302000231946082091
:1033000001F0DEF900233E221946184601F098F933
:103310000CE094F9050094F90710401A216851F85F
:10332000302000231946184601F0CAF9DBE0E079A5
:1033300098B994F9050094F90710401A216851F8DA
:10334000302000231946082001F0BAF900232A2270
:103350001946184601F074F90CE094F9050094F947
:103360000710401A216851F83020002319461846EA
:1033700001F0A6F9B7E0E079A0B994F9050094F955
:103380000710401A216851F8302000231946082000
:1033900001F096F9002340221946184601F050F931
:1033A0000DE08DE094F9050094F90710401A2168AA
:1033B00051F8302000231946184601F081F992E0B7
:1033C000E07998B994F9050094F90710401A21683A
:1033D00051F8302000231946102001F071F9002324
:1033E00075A21946184601F06BF90CE094F9050036
:1033F00094F90710401A216851F83020002319462B
:10340000184601F05DF96EE094F9050094F9071093
:10341000401A216851F8302000231946184601F05F
:103420004FF9E07990B994F9051094F90720891AB9
:10343000226852F83100FCF71BFFC006060E00237D
:103440005EA21946304601F03BF900E000BF4AE0B9
:10345000E07938BB94F9050094F90710401A216807
:1034600051F8302000231946082001F029F90023E3
:103470005B221946184601F0E3F894F9051094F917
:103480000720891A226852F83100FCF7F1FE082162
:1034900001EBC000C6B200235D221946304601F0A0
:1034A000CFF80CE094F9050094F90710401A216850
:1034B00051F8302000231946184601F001F912E0B6
:1034C00094F9050094F90710401A216851F830204A
:1034D000E07908B9012000E00020034600210846F9
:1034E00001F0EEF800BF00BF2079012868DD314807
:1034F000007807287BD2DFE800F004183F7BA2CADF
:10350000F30094F9050094F90710401A401C216853
:1035100051F83020E07908B1012000E00020034696
:103520000221002001F0CCF82AE1E079012814D131
:1035300094F9050094F90710401A401C216851F8CD
:10354000302000230221082001F0BAF800233E2297
:103550000221184601F074F80DE094F9050094F981
:103560000710401A401C216851F830200023022126
:10357000184601F0A5F803E1E079012828D194F973
:10358000050094F90710401A401C216851F83020BA
:1035900000230221082001F093F812E0B804002073
:1035A000B9040020BA040020BB040020B7040020A6
:1035B000B6040020C20400202D3E00003C2D000077
:1035C000DFE000232A220221184601F039F80DE03D
:1035D00094F9050094F90710401A401C216851F82D
:1035E000302000230221184601F06AF8C8E0B3E059
:1035F000E079012814D194F9050094F90710401AD4
:10360000401C216851F8302000230221082001F0DD
:1036100057F8002340220221184601F011F80DE06E
:1036200094F9050094F90710401A401C216851F8DC
:10363000302000230221184601F042F8A0E0E07992
:10364000012815D194F9050094F90710401A401C7F
:10365000216851F8302000230221102001F030F8B9
:103660000023AFF2AC020221184601F029F80DE068
:1036700094F9050094F90710401A401C216851F88C
:10368000302000230221184601F01AF878E094F95E
:10369000050094F90710401A401C216851F83020A9
:1036A00000230221184601F00BF8E079012815D11A
:1036B00094F9051094F90720891A491C226852F8D8
:1036C0003100FCF7D5FDC006060E0023AFF2141240
:1036D0000221304600F0F4FF01E001E000BF4FE0BE
:1036E000E079012829D194F9050094F90710401ACE
:1036F000401C216851F8302000230221082000F0EE
:10370000DFFF00235B220221184600F099FF94F9A5
:10371000051094F90720891A491C226852F83100D3
:10372000FCF7A6FD082101EBC000C6B200235D2214
:103730000221304600F084FF0DE094F9050094F971
:103740000710401A401C216851F830200023022144
:10375000184600F0B5FF13E094F9050094F907103E
:10376000401A401C216851F83020E07908B101204E
:1037700000E0002003460221002000F0A1FF00BF6E
:1037800000BF0B48007888B90A48002101604160F9
:10379000018194F90500421C07A10648FDF73CFA97
:1037A0000023044A0221702000F08AFF28466AE5BF
:1037B000C3040020400700202532750010B5002109
:1037C0008D2000F04DF80021102000F049F8002174
:1037D000AE2000F045F810BD10B500218D2000F09E
:1037E0003FF80021142000F03BF80021AF2000F04A
:1037F00037F810BD70B505464FF400611748FEF765
:10380000AFFB0520FEF7D8F8002424E005FA04F009
:1038100000F0800028B14FF480611048FEF7A2FB51
:1038200004E04FF480610D48FEF79AFB0520FEF797
:10383000C3F84FF400610948FEF794FB0520FEF73A
:10384000BBF84FF400610548FEF78AFB0520FEF740
:10385000B3F8601CC4B2082CD8DB70BD000400486B
:1038600070B505460C4600F017F87820FFF7C2FF48
:1038700000F052F81CB90020FFF7BCFF02E0402026
:10388000FFF7B8FF00F048F82846FFF7B3FF00F055
:1038900043F800F025F870BD10B54FF400610F48F3
:1038A000FEF760FB0520FEF787F84FF480610B48B8
:1038B000FEF758FB0520FEF77FF84FF480610748BC
:1038C000FEF74EFB0520FEF777F84FF40061034842
:1038D000FEF746FB0520FEF76FF810BD0004004818
:1038E00010B54FF400610B48FEF73CFB0520FEF7D6
:1038F00063F84FF480610748FEF732FB0520FEF7BE
:103900005BF84FF480610348FEF72CFB0520FEF7BF
:1039100053F810BD0004004810B54FF400610B4887
:10392000FEF71EFB0520FEF747F84FF4006107483D
:10393000FEF718FB0520FEF73FF84FF4006103483F
:10394000FEF70EFB0520FEF737F810BD0004004817
:103950001CB50A4903C9CDE9000101210848FDF75A
:10396000C3FE69460748FEF7FFFA4FF40060009077
:1039700069460448FEF7F8FA1CBD0000E49300080D
:10398000120014000004004810B51748007810B168
:10399000012825D111E015490968C82314220868B7
:1039A0001349098800F0A2FC04464FF6FF708442D8
:1039B00000D116E00E48048013E00C4909684FF46A
:1039C000FA63C82288680B49098800F08FFC044616
:1039D0004FF6FF70844200D103E00648048000E007
:1039E00000BF00BF10BD0000B3040020D8030020BA
:1039F0008A0000208C00002010B52748007810B104
:103A0000012846D100E000BF2448FFF7C5FB244948
:103A1000087008460078032802D0042836D11AE03E
:103A20001D48007848B91F48407E00F00300022876
:103A300003D101201C4908700CE0174800780128C8
:103A400008D11A48407E00F00300022802D101206C
:103A5000174908701BE01048007848B91148407EAB
:103A600000F00300022803D100200F4908700CE089
:103A700009480078012808D10C48407E00F0030076
:103A8000022802D100200A49087000E000BF00BFF0
:103A900000E000BF00BF10BDB3040020F003002011
:103AA000B404002090000020C8000020AC000020DA
:103AB000C900002010B54F48007806287DD2DFE805
:103AC00000F09603295D6B804B48FFF765FB4B497F
:103AD00008700846007810B1012818D10BE00021C9
:103AE000C820FFF7BDFE0021A120FFF7B9FE00208E
:103AF000434908700CE00021C020FFF7B1FE00210F
:103B0000A020FFF7ADFE01203D49087000E000BF96
:103B100000BF6DE03B48FFF73FFB3849087008469F
:103B2000007820B101280ED0022824D117E000210E
:103B30008120FFF795FE0021FA20FFF791FE00207B
:103B40003149087018E000218120FFF789FE00212B
:103B50009620FFF785FE01202B4908700CE000211C
:103B60008120FFF77DFE00213220FFF779FE022041
:103B70002549087000E000BF00BF39E02348FFF787
:103B80000BFB1E49087008460078FF2803D0084642
:103B900000781F4908702BE01E4909684EF6602323
:103BA0004FF47A72086A1C49098800F09FFB0446AA
:103BB0004FF6FF70844201D11AE018E016480480E5
:103BC00016E01648FFF7E8FA0C4908700846007836
:103BD00010B1012808D103E000201149087004E069
:103BE00001200F49087000E000BF00BF00E000BFE7
:103BF00000BF10BDB304002014040020B404002052
:103C0000C004002020040020C10400202C04002057
:103C1000C204002008040020B00400203804002062
:103C2000C304002010B55048007830B101281AD0E4
:103C300002282FD003287CD17FE04C48FFF7ACFA54
:103C40004B4908700846007810B1012808D103E0FC
:103C500000204849087004E001204649087000E04F
:103C600000BF00BF7EE040480078012811D14249E2
:103C70000968FF23012288684049097800F036FB73
:103C800004464FF6FF70844200D16BE03B490C7054
:103C900000BF67E03A48FFF77FFA354908700846E9
:103CA00000780A2835D2DFE800F0050A0F14191D44
:103CB00022272C304FF41650324908602AE04FF486
:103CC00096403049086025E04FF416402D490860C1
:103CD00020E04FF461402B4908601BE02A48294945
:103CE000086017E04FF4E1302649086012E04FF415
:103CF0006130244908600DE04FF4E120214908605B
:103D000008E022481F49086004E021481D49086076
:103D100000E000BF00BF00211E4803F009FD0023A2
:103D20001A46184801681B4803F018FD012119487C
:103D300000E016E003F0FCFC14E00F49096841F2D2
:103D400088334FF47A7288691349098800F0CEFAF3
:103D500004464FF6FF70844200D103E00E48048011
:103D600000E000BF00BF10BDB304002050040020DD
:103D7000B4040020D404002044040020D504002012
:103D80005C040020C80400203024010020A10700AA
:103D900000CA080000440040D004002010B51E48AE
:103DA000007810B1012834D124E01C48FFF7F4F961
:103DB0001B49087008460078052818D2DFE800F093
:103DC00003070B0F1300002002F04CF810E0012055
:103DD00002F048F80CE0022002F044F808E003206A
:103DE00002F040F804E0042002F03CF800E000BFDC
:103DF00000BF0FE00B48FFF7CFF9094908700846EC
:103E00000078FF2800D105E00548007802F09AF814
:103E100000E000BF00BF10BDB30400207404002008
:103E2000B40400208004002010B51448007820B1AC
:103E3000012808D002281ED106E01148FFF7ACF98E
:103E40001049087018E000BF0F48FFF7A5F90D49A9
:103E500008700846007858B908480078012803D14E
:103E600000200A49087002E000200949087000E0BB
:103E700000BF00BF00E000BF00BF10BDB3040020C2
:103E8000A4040020B404002098040020DD040020D5
:103E9000DE04002010B55E48007810B1012876D10C
:103EA00000E000BF5B48007820B1012845D002281F
:103EB0006ED174E05848FFF76FF95849087008460A
:103EC000007820B1012813D0022833D121E05048D6
:103ED000007820B900215248FEF7E8FB07E04C4883
:103EE0000078012803D100214E48FEF7DFFB22E0D5
:103EF0004748007820B901214948FEF7D7FB07E081
:103F000043480078012803D101214648FEF7CEFB43
:103F100011E03F48007820B902214148FEF7C6FB76
:103F200007E03B480078012803D102213D48FEF715
:103F3000BDFB00E000BF00BF64E03548007898B9E1
:103F4000374A118A384A1268642390680A2200F0BE
:103F5000CDF904464FF6FF70844200D152E021466D
:103F60002F48FEF792FB19E029480078012815D167
:103F70002C4A118A2C4A1268642390680A2200F0A5
:103F8000B5F904464FF6FF70844202D13AE03BE0B7
:103F900037E021462348FEF778FB00BF32E01C489B
:103FA0000078A0B91E4A518A1F4A12684FF4FA637A
:103FB0001069322200F09AF904464FF6FF708442ED
:103FC00000D11FE021461648FEF74EFB18E01048CE
:103FD0000078012814D1134A518A134A12684FF409
:103FE000FA631069322200F081F904464FF6FF703F
:103FF000844200D106E021460A48FEF735FB00BFA7
:1040000000E000BF00BF00E000BF00BF10BD000027
:10401000B3040020B4040020FC030020B5040020F9
:1040200090000020AC000020F003002010B53A48BA
:10403000007820B101284FD0022869D14DE03748DF
:10404000007820B1012818D0022842D12BE0324854
:10405000007888B932490968FF230022086831498D
:10406000097800F043F904464FF6FF70844200D10E
:1040700030E02C490C7000BF2CE02748007888B94C
:1040800027490968FF23002288682749097800F03A
:104090002DF904464FF6FF70844200D11AE0224900
:1040A0000C7000BF16E01C48007888B91C490968EC
:1040B000FF23002208691D49097800F017F904461A
:1040C0004FF6FF70844200D104E018490C7000BF25
:1040D00000E000BF00BF1CE000BF104800780128CE
:1040E00013D10D480078012802D11149087006E06B
:1040F00009480078022802D101200E4908700848BA
:10410000FFF74AF80C49087000E000BF00BF00E06C
:1041100000BF00BF10BD0000B3040020B4040020A5
:10412000A4040020DF040020E0040020E1040020BB
:10413000DD040020DE040020B504002010B5534843
:104140000078012802D002287AD100E000BF504850
:104150000078012875D14F48007820B101282FD070
:1041600002286FD159E049480078012811D14A4905
:104170000968FF23002208684849097800F0B6F86A
:1041800004464FF6FF70844200D177E043490C703B
:1041900015E03E480078022811D13F490968FF2305
:1041A000002208683E49097800F0A0F804464FF65E
:1041B000FF70844200D161E039490C7000BF5DE0BE
:1041C00032480078012811D133490968FF230022C1
:1041D00088683449097800F089F804464FF6FF7082
:1041E000844200D14AE02F490C7015E0274800783E
:1041F000022811D128490968FF23002288682A492A
:10420000097800F073F804464FF6FF70844200D13D
:1042100034E025490C7000BF30E01C4800780128CC
:1042200014D11D490968FF23002208691F49097834
:1042300000F05CF804464FF6FF70844203D11DE0A5
:1042400021E01DE019E019490C7015E00F480078D5
:10425000022811D110490968FF2300220869144976
:10426000097800F043F804464FF6FF70844200D10D
:1042700004E00F490C7000BF00E000BF00BF00E089
:1042800000BF00BF00E000BF00BF10BDB3040020AE
:10429000B4040020B5040020A4040020E20400209F
:1042A000E5040020E3040020E6040020E4040020EC
:1042B000E704002070B504460D46782C00DD782414
:1042C000032D00DD032505F1B001C8B20021FFF781
:1042D000C7FA102141EA14100021FFF7C1FA04F0D7
:1042E0000F000021FFF7BCFA70BD00002DE9F0417E
:1042F00006460F4615461C464FF000080EB1A54273
:1043000003DB4FF6FF70BDE8F081BF4800884FF631
:10431000FF71884213D1BC4807800088FDF710FE6A
:10432000BA490870BA490870B74800880A2190FB5A
:10433000F1F090FBF1F201FB1200B6490870012088
:10434000B5490870B5480078E0B1AF480088A84288
:1043500014DDAD480088401EAB490880084600883F
:10436000FDF7EEFDAA490870A8490978884205D0F2
:10437000A7480078A5490870FEF7BCFA0020A749B5
:10438000087052E0A64890F8220002284AD1A548B9
:10439000007828449C490988884207DC9A480088AC
:1043A000A0490978401A9849088008E09648008892
:1043B000A84204DD94480088401E93490880924832
:1043C0000088FDF7BDFD9249087090490978884240
:1043D00005D08F4800788D490870FEF78BFA8A481F
:1043E0000088642190FBF1F00A2190FBF1F201FBBF
:1043F000120088490978884217D0834800880A212A
:1044000090FBF1F090FBF1F201FB12008149087082
:1044100084480078FF2808DA82480078401C8149E7
:10442000087002E001207F4908707F480078E0B101
:1044300075480088A04214DA73480088401C72490D
:10444000088008460088FDF77BFD714908706F49B8
:104450000978884205D06E4800786C490870FEF7EC
:1044600049FA00207049087056E06D4890F84A00FB
:1044700002284ED16D48007884420EDB6B480078EC
:10448000201A61490988884207DB5F48008867492C
:10449000097808445C49088008E05B480088A0422D
:1044A00004DA59480088401C57490880564800885B
:1044B000FDF746FD5649087054490978884205D0F1
:1044C0005348007851490870FEF714FA4E480088A6
:1044D000642190FBF1F00A2190FBF1F201FB120044
:1044E0004C490978884217D0474800880A2190FB38
:1044F000F1F090FBF1F201FB1200464908704B48C5
:104500000078FF2808DA49480078401C47490870BD
:1045100002E001204549087045480078F8B1444858
:104520000078012803D13848B0F8008001E04FF648
:10453000FF784FF6FF703449088000203649087034
:104540003B4908703B480078002804DD3948007872
:10455000401E38490870FEF7CDF94046D3E62021C9
:104560003548FBF77AFE2848028834A13248FCF728
:1045700053FB002332461946184600F0A1F80023E9
:104580003C220221184600F05BF800233E22022163
:10459000782000F055F81C4800880A2806DA012324
:1045A000254A02213C2000F08BF829E016480088BB
:1045B000642806DA0123204A0221382000F080F81E
:1045C0001EE011480088B0F57A7F06DA01231A4A06
:1045D0000221342000F074F812E00B48008842F207
:1045E0001071884206DA0123134A0221302000F0BC
:1045F00067F805E00123104A02212C2000F060F842
:104600004FF6FF707FE60000E8040020ED04002074
:10461000EC040020EE040020BC040020BD040020B7
:1046200024000020EA040020BE040020EB04002047
:10463000BB040020B70400200007002025750000FF
:104640002DE9F04780460E46144699467F2C00DD42
:104650007F24B8F1780F03DD4FF00008B01CC6B21C
:10466000022E00DD0026002524E07019C1B240466C
:10467000FFF720FE002719E0B9F1000F0BD0E90089
:1046800001EB041139440D4A515CC943C8B2012100
:10469000FFF7E6F808E0E90001EB04113944074AA6
:1046A000505C0121FFF7DCF8781CC7B2082FE3DB70
:1046B000681CC5B2022DD8DBBDE8F0879C8B0008D2
:1046C0002DE9F04105460E461446984600270CB9E0
:1046D000BDE8F08112E0782D02DD0025B01CC6B2E5
:1046E000022E00DD002638467F1C225C4346314600
:1046F0002846FFF7A5FF05F10800C5B2E05D0028D8
:10470000E9D100BFE4E700002DE9F04105460E467F
:104710001C4807681C480068001D03F0A0F850B949
:104720001948006890F82C10012088401749096842
:10473000814316480160681C38B936B112480168D7
:10474000091D134803F0C9F81AE07C190E480068E7
:104750004460BC4207D20C480168091D0D4800683E
:1047600003F0A1F80CE008480168091D0A48006838
:1047700003F099F809480068844201D207480460B0
:10478000BDE8F08168050020540500206C0500207C
:10479000643000205C0500205805002084050020BE
:1047A00010B5044603F0A6F823480068401C2249CF
:1047B00008602248006840B9204804600846006844
:1047C00001280DD100F07CF90AE01D48006838B9D5
:1047D0001A480068C06AE16A884201D81748046034
:1047E00018480068401C1749086094F82C100120F4
:1047F000884015490968084313490860E16A01EBDC
:104800008101124A02EB8100211D03F066F803F0DA
:104810009BF80B48006868B108480068C06AE16A04
:10482000884207D24FF0805009490860BFF34F8F8C
:10483000BFF36F8F10BD00006405002054050020F9
:1048400070050020800500206C0500204C2F002002
:1048500004ED00E010B516E003F04CF80C48C06819
:10486000C468201D02F0FBFF0A480068401E094989
:10487000086009480068401E0749086003F064F8B2
:10488000204600F04AF8044800680028E4D110BD32
:104890005030002064050020600500202DE9F04123
:1048A00004460F4615464FF00008A66B206C48B929
:1048B000206800282CD1A06803F0CCFF804600209F
:1048C000A06025E07DB93946226C6068FBF7ACFC3E
:1048D000216C606808446060D4E90101884217D304
:1048E0002068606014E03946226CE068FBF79CFCAD
:1048F000216CE068411AE1602168E068884203D2D7
:10490000216CA068411AE160022D01D106B1761E2A
:10491000701CA0634046BDE8F08110B50446206BD2
:1049200003F030F8204603F02DF810BD01464A6A26
:1049300022B10A6B1268C2F10A0000E00020704741
:1049400030B54FF42053174800F007042CB1C01DB8
:1049500020F00700134C041B1B1B0246124C226064
:104960000024114D6C60D018083820F007000F4C5F
:10497000206000240D4D2D686C600C4D2D682C605E
:104980001146441A4C60094C24680C60084D4C6870
:104990002C60084D4C682C604FF00044064D2C6094
:1049A00030BD00004A070020280500203005002007
:1049B00038050020340500204405002000BFFFF723
:1049C00049FF064800680128F9D94FF08050044992
:1049D0000860BFF34F8FBFF36F8FF0E74C2F0020BD
:1049E00004ED00E02DE9F04106460D4617469846D5
:1049F000069C0DB9246000E02760E6632564012170
:104A0000204603F037FCBDE8F0812DE9FF5F8146C9
:104A10000E469246DDE90E7B109CAAF10100216B47
:104A200001EB800828F0070808F0070008B901200A
:104A300000E0002050B900BFBF2080F31188BFF311
:104A40004F8FBFF36F8F00BF00BFFEE786B1002519
:104A500007E0715D04F134004155705D00B902E07A
:104A60006D1C0C2DF5D300BF00213F20015502E045
:104A7000002084F834000A2F00D30927E762276456
:104A800000206064201D02F00BFF04F1180002F00A
:104A900007FF2461C7F10A00A06164620020A064DE
:104AA00084F84C0049464046039A00F0F7F920602C
:104AB000BBF1000F01D0CBF80040BDE8FF9F000024
:104AC00010B5002407E004EB84010F4A02EB8100DB
:104AD00002F0D9FE641C0A2CF5D30C4802F0D3FE78
:104AE0000B4802F0D0FE0B4802F0CDFE0A4802F05F
:104AF000CAFE0A4802F0C7FE044809490860044893
:104B00000849086010BD00004C2F00201430002020
:104B1000283000203C30002050300020643000203D
:104B2000580500205C05002010B50146164800E03D
:104B3000006803688B42FBD30246436813448B42F0
:104B400004D143684C682344436001460A464B68DD
:104B500013440468A34211D10C4C03682468A34297
:104B600008D04B680468646823444B6003681B6882
:104B70000B6005E0054B1B680B6001E003680B60F0
:104B8000884200D0016010BD2805002030050020BB
:104B900070B5054602F0AEFEA86B08B9012400E02E
:104BA000002402F0D1FE204670BD70B5054602F02B
:104BB000A1FEA86BE96B884201D1012400E000242A
:104BC00002F0C2FE204670BD09480068006808B9BE
:104BD000012000E0002020B14FF0FF3005490860BF
:104BE00005E003480068C068006802490860704733
:104BF00058050020840500200E480068401C08B9B4
:104C0000012000E0002050B900BFBF2080F31188D0
:104C1000BFF34F8FBFF36F8F00BF00BFFEE700BF32
:104C2000BF2080F31188BFF34F8FBFF36F8F00BF9A
:104C300000BFFEE74805002010B5024600201146DF
:104C400052B900BFBF2383F31188BFF34F8FBFF367
:104C50006F8F00BF00BFFEE70B4C4B69A34201D131
:104C6000012300E0002373B1084C8B6AA34201D1F9
:104C7000012300E0002333B98B6A0BB9012300E064
:104C8000002303B1012010BD643000203C3000201F
:104C900070B5044602F02EFE94F9455010E0606AAB
:104CA00008B9012000E0002038B904F1240003F025
:104CB0008BFE18B102F080FF00E003E0681E45B2F1
:104CC000002DECDC00BFFF2084F8450002F03CFE24
:104CD00002F010FE94F9445010E0206908B9012058
:104CE00000E0002048B904F1100003F06DFE08B1A7
:104CF00002F062FF681E45B200E001E0002DECDC2E
:104D000000BFFF2084F8440002F01EFE70BD0000CA
:104D10002DE9F04104464FF0000803F0F1F8514846
:104D2000006808B9FFF70CFE4F48006820400028D3
:104D30007ED13CB304F10800A04223D9083404F02A
:104D4000070000B304F00700C0F108002044A042AF
:104D500016D904F00700C0F10800044404F007006D
:104D600008B9012000E0002068B900BFBF2080F32F
:104D70001188BFF34F8FBFF36F8F00BF00BFFEE7F7
:104D8000002400E00024002C54D0384800688442FD
:104D900050D8374E3046056801E02E462D686868C9
:104DA000A04202D228680028F7D12E480068854228
:104DB00040D0306800F10808286830606868001B3F
:104DC000102819D92F1907F0070008B9012000E0B1
:104DD000002050B900BFBF2080F31188BFF34F8F70
:104DE000BFF36F8F00BF00BFFEE76868001B7860ED
:104DF0006C603846FFF798FE1C4968680968081A15
:104E00001A490860084600681A490968884203D2AE
:104E1000164800681749086013496868096808431C
:104E200068600020286014480068401C124900E0B7
:104E300000E0086003F014FE08F0070008B9012044
:104E400000E0002050B900BFBF2080F31188BFF3FD
:104E50004F8FBFF36F8F00BF00BFFEE74046BDE836
:104E6000F0810000300500204405002034050020BA
:104E700028050020380500203C0500200648006871
:104E800030B10549096801F14400496C491C0160D1
:104E9000014800687047000054050020001F4FF0D3
:104EA00080730360001F21F001030360001F034BA8
:104EB000036014380260203870470000F94B000886
:104EC00010B500F029FD00200949087001200949AA
:104ED00008704FF4E130084908604FF47A700749D0
:104EE000088002214FF09040FDF73AF810BD000015
:104EF000D4040020D5040020C8040020D0040020E1
:104F00002DE9F0410024FE480078002875D0FD48C6
:104F10000078082872DBFB480078801E81B2FA48CE
:104F2000FCF764FA0446F7480078401EF649095C2D
:104F3000F4480078801EF44A105C41EA0020A04248
:104F40005CD110460078F14909788842F8D11046C2
:104F50004078112802D012286FD158E1EA48C07871
:104F6000E949897840EA0120E7494979E64A127916
:104F700041EA0221C94389B2884275D1E248C0782A
:104F8000E149897840EA012050286ED026DC352896
:104F90006CD012DC31285FD008DC142841D02028E6
:104FA00045D021284AD0302873D14DE032285ED038
:104FB000332862D03428F7D165E041286AD006DC76
:104FC000362870D037287CD04028EDD184E04228A4
:104FD00071D0432870D04428E6D195E066286CD083
:104FE00014DC62286AD00ADC512868D0522867D0C5
:104FF00060286ED06128D7D1A4E0F1E3F1E3632803
:1050000068D0642867D06528CED1B3E067380C2813
:105010003FD2DFE800F0BBC1C7CDF9F9F9F9F9D308
:10502000EDF3BB480188142000F0E0FCEDE0B94846
:105030000188202000F0DAFCE7E0EFE3B6480188C1
:10504000212000F0D3FCE0E0B448407E00F00301F2
:10505000302000F0CBFCD8E0B148407E00F00301E6
:10506000312000F0C3FCD0E0D0E053E015E0AB48C5
:10507000018A322000F0BAFCC7E0A948018A332037
:1050800000F0B4FCC1E0A548418A342000F0AEFC39
:10509000BBE0B9E026E006E013E0A148418A3520F4
:1050A00000F0A4FCB1E09D48407EC0F3C001362072
:1050B00000F09CFCA9E01BE020E061E048E02FE06C
:1050C00034E09748407EC0F3C001372000F08EFCEA
:1050D0009BE031E042E047E092480178402000F058
:1050E00085FC92E090480178412000F07FFC8CE044
:1050F0008E480178422000F079FC86E08C480188D7
:10510000432000F073FC80E08A480178442000F0DE
:105110006DFC7AE088480178502000F067FC74E06C
:1051200086480178512000F061FC6EE084480178E7
:10513000522000F05BFC68E082480178602000F0BB
:1051400055FC62E080480178612000F04FFC5CE093
:105150007E480178622000F049FC56E07C480178E6
:10516000632000F043FC50E07A480178642000F0AE
:105170003DFC4AE078480178652000F037FC44E0C7
:1051800076480178662000F031FC3EE074480178F2
:10519000672000F02BFC38E072480178682000F0AE
:1051A00025FC32E070480178692000F01FFC2CE0FB
:1051B0006E4801786A2000F019FC26E000226C4B52
:1051C0006C4903C9FBF702F90646FBF7EDF96421C8
:1051D000B0FBF1F201FB1206664903C9FBF7E4F9E3
:1051E00046EA002085B22946702000F0FFFB0CE063
:1051F0000021712000F0FAFB07E0FFE74FF4E061C7
:10520000722000F0F3FB00E000BF00BF5FE33E4808
:10521000C0783D49897840EA0120402862D01FDCEF
:10522000212860D013DC11285ED007DC90B3012860
:1052300042D0022859D0102858D1B8E0122856D0B0
:10524000132855D0142854D02028F5D11CE130382B
:1052500008284BD2DFE800F0FDFCFBFAF9F8F7F67E
:10526000622847D012DC512845D008DC412843D0C1
:10527000422842D0432841D04428DDD12AE2522896
:105280003DD060287CD06128D6D163E263380828FD
:10529000DFD200E005E0DFE800F0F6F5F4F3F2F12C
:1052A000F0EF194840791849097940EA012010B90E
:1052B00001203149087007E3134840791249097900
:1052C00040EA012068B9104840790F4A127940EA53
:1052D000022100231A46012000F0C2FB01202749C9
:1052E0000870F1E283E1DDE06FE04AE0EBE27AE0B2
:1052F00091E0B1E066E2FBE19BE1CDE1DAE109E2B8
:10530000D3040020D20400209E060020D5040020F3
:10531000D00400208A0000208C0000209000002093
:10532000AC000020C0040020C1040020C204002002
:10533000B0040020C3040020D9040020DA040020B7
:10534000DB040020DF040020E0040020E104002052
:10535000DD040020E2040020E3040020E404002037
:10536000DE040020E5040020E6040020E70400201D
:105370000000594010000020D6040020D70400206F
:10538000DAE1FB484079FA49097940EA012068B935
:10539000F7484079F64A127940EA022100231A467A
:1053A000022000F05DFB0120F24908708CE2F04819
:1053B0004079EF4A127940EA0221012300221020AD
:1053C00000F04EFBEC4908707EE2E9484079E84A7B
:1053D000127940EA0221FF230122112000F040FB54
:1053E000E649087070E2E648008880B2E449086047
:1053F000DF484079DE4A127940EA02214FF6FF7316
:105400000022122000F02CFBDD49096841EA00402F
:10541000DB49086058E2DA4800686FF30F00D849AA
:105420000860D3484079D24A127940EA02214FF607
:10543000FF730022132000F013FBD14909680843D1
:10544000CF4907E0C5E0B6E0A2E08EE07BE068E08F
:105450004FE036E0086037E2C5484079C44A127927
:1054600040EA022141F288334FF47A72142000F0AE
:10547000F7FAC449088027E217E208E2F9E1EAE115
:10548000DBE1CCE1BCE1ADE1B9484079B84A127941
:1054900040EA0221C8231422202000F0E1FABA4990
:1054A000088011E2B2484079B14A127940EA0221FB
:1054B0004FF4FA63C822212000F0D2FAB3490880E1
:1054C00002E2AB484079AA4A127940EA022102235B
:1054D0000022302000F0C4FAAD49497E60F301019A
:1054E000AB484176407E00F00301A948FDF7DEF8A5
:1054F000EAE19F4840799E4A127940EA022102235C
:105500000022312000F0ACFAA249497E60F301018B
:10551000A0484176407E00F003019E48FDF7C6F8A2
:10552000D2E193484079924A127940EA02216423F9
:105530000A22322000F094FA954908820846018A2E
:10554000FDF7A3F8C0E18A484079894A127940EA18
:10555000022164230A22332000F082FA8D49088256
:105560000846018AFDF791F8AEE181484079804A0A
:10557000127940EA02214FF4FA633222342000F01B
:105580006FFA834948820846418AFDF76DF89BE12E
:1055900077484079764A127940EA02214FF4FA635B
:1055A0003222352000F05CFA7A4948820846418A66
:1055B000FDF75AF888E16E4840796D4A127940EA61
:1055C000022101230022362000F04AFA72490870B5
:1055D0007AE167484079664A127940EA022101235C
:1055E0000022372000F03CFA6C4908706CE16048FA
:1055F00040795F4A127940EA0221012300224020CB
:1056000000F02EFA664908700846007840B900217B
:10561000C820FEF725F90021A120FEF721F907E0B7
:105620000021C020FEF71CF90021A020FEF718F988
:105630004AE14F4840794E4A127940EA022102235A
:105640000022412000F00CFA564908700846007804
:1056500040B900218120FEF703F90021FA20FEF76E
:10566000FFF818E04F480078012808D10021812078
:10567000FEF7F6F800219620FEF7F2F80BE0494815
:105680000078022807D100218120FEF7E9F80021E7
:105690003220FEF7E5F817E135484079344A1279AF
:1056A00040EA022106230022422000F0D9F93E49B7
:1056B000087009E12E4840792D4A127940EA02210A
:1056C0004EF660234FF47A72432000F0C9F937494F
:1056D0000880F9E026484079254A127940EA0221FB
:1056E00001230022442000F0BBF931490870EBE0AF
:1056F0001F4840791E4A127940EA02210423002201
:10570000512000F0ADF92B4908700846007800F0F0
:10571000A9FBD9E016484079154A127940EA0221DE
:1057200004230022522000F09BF923490870084608
:10573000007800F007FCC7E00D4840790C4A127968
:1057400040EA0221FF230022602000F089F91B4972
:105750000870B9E006484079054A127940EA02210A
:10576000FF230022612000F07BF915490870ABE0AF
:105770009E060020D8040020D4040020D504002078
:10578000CC040020D00400208A0000208C000020DF
:1057900090000020AC000020C8000020C9000020BC
:1057A000C0040020C1040020C2040020B004002076
:1057B000C3040020DA040020DB040020DF04002002
:1057C000E004002048484079474A127940EA022123
:1057D000FF230022622000F043F94449087073E07F
:1057E0007FE075E0404840793F4A127940EA022163
:1057F00001230022632000F033F93D49087063E083
:1058000039484079384A127940EA0221FF230022C0
:10581000642000F025F93749087055E056E0324819
:105820004079314A127940EA0221FF2300226520A3
:1058300000F016F93049087046E02B4840792A4AB2
:10584000127940EA0221FF230022662000F008F9C5
:105850002A49087038E024484079234A127940EAFE
:10586000022101230022672000F0FAF82449087081
:105870002AE01D4840791C4A127940EA0221FF23A0
:105880000022682000F0ECF81E4908701CE0164861
:105890004079154A127940EA0221FF23002269204B
:1058A00000F0DEF8184908700EE00F4840790E4A03
:1058B000127940EA0221FF2300226A2000F0D0F88A
:1058C0001249087000E000BF00BF00E000BF00BF49
:1058D00040210548FAF7C1FC00200D4908700D4928
:1058E0000870BDE8F08100009E060020E104002061
:1058F000DD040020E2040020E3040020E404002092
:10590000DE040020E5040020E6040020E704002077
:10591000D2040020D30400201CB52F4903C9CDE9CF
:10592000000101212D48FBF7DFFE69464FF0904052
:10593000FCF71AFB02208DF806000420009069464F
:105940004FF09040FCF710FB0820009069464FF0A4
:105950009040FCF709FB012202214FF09040FCF738
:1059600049FB012203214FF09040FCF743FB01214A
:105970001B48FBF7B9FE00211A4801F040FF002345
:105980001A464FF4E131174801F0E8FE00211548AE
:1059900001F060FF0121134801F057FF2021114859
:1059A00001F0CBFE10210F4801F0C7FE01220E4985
:1059B0000C4801F009FF01220B49491E094801F07A
:1059C00003FF0021074801F0B3FE002211461C200E
:1059D000FCF702FF1CBD0000149400081100140025
:1059E00011001C000044004005000C002DE9F041AE
:1059F00005460E460024002740211748FAF72DFCE3
:105A0000164802782146641C13484254112221464C
:105A1000641C42542A0A2146641C42542146641CD8
:105A20004554320A2146641C42542146641C4654A3
:105A30002146FBF7DBFC07463A0A2146641C064870
:105A400042542046611CCCB203490F5421460248FF
:105A500000F05AF8BDE8F0815E060020D504002071
:105A60002DE9F04706460D46174698460024A14604
:105A7000BD4201DA3D4602E0454500DD4546402194
:105A80001F48FAF7EAFB1F4802782046611CCCB297
:105A90001B490A5412222046611CCCB218490A54F0
:105AA000320A2046611CCCB215490A542046611CBA
:105AB000CCB213490E542A0A2046611CCCB21049BC
:105AC0000A542046611CCCB20D490D5421460C48A5
:105AD000FBF78CFC81464FEA19222046611CCCB2B0
:105AE00007490A542046611CCCB2054901F80090D0
:105AF0002146034800F008F82846BDE8F08700007A
:105B00005E060020D504002070B505460C460CB199
:105B1000402C00DD70BD0121194801F09BFE0021E1
:105B2000174801F092FE02214FF09040FCF71AFA5C
:105B30000BE000BF4021124801F008FE0028F9D018
:105B400015F8011B0E4801F0EFFD201EA4F1010124
:105B5000CCB2EED100BF4021094801F0F7FD00288A
:105B6000F9D002214FF09040FCF7FAF900210448E7
:105B700001F070FE0121024801F067FE00BFC9E795
:105B800000440040026861F3861202607047C16001
:105B900070470246002093680B4003B900E00120E3
:105BA0007047C26922F40062C2610A7862B9026871
:105BB00022F400420260026822F48042026002681D
:105BC00022F48062026036E00A78012A0ED102686F
:105BD00022F400420260026822F4804202600268FD
:105BE00022F4806202F58062026024E00A78022AD0
:105BF0000ED1026822F4004202F5004202600268FF
:105C000022F480420260026822F48062026012E0A4
:105C10000A78032A0FD1026822F4004202F50042FA
:105C20000260026822F4804202F58042026002684B
:105C300022F480620260CB79026863F34922026039
:105C40004A78012A09D1CA79012A06D1026822F4C8
:105C5000807202F58072026003E0026822F48072B2
:105C600002604B78026863F3820202608A78072A36
:105C70000BDD426822F4807202F5807242608A78FD
:105C8000036862F3C503036008E0426822F480728F
:105C900042608B78026863F3C5020260CB780268C9
:105CA00063F3C71202600B79026863F3CB220260D0
:105CB0004B79026863F3410202608B79026863F3F7
:105CC000000202607047000010B501210948FCF78E
:105CD00047F90021084801F005FC0021064801F0C1
:105CE00006FC0121044801F0FDFB02200349087075
:105CF00010BD00000004004800040040DC04002047
:105D000010B500F037F804210B48FCF729F9012100
:105D10004FF09040FCF724F920214FF09040FCF721
:105D20001FF940214FF09040FCF71AF90121024879
:105D3000FCF718F910BD00000004004810B501215F
:105D40000948FCF70FF90021084801F0CBFB0021BE
:105D5000064801F0CCFB0121044801F0C3FB0120FF
:105D60000349087010BD0000000400480004004012
:105D7000DC0400201FB5364903C9CDE902013449CE
:105D8000083103C9CDE9000101213248FBF7ACFC21
:105D900001213048401CFBF7A7FC02A92E48FCF764
:105DA000E3F80120029002A94FF09040FCF7DCF8E4
:105DB0002020029002A94FF09040FCF7D5F8402037
:105DC000029002A94FF09040FCF7CEF8012002901B
:105DD00002A92148FCF7C8F802208DF80E000290B5
:105DE00002A91D48FCF7C0F8012211461A48FCF729
:105DF00001F901211948FBF777FC78224FF47A71F9
:105E0000174801F049FB0021154801F066FB00210D
:105E1000134801F05DFB0121114801F07AFC6A464C
:105E200006210F4801F0A0FB4FF4FA7206210C483E
:105E300001F03AFB00220621094801F074FB012120
:105E4000074801F061FC0021054801F04BFB1FBD34
:105E50001C940008110014000004004801001C00FC
:105E60000004004010B50446052C54D2DFE804F0CD
:105E700003132333430001214FF09040FCF770F8E7
:105E800020214FF09040FCF76BF840214FF09040FC
:105E9000FCF766F84FE001214FF09040FCF762F804
:105EA00020214FF09040FCF75BF840214FF09040EC
:105EB000FCF756F83FE001214FF09040FCF750F816
:105EC00020214FF09040FCF74DF840214FF09040DA
:105ED000FCF746F82FE001214FF09040FCF742F824
:105EE00020214FF09040FCF73DF840214FF09040CA
:105EF000FCF736F81FE001214FF09040FCF732F834
:105F000020214FF09040FCF72DF840214FF09040B9
:105F1000FCF728F80FE001214FF09040FCF720F843
:105F200020214FF09040FCF71BF840214FF09040AB
:105F3000FCF716F800BF00BF0148047010BD000058
:105F4000DA04002010B50446052C40D2DFE804F046
:105F5000030F1B2733004FF47A71254801F0DEFB55
:105F60004FF4FA720621224801F09EFA3BE040F21B
:105F7000DC511F4801F0D2FB40F2EE2206211C4802
:105F800001F092FA2FE04FF4FA61194801F0C6FBD4
:105F90004FF47A720621164801F086FA23E040F6A3
:105FA000C411134801F0BAFB40F2E2420621104846
:105FB00001F07AFA17E040F6B8310D4801F0AEFB77
:105FC00040F2DC5206210A4801F06EFA0BE040F67E
:105FD000B831074801F0A2FB40F2DC520621044828
:105FE00001F062FA00BF00BF0248047010BD00005B
:105FF00000040040DB04002010B50021034801F03C
:1060000071FA00200249087010BD00000004004031
:10601000DC04002010B500F027F80520FCF740FC58
:10602000FBF782F8FBF78CF9FBF762FCFBF738FD16
:10603000FCF702F8FCF746FAFCF77CFCFEF740FFA1
:10604000FFF75EFE01F0AAFFFBF726FE0449087089
:1060500001210448FBF740F9C820FBF74DF910BDBA
:106060001D0000200024014010B5FBF7E9FB40F2C1
:1060700053101749086000210120FBF717FA1D2172
:106080000020FBF753FB01210220FBF70FFA00BFB2
:106090001920FBF711FB0128FAD10020FBF7D4F9F6
:1060A0000020FBF7E5F90020FBF7D8F90120FBF70A
:1060B000E9F90220FBF7F6FB00BFFBF711FC022811
:1060C000FBD10020FBF7DEF900F004F810BD000062
:1060D000002002402DE9FF5F002400250026A14694
:1060E000A246A3460020039002900190FBF7F8FB24
:1060F0000090009820B1012814D0022874D115E036
:106100004348406DC0F3402040B14148006BC0F3AC
:10611000406018B13F484049086002E03F483E49AE
:10612000086065E03D483C49086061E038484068E7
:10613000C0F300463648C06AC00F20BB34484068F0
:10614000C0F3834432484068C0F341750DB90F2C49
:1061500003D12801401C044400E0A41C26B93048A7
:1061600060432D4908603DE029484068C0F3404045
:1061700020B12B4860432849086033E0274860433A
:10618000254908602EE02248C06AC0F3031003903E
:106190001F48C06AC0F3082002901D48C06A00F082
:1061A0000700019016B9DFF878B009E01848406898
:1061B000C0F3404010B1DFF868B001E0DFF85CB038
:1061C0000121019801FA00F0039900FB01FC0298FB
:1061D000ABFB00700146624600233846F9F7E0FF4A
:1061E0000D49086004E0FFE70C480B49086000BF58
:1061F00000BF07484068C0F303190A4810F809A017
:106200000548006820FA0AF003490860BDE8FF9FCE
:1062100000100240006CDC020000002000127A0036
:1062200000093D00648B00080EE00848007840B18A
:1062300040210748FAF711F8002006490870034981
:1062400008700A2001F004FCEFE700001B000020AA
:10625000D80500201A0000204E48007830B10023F5
:106260001A4619464C48006802F050F890E04FF08A
:10627000FF314948006802F009F90128F6D1474882
:106280000088474908804748008848804648407E43
:1062900000F0030088804448408AC8804248008A51
:1062A00008814248407E00F0030048813F48408A10
:1062B00088813E48008AC8813D48007808823D4870
:1062C000007848823C48007888823C480078C88240
:1062D0003B48007808833B48008848833A48007868
:1062E00088833A480078C883394800780884394858
:1062F0000078488438480078888438480078C88412
:10630000374800780885374800784885364800784F
:10631000888536480078C88535480078088635482D
:106320000078488634480078888634480078C886E3
:106330003348007808873348007848873248006837
:10634000C0F30F20888730480088C8872F4800880E
:10635000A1F840000020A1F842004FF4E060A1F84D
:10636000440023222A48FBF7C9FB18B90120294918
:10637000087002E0022027490870274800780128A9
:1063800006D1254800782349097808442249087035
:106390006DE700001D000020F80400208A000020A6
:1063A000180600208C00002090000020AC00002087
:1063B000C8000020C9000020C0040020C104002043
:1063C000C2040020B0040020C3040020DA0400202E
:1063D000DB040020DF040020E0040020E1040020B2
:1063E000DD040020E2040020E3040020E404002097
:1063F000DE040020E5040020E6040020E70400207D
:10640000D4040020D5040020CC040020D0040020B7
:1064100000FC00081C000020D60400201CB5044627
:1064200001F068FA3448052100234022CDE900102C
:1064300032A1354802F03AF93448072100234022BE
:10644000CDE9001032A1354802F030F9344804217A
:1064500000234022CDE9001032A1354802F026F990
:106460003448022100234022CDE9001032A13548F2
:1064700002F01CF93448022100234022CDE900102B
:1064800032A1354802F012F9344805210023402298
:10649000CDE9001032A1354802F008F93448032153
:1064A00000234022CDE9001032A1364802F0FEF868
:1064B0003548062100234022CDE9001033A137489A
:1064C00002F0F4F803220021012001F081FE34499A
:1064D000086008B900BFFEE703220021012001F097
:1064E00077FE3049086008B900BFFEE701F02CFADA
:1064F000002001F0DBFA1CBDF00400207461736B16
:10650000206465627567000029620008F4040020B9
:106510007461736B20666C617368000059620008D7
:10652000FC0400205461736B206B6579000000004F
:10653000A9650008040500207461736B206C656414
:106540000000000089660008080500207461736B74
:10655000206F6C65640000007D6700081005002056
:106560007461736B2072733438350000F16C00086D
:10657000140500207461736B2073746570206D6F57
:10658000746F7200A17000081C0500207461736BA9
:106590002077733238313262000000000171000848
:1065A000F8040020180500205EE03048FBF7D4FE18
:1065B000FBF746FF2D481430FBF7CEFEFBF7DAFD64
:1065C0002A482830FBF7C8FEFBF744FD27483C303B
:1065D000FBF7C2FEFBF77EFE24485030FBF7BCFE03
:1065E000FBF70AFE214890F8220030B91F4890F8C6
:1065F0004A0010B900201E4908701E4800781C4946
:10660000097888420AD000231A4619461A480068B9
:1066100001F07CFE164800781649087000201749E2
:1066200008700EE01548007800EB80000F4901EB80
:106630008000807B00B108E010480078401C0F49C2
:1066400008700E4800780528ECDB00BF0B48007886
:10665000052806D101200A4908700021094800F0E8
:1066600041FF0A2001F0F4F99FE700002400002018
:10667000D904002001050020180500200005002095
:1066800088000020004801403848407E00F00301A7
:106690003648FCF70BF83548418AFBF7E5FF3348ED
:1066A000018AFBF7F2FF3248407E00F003013048D8
:1066B000FBF7FCFF2E48418AFBF7D6FF2C48018AE6
:1066C000FBF7E3FFFBF710FA4EE02848407E00F0AE
:1066D0000300022809D12748007818B12348FBF7A6
:1066E000B5FF02E02148FBF7A3FF2148407E00F000
:1066F0000300022809D12048007818B11C48FBF794
:10670000A5FF02E01A48FBF793FF184A928891B25E
:10671000164A1068FBF765FC30B11448407E20F043
:1067200008001249487606E01048407E20F0080034
:1067300008300E4948760E4A928891B20C4A106889
:10674000FBF74FFC30B10A48407E20F008000849B2
:10675000487606E00648407E20F0080008300449EC
:1067600048760A2001F074F9AFE70000900000209D
:10677000AC000020C8000020C9000020322001F039
:1067800067F90021AE20FDF76BF800214020FDF7EE
:1067900067F80021B020FDF763F8FE48007840B9A3
:1067A00000218120FDF75CF80021FA20FDF758F860
:1067B00018E0F8480078012808D100218120FDF771
:1067C0004FF800219620FDF74BF80BE0F1480078D8
:1067D000022807D100218120FDF742F80021322054
:1067E000FDF73EF8EC48007840B90021C820FDF7DD
:1067F00037F80021A120FDF733F807E00021C02081
:10680000FDF72EF80021A020FDF72AF80021A62090
:10681000FDF726F80021A820FDF722F800211F200F
:10682000FDF71EF80021D320FDF71AF800210846D5
:10683000FDF716F80021D520FDF712F80021F02011
:10684000FDF70EF80021D920FDF70AF800212220DB
:10685000FDF706F80021DA20FDF702F800210220FA
:10686000FCF7FEFF0021DB20FCF7FAFF00214920A6
:10687000FCF7F6FF00218D20FCF7F2FF0021142029
:10688000FCF7EEFF0021AF20FCF7EAFFFCF732F83F
:10689000C248007890B90123212219460020FDF753
:1068A000CFFE0123212219467820FDF7C9FE0023DF
:1068B000BBA201212420FDF703FF11E001232122C7
:1068C00019460020FDF7BCFE01232122194678203D
:1068D000FDF7B6FE0023B4A201211C20FDF7F0FE57
:1068E0004FF47A7001F0B4F8FCF704F80020FCF7DC
:1068F00037F8E6E1AF480078AF49097888420FD011
:10690000FBF7F8FFAC48007818B9AC480078FCF702
:1069100027F80020AA490870A7480078A549087000
:10692000A8480078A8490978884205D0FBF7E2FF1B
:10693000A4480078A44908709F480078002872D0C5
:106940000020A24908809E48007805286CD2DFE824
:1069500000F0031C5E7E8E009D48FCF71DFC9D49E7
:10696000087008460078062807D100231A46194601
:106970009948006801F0CAFC06E0964800780728AC
:1069800002D10120954908707CE0924800780628E1
:106990003AD2DFE800F0031319272D339048FCF7B3
:1069A000FBFB9049087008460078022805D10120B9
:1069B0008D49087000208049087026E08B48FCF75C
:1069C000EBFB8849087020E08948FCF7E5FB854926
:1069D00008700846007820B9FCF7F0FE01208549D0
:1069E000087012E08448FCF7D7FB7E4908700CE081
:1069F0008248FCF7D1FB7B49087006E08048FCF731
:106A0000CBFB7849087000E000BF00BF3AE0714856
:106A10000078062818D2DFE800F003080B0E1114E6
:106A2000FCF7B2FF11E02EE02BE0FCF7E5FF0CE0F5
:106A3000FDF740F809E0FDF7F5F806E0FDF7AEF9DF
:106A400003E0FDF7F1F900E000BF00BF1AE0614884
:106A50000078012802D0052806D102E0FDF71AFAD5
:106A600003E0FDF7E3FA00E000BF00BF0AE0594889
:106A70000078052802D1FDF761FB00E000BF00BFF0
:106A800000E000BF1FE05F4800880A2190FBF1F1A1
:106A90004E480088401C80B24C4A1080814212DC73
:106AA00000201146088045480078401CC0B2434988
:106AB00008701A2801DB00200870FBF71BFF3F4815
:106AC0000078FBF74DFF4B48007828B100203A4989
:106AD000087001F095F9B5E04B48007830B3FBF74A
:106AE00009FF0123212219460020FDF7A9FD0123FA
:106AF000212219467820FDF7A3FD002343A201219E
:106B00002020FDF7DDFD00203F4908704FF47A702A
:106B100000F09EFF00202D49088028490870FBF7EF
:106B2000E9FE26480078FBF71BFF8BE03A48007827
:106B3000D8B1FBF7DFFE0123212219460020FDF723
:106B40007FFD0123212219467820FDF779FD0023DE
:106B500032A201211820FDF7B3FD00202E49087054
:106B60004FF47A7000F074FF6CE02F48007878B131
:106B7000FBF7C0FE0123212219460020FDF760FD2E
:106B80000123212219467820FDF75AFD00234DE00C
:106B900058E00000C1040020C00400201D000020B7
:106BA00052656164206F6B005265616420666169A3
:106BB0006C0000000E050020B60400200F05002028
:106BC000B7040020C3040020C40400200C050020EA
:106BD000CC030020B2040020F8040020D8040020D8
:106BE000D8030020B304002089000020E403002023
:106BF00008040020BF040020440400206804002092
:106C00008C040020B0040020C50400204177616B93
:106C1000656E656400000000C60400204B657920A5
:106C20006C6F636B65640000C704002025A201211E
:106C30001020FDF745FD0020264908704FF47A70BA
:106C400000F006FF24480078012818D1FBF752FE17
:106C50000123212219460020FDF7F2FC0123212205
:106C600019467820FDF7ECFC00231CA2012124200A
:106C7000FDF726FD4FF47A7000F0EAFE1BE016489F
:106C80000078022817D1FBF735FE0123212219468F
:106C90000020FDF7D5FC0123212219467820FDF7BD
:106CA000CFFC00230FA201211C20FDF709FD4FF4AA
:106CB0007A7000F0CDFE0020074908700A2000F02D
:106CC000C7FE17E64B657920756E6C6F636B656464
:106CD00000000000C70400201C00002053617665FE
:106CE000206F6B0053617665206661696C0000005F
:106CF00000231A46C8480168C84800F02FFD01214A
:106D0000C64800F015FD85E1FEF7FAF8C4480078A2
:106D1000012807D100231A461946C248006801F02D
:106D2000F5FA14E0BE480078022803D0BC48007889
:106D300003280CD1BA480078801E81B24FF6FF7349
:106D400000221046FEF78CFE0020B5490870B648B8
:106D5000007820B10020B4490870FBF7B5FDB348B6
:106D6000007801280ED1FBF7DFF8B148FAF702FFEF
:106D700018B10320AD49087002E00220AB49087049
:106D8000FAF73EFFA9480078022803D0A748007808
:106D900003280ED1A5480078801E81B24FF6FF73FC
:106DA00000220220FEF75CFE0020A0490870FBF7DD
:106DB0008BFDA048007800287ED19F4801881420D0
:106DC000FEF714FE0A2000F043FE9C4801882020B4
:106DD000FEF70CFE0A2000F03BFE994801882120B6
:106DE000FEF704FE0A2000F033FE9648407E00F0D5
:106DF00003013020FEF7FAFD0A2000F029FE924838
:106E0000407E00F003013120FEF7F0FD0A2000F083
:106E10001FFE8C48018A3220FEF7E8FD0A2000F0B0
:106E200017FE8948018A3320FEF7E0FD0A2000F0B2
:106E30000FFE8448418A3420FEF7D8FD0A2000F076
:106E400007FE8148418A3520FEF7D0FD0A2000F078
:106E5000FFFD7C48407EC0F3C0013620FEF7C6FD32
:106E60000A2000F0F5FD7848407EC0F3C0013720CD
:106E7000FEF7BCFD0A2000F0EBFD744801784020CD
:106E8000FEF7B4FD0A2000F0E3FD714801784120CF
:106E9000FEF7ACFD0A2000F0DBFD6E4801784220D1
:106EA000FEF7A4FD0A2000F0D3FD6B4801884320C3
:106EB000FEF79CFD0A2000E0A9E000F0C9FD67484C
:106EC00001784420FEF792FD0A2000F0C1FD6448DD
:106ED00001785020FEF78AFD0A2000F0B9FD6148D4
:106EE00001785120FEF782FD0A2000F0B1FD5E48D6
:106EF00001785220FEF77AFD0A2000F0A9FD5B48D8
:106F000001786020FEF772FD0A2000F0A1FD5848CC
:106F100001786120FEF76AFD0A2000F099FD5548CE
:106F200001786220FEF762FD0A2000F091FD5248D0
:106F300001786320FEF75AFD0A2000F089FD4F48D2
:106F400001786420FEF752FD0A2000F081FD4C48D4
:106F500001786520FEF74AFD0A2000F079FD4948D6
:106F600001786620FEF742FD0A2000F071FD4648D8
:106F700001786720FEF73AFD0A2000F069FD4348DA
:106F800001786820FEF732FD0A2000F061FD4048DC
:106F900001786920FEF72AFD0A2000F059FD3D48DE
:106FA00001786A20FEF722FD0A2000F051FD002240
:106FB000394B3A4903C9F9F709FA0546F9F7F4FAE2
:106FC0006421B0FBF1F201FB1205344903C9F9F762
:106FD000EBFA45EA002084B221467020FEF706FD58
:106FE0000A2000F035FD00217120FEF7FFFC0A2089
:106FF00000F02EFD4FF4E0617220FEF7F7FC0A204E
:1070000000F026FD0C48008800F022FD02E00A2076
:1070100000F01EFD78E60000C80400200044004097
:10702000D6040020F8040020D7040020D804002053
:1070300000FC0008D4040020D00400208A000020B6
:107040008C00002090000020AC000020C004002034
:10705000C1040020C2040020B0040020C3040020AA
:10706000D9040020DA040020DB040020DF04002023
:10707000E0040020E1040020DD040020E204002000
:10708000E3040020E4040020DE040020E5040020E6
:10709000E6040020E7040020000059401000002012
:1070A00013480078FEF7DEFE12480078FEF74AFF2C
:1070B0001CE04FF0FF311048006801F0E7F90128AB
:1070C00014D10E48007820B1012805D0022809D13A
:1070D00005E0FEF791FF08E0FEF730FE05E0FEF761
:1070E000F3FD02E0FEF788FF00BF00BFE1E700000C
:1070F000DA040020DB04002018050020D904002059
:10710000A6E1D4480078D0B90020D349087000BF68
:1071100012E0D2490978D24A02EB80029170D1493B
:107120000978CF4A02EB80025170CF490978CC4AE6
:1071300002F82010411CC8B20828EADB48E1C54823
:10714000007801287CD1C9480078002879D1C84846
:107150000078002877D1C74908680968491EC54BDF
:107160001960F9F759F8F9F74DF80446F9F74AF8B4
:107170000546F9F747F8302190FBF1F201FB1200C8
:1071800095FBF0F100FB115094FBF0F100FB114076
:10719000401CC1B2B0480078C0F10700B04A02EB11
:1071A00080008170B34908680968491EB14B1960B5
:1071B000F9F732F8F9F726F80446F9F723F8054607
:1071C000F9F720F8302190FBF1F201FB120095FB5A
:1071D000F0F100FB115094FBF0F100FB1140401C5A
:1071E000C1B29D480078C0F107009D4A02EB8000C3
:1071F0004170A04908680968491E9E4B1960F9F75B
:107200000BF8F8F7FFFF0446F8F7FCFF0546F8F720
:10721000F9FF302190FBF1F201FB120095FBF0F138
:1072200000FB115094FBF0F100FB1140401CC1B277
:1072300089480078C0F10700894A02F82010C7E0A9
:107240002AE01CE0FFE78C48017883480078C0F111
:107250000700834A02EB80008170884801787E48ED
:107260000078C0F1070002EB80004170844801788B
:1072700079480078C0F1070002F82010A8E07B48A8
:1072800000780128DBD1002173480078C0F10700A5
:10729000734A42F820109BE06E4800780228CED155
:1072A0007848007800286FD17748007800286DD1A1
:1072B000704908680968491E6E4B1960F8F7ACFF01
:1072C000F8F7A0FF0446F8F79DFF0546F8F79AFF88
:1072D000302190FBF1F201FB120095FBF0F100FB75
:1072E000115094FBF0F100FB1140401C5C495A4ADC
:1072F000127801EB820188705E4908680968491EAE
:107300005C4B1960F8F788FFF8F77CFF0446F8F744
:1073100079FF0546F8F776FF302190FBF1F201FB8B
:10732000120095FBF0F100FB115094FBF0F100FB13
:107330001140401C4A49484A127801EB82014870CA
:107340004C4908680968491E4A4B1960F8F764FF00
:10735000F8F758FF0446F8F755FF0546F8F752FFCF
:10736000302190FBF1F201FB120095FBF0F100FBE4
:10737000115094FBF0F100FB1140401C3849364A93
:10738000127801F8220023E018E0FFE73F48017877
:107390003348314A127800EB820081703C48007813
:1073A0002F492D4A127801EB820148703948007844
:1073B0002B49294A127801F8220009E03148007867
:1073C000012805D100202649234A127841F82200DD
:1073D0002048007860B320480078401CC0B21E49A5
:1073E0000870082824DB002008701A48007801285B
:1073F0000DD10020234908701C480078401CC0B201
:107400001A490870022813DB0020087010E01148A8
:10741000007802280CD1002014490870194800781F
:10742000401CC0B217490870022801DB0020087018
:1074300000F03EFE002406E0094901EB840000F064
:1074400055FE601CC4B2082CF6DB642000F000FB83
:1074500057E60000DC04002024050020DF040020A3
:10746000E0060020E0040020E104002025050020C3
:10747000DD04002020050020E5040020E6040020B3
:10748000E704002026050020DE040020E20400209E
:10749000E3040020E4040020C1628262436923F017
:1074A00001035B1C436170470B4633B1022B06D0CE
:1074B000042B06D0062B08D105E0426306E0826368
:1074C00004E0C26302E0026400E000BF00BF704756
:1074D000026861F3092202607047026861F30612D4
:1074E00002607047026861F3000202607047416207
:1074F0007047CA4302617047012A03D1C3680B4336
:10750000C36003E012B9C3688B43C360704702468F
:10751000002013690B4023B1D3680B400BB101204D
:1075200000E00020704710B50B4633B1022B09D0A4
:10753000042B0CD0062B14D10EE0846962F3C30433
:1075400084610FE0846962F3CB2484610AE0C4693A
:1075500062F3C304C46105E0C46962F3CB24C4616F
:1075600000E000BF00BF10BD2DE9F041002500265E
:10757000002701F108035C1C92F801C00CFA03FC1F
:107580001FFA8CF592F802C00CFA04FC1FFA8CF674
:10759000D0F804C04FF0010808FA04F82CEA080CEF
:1075A000C0F804C0D0F804C04CEA060CC0F804C00F
:1075B000D0F804C04FF0010808FA03F82CEA080CD0
:1075C000C0F804C0D0F804C04CEA050CC0F804C0F0
:1075D0000F4637B1022F0DD0042F14D0062F24D11F
:1075E0001AE092F80080D0F818C068F3061CC0F8C2
:1075F00018C01BE092F80080D0F818C068F30E3C69
:10760000C0F818C012E092F80080D0F81CC068F3EF
:10761000061CC0F81CC009E092F80080D0F81CC01D
:1076200068F30E3CC0F81CC000E000BF00BF4FF084
:10763000010C0CEB41034FF0030C0CEB410492F8EE
:1076400003C00CFA03FC1FFA8CF592F804C00CFA84
:1076500004FC1FFA8CF64FF0010808FA04F8D0F881
:1076600020C02CEA080CC0F820C0D0F820C04CEA9A
:10767000060CC0F820C04FF0010C0CFA03FCD0F847
:10768000208028EA0C08C0F82080D0F820C04CEAFE
:10769000050CC0F820C04B004FF0020C0CEB41046D
:1076A00092F805C04FEA41080CFA08FC1FFA8CF565
:1076B00092F806C04FF0020808EB41080CFA08FCEB
:1076C0001FFA8CF64FF0010808FA04F8D0F820C031
:1076D0002CEA080CC0F820C0D0F820C04CEA060CF8
:1076E000C0F820C04FF0010808FA03F8D0F820C015
:1076F0002CEA080CC0F820C0D0F820C04CEA050CD9
:10770000C0F820C0BDE8F081426C61F3CF32426422
:107710007047026861F3C71202607047C162704728
:107720000146486880B27047C1F308024260704762
:10773000C26861F34D32C260704701F01F0212B19E
:107740000268426801E0CA4302607047024610685E
:10775000084008B1012070470020FCE72DE9F04304
:1077600085B004460F46904699466846F9F7CEFE26
:107770001448844201D1029E00E0039E06EB86007D
:107780004000B0FBF7F50A20B5FBF0F100FB11500B
:10779000052803D20A20B5FBF0F503E00A20B5FB6B
:1077A000F0F0451CA06865F30F00A060E06868F386
:1077B0000C30E060206969F30D30206105B0BDE850
:1077C000F08300000038014030B5012A0BD100EBF6
:1077D00011431B6801F01F050124AC40234300EB5B
:1077E000114423600AE000EB11431B6801F01F0500
:1077F0000124AC40A34300EB1144236030BD41B9E8
:10780000C26822F40072C260C26822F48062C26060
:107810001AE001290AD1C26822F40072C260C2686B
:1078200022F4806202F58062C2600DE002290BD171
:10783000C26822F4007202F50072C260C26822F4CB
:10784000806202F58062C2607047C26861F38202A2
:10785000C2607047C26861F3C302C26070470146EC
:107860000A69D1E901309860D1E901035860506894
:10787000884201D188685060002008611068401E6D
:1078800010601068704700F1080141604FF0FF314F
:10789000816000F10801C160016100210160704751
:1078A00000210161704710B502460B685C1C0CB9E1
:1078B000106907E002F1080000E0406844682468AD
:1078C0009C42FAD944684C604C68A1608860416071
:1078D0000A611468641C146010BD42684A609368B1
:1078E0008B60936859609160086103685B1C03605A
:1078F0007047000000BFBF2080F31188BFF34F8F97
:10790000BFF36F8F00BF0E480068401C0C49086031
:1079100008460068012812D10A480068C0B208B9B8
:10792000012000E0002050B900BFBF2080F3118883
:10793000BFF34F8FBFF36F8F00BF00BFFEE77047ED
:107940004805002004ED00E00D48006850B900BF74
:10795000BF2080F31188BFF34F8FBFF36F8F00BF3D
:1079600000BFFEE706480068401E0549086008465B
:10797000006820B9002080F3118800BF00BF704765
:107980004805002070B506463546002E44D0083D17
:107990002C46224960680968084008B1012000E0CF
:1079A000002050B900BFBF2080F31188BFF34F8F74
:1079B000BFF36F8F00BF00BFFEE7206808B901204A
:1079C00000E0002050B900BFBF2080F31188BFF352
:1079D0004F8FBFF36F8F00BF00BFFEE70F49606896
:1079E00009680840C0B12068B0B90C4960680968EE
:1079F0008843606000F084FA0949606809680844B7
:107A0000074908602046FDF78FF806480068401CCB
:107A10000449086001F024F870BD0000440500200E
:107A2000340500204005002000204FF0E0210861CF
:107A30008861064800684FF47A71B0FBF1F0401E8F
:107A40004FF0E021486107200861704700000020E6
:107A500070B504460025D4B11248006808B9012069
:107A600000E0002050B900BFBF2080F31188BFF3B1
:107A70004F8FBFF36F8F00BF00BFFEE700F040FAEB
:107A800000212046FCF740FE00F0EAFF05463DB924
:107A90004FF0805004490860BFF34F8FBFF36F8FE2
:107AA00070BD00009005002004ED00E070B50546B3
:107AB000FFF720FF15B93048006800E0284604466B
:107AC000201DFFF7CCFE78B9E06A00EB80002B495F
:107AD00051F8200040B994F82C1001208840284922
:107AE0000968814326480160A06A18B104F11800B2
:107AF000FFF7B5FE23480068401C224908601E4875
:107B00000068844209D1211D1F48FFF7E6FE1F4887
:107B10000068401C1D49086009E01D480068401EBF
:107B20001B4908602046FCF7F8FEFDF74DF8FFF70B
:107B30000BFF18480068E8B10F480068844219D16B
:107B40001548006808B9012000E0002050B900BFC6
:107B5000BF2080F31188BFF34F8FBFF36F8F00BF3B
:107B600000BFFEE74FF080500C490860BFF34F8F15
:107B7000BFF36F8F70BD0000540500204C2F002014
:107B80006C0500208005002050300020600500209A
:107B900064050020700500209005002004ED00E041
:107BA00003490968016003490968416070470000A2
:107BB0007C0500206805002001200149086070470D
:107BC0007805002070B504460D4654B900BFBF20AB
:107BD00080F31188BFF34F8FBFF36F8F00BF00BFDB
:107BE000FEE70548016818312046FFF75CFE0121D9
:107BF0002846FCF789FD70BD540500202DE9F047AB
:107C000006460F4634464FF00109002E60D0606CE6
:107C100050B900BFBF2080F31188BFF34F8FBFF36F
:107C20006F8F00BF00BFFEE7206CB84201D23D4617
:107C300000E0256CE06AA8424AD0606C012847D178
:107C400024480068844201D0012000E0002050B99F
:107C500000BFBF2080F31188BFF34F8FBFF36F8F3A
:107C600000BF00BFFEE7D4F82C80E562A06900F0F9
:107C7000004010B9C5F10A00A06108EB8801164A5E
:107C800002EB81016069884201D1012000E00020FF
:107C9000F0B1201DFFF7E3FD40B994F82C1001204E
:107CA00088400E49096881430C48016094F82C1003
:107CB0000120884009490968084308490860E16AC9
:107CC00001EB8101044A02EB8100211DFFF705FE53
:107CD000BDE8F087540500204C2F00206C050020E3
:107CE00070B505462C4655B900BFBF2080F31188FA
:107CF000BFF34F8FBFF36F8F00BF00BFFEE7184881
:107D0000006884422BD054B3FFF7F4FD2046FCF703
:107D100093FF10B3201DFFF7A2FD94F82C10012053
:107D200088401049096808430E490860E16A01EB80
:107D300081010D4A02EB8100211DFFF7CEFD0849AC
:107D4000E06A0968C96A884207D34FF08050074942
:107D50000860BFF34F8FBFF36F8FFFF7F5FD70BD66
:107D6000540500206C0500204C2F002004ED00E09D
:107D70001CB51B4800210B464022CDE9001019A17B
:107D80001A4800F093FC0446012C15D100BFBF2017
:107D900080F31188BFF34F8FBFF36F8F00BF4FF099
:107DA000FF30134908600120124908600020124981
:107DB000086000F0A7F910E0601C08B1012000E0A5
:107DC000002050B900BFBF2080F31188BFF34F8F50
:107DD000BFF36F8F00BF00BFFEE7084800681CBDFF
:107DE0008805002049444C4500000000BD490008BA
:107DF0008405002070050020680500208C05002007
:107E000070B50546FFF776FD15B93548006800E006
:107E100028460446201DFFF722FD78B9E06A00EBF2
:107E20008000304951F8200040B994F82C1001200E
:107E300088402D49096881432B480160A06A18B128
:107E400004F11800FFF70BFD211D2848FFF745FD41
:107E5000002009E004F14C01095C012903D1002252
:107E600004F14C010A54401C0128F3DBFFF76CFDC0
:107E70001F48006828B1FFF73DFDFCF7A5FEFFF79E
:107E800063FD17480068844229D119480068D0B1C1
:107E90001848006808B9012000E0002050B900BF70
:107EA000BF2080F31188BFF34F8FBFF36F8F00BFE8
:107EB00000BFFEE74FF080500F490860BFF34F8FBF
:107EC000BFF36F8F0BE0094800680C4909688842CE
:107ED00003D100200249086001E000F019F870BDEC
:107EE000540500204C2F00206C0500206430002039
:107EF000700500209005002004ED00E064050020DE
:107F000002480068401C0149086070479005002045
:107F10001D48006818B101201C49086032E00020AB
:107F20001A4908601A480068B0FA80F0C0F11F01D1
:107F300001EB8100174A52F8200008B1012000E04F
:107F4000002050B900BFBF2080F31188BFF34F8FCE
:107F5000BFF36F8F00BF00BFFEE701EB81020D4B47
:107F600003EB820042685268426000F108024368F5
:107F7000934202D14268526842604268D268064B1E
:107F80001A6000BF704700009005002078050020AF
:107F90006C0500204C2F00205405002010B500F087
:107FA0002BF805200B49087002200B4908700020AF
:107FB0000A49087005200A4908700020094908701C
:107FC00009490870094908700949087010200949D1
:107FD000087010BDDF040020E0040020E104002050
:107FE000E2040020E3040020E4040020E504002073
:107FF000E6040020E70400201FB5124903C9CDE9BB
:1080000002011049083103C9CDE9000101210E48E0
:10801000F9F76AFB02A94FF09040F9F7A5FF00229B
:1080200007214FF09040F9F7E5FF01210748F9F7E4
:108030005BFB69460648FDF7B4FD01210448FDF7E6
:10804000A1FD1FBD2C940008110014000C001800A5
:108050000030014010B5044600BF02210B48FDF777
:1080600098FD0028F9D024B1FC210848FDF78FFDC8
:1080700003E0C0210548FDF78AFD00BF0221034847
:10808000FDF787FD0028F9D010BD00000030014049
:1080900070B50546002407E08021214101EA050072
:1080A000FFF7D8FF601CC4B2082CF5DB70BD0000E0
:1080B00010B5002413E000BF02210B48FDF769FD55
:1080C0000028F9D000210848FDF761FD00BF02211A
:1080D0000548FDF75EFD0028F9D0601C84B2B4F5B8
:1080E000967FE8DB10BD00000030014010B504466B
:1080F0006078FFF7CDFFA078FFF7CAFF2078FFF781
:10810000C7FF10BD1CB52D49084600780190FF201F
:108110000A4610700846007800909DF800009DF80F
:108120000020904201D1012000E0002050B900BFA2
:10813000BF2080F31188BFF34F8FBFF36F8F00BF55
:1081400000BFFEE79DF8000000F0BF001C4A107061
:1081500007201C4A106009E01A480068401E194AAE
:1081600010609DF800004006000E00909DF8000091
:1081700000F080008028EFD0124800680002114A09
:1081800010601046008800F4E06010600B4A01980F
:1081900010700D48006840F47F000B4908600846E5
:1081A000006840F07F400860FFF73EFC0020074970
:1081B0000860F7F7A9FF00201CBD000000E400E004
:1081C0004C0500205005002020ED00E0480500206F
:1081D0002DE9F84306460F4690460EB1012000E017
:1081E000002050B900BFBF2080F31188BFF34F8F2C
:1081F000BFF36F8F00BF00BFFEE706FB07F51FB19F
:10820000B5FBF7F0B04201D1012000E0002050B9E9
:1082100000BFBF2080F31188BFF34F8FBFF36F8F74
:1082200000BF00BFFEE705F14800A84201D90120C8
:1082300000E0002050B900BFBF2080F31188BFF3D9
:108240004F8FBFF36F8F00BF00BFFEE705F14800FF
:10825000FCF75EFD04464CB1A14609F148094346CE
:108260004A46394630460094FCF7BCFB2046BDE840
:10827000F883000070B505460E462C4654B900BF81
:10828000BF2080F31188BFF34F8FBFF36F8F00BF04
:1082900000BFFEE7FFF72EFBD4E90F12206801FBB9
:1082A0000200A0600020A06320686060E06B401EB8
:1082B000226C216800FB0211E160FF2084F8440079
:1082C00084F845009EB9206908B9012000E000202B
:1082D000A8B904F1100000F077FB80B14FF0805096
:1082E00009490860BFF34F8FBFF36F8F07E004F1B8
:1082F0001000FFF7C8FA04F12400FFF7C4FAFFF7F3
:1083000023FB012070BD000004ED00E02DE9FF43D8
:1083100083B0064688461D464FF00009344654B9DE
:1083200000BFBF2080F31188BFF34F8FBFF36F8F63
:1083300000BF00BFFEE7B8F1000F01D1206C08B903
:10834000012000E0002050B900BFBF2080F3118859
:10835000BFF34F8FBFF36F8F00BF00BFFEE7022D4B
:1083600002D1E06B012801D1012000E0002050B9CA
:1083700000BFBF2080F31188BFF34F8FBFF36F8F13
:1083800000BF00BFFEE700BFFFF7B4FAA06BE16BD0
:10839000884201D3022D28D12A4641462046FCF7C7
:1083A0007DFA0746606A08B9012000E0002068B93C
:1083B00004F1240000F008FB88B14FF080503249EE
:1083C0000860BFF34F8FBFF36F8F08E03FB14FF0EE
:1083D00080502D490860BFF34F8FBFF36F8FFFF7B9
:1083E000B3FA012007B0BDE8F083059818B9FFF78C
:1083F000ABFA0020F6E7B9F1000F04D101A8FFF7AE
:10840000CFFB4FF00109FFF79FFAFFF779FDFFF768
:1084100071FA94F94400401C10B9002084F844001B
:1084200094F94500401C10B9002084F84500FFF77E
:108430008BFA05A901A800F0F1F8F0B92046FCF785
:10844000B4FBA0B104F110000599FFF7BBFB204677
:10845000FCF71EFC00F004FB002895D14FF0805083
:1084600009490860BFF34F8FBFF36F8F8CE7204639
:10847000FCF70EFC00F0F4FA86E72046FCF708FC57
:1084800000F0EEFA0020ADE704ED00E02DE9F34145
:1084900082B005464FF000082C46002654B900BFB4
:1084A000BF2080F31188BFF34F8FBFF36F8F00BFE2
:1084B00000BFFEE7206C08B9012000E0002050B9A1
:1084C00000BFBF2080F31188BFF34F8FBFF36F8FC2
:1084D00000BF00BFFEE700BFFFF70CFAA76BFFB1BC
:1084E000781EA063206810B9FCF7C8FCA060206962
:1084F00008B9012000E0002060B904F1100000F08C
:1085000063FA38B14FF0805043490860BFF34F8F92
:10851000BFF36F8FFFF718FA012004B0BDE8F081B8
:10852000039898B90EB9012000E0002050B900BFAF
:10853000BF2080F31188BFF34F8FBFF36F8F00BF51
:1085400000BFFEE7FFF700FA0020E6E7B8F1000FF2
:1085500004D16846FFF724FB4FF00108FFF7F4F958
:10856000FFF7CEFCFFF7C6F994F94400401C10B9A0
:10857000002084F8440094F94500401C10B9002004
:1085800084F84500FFF7E0F903A9684600F046F8D3
:1085900040BB2046FCF7FCFAF0B1206838B9FFF781
:1085A000A9F9A06800F0B4F90646FFF7CDF904F187
:1085B00024000399FFF706FB2046FCF769FB00F057
:1085C0004FFA002888D14FF0805013490860BFF35C
:1085D0004F8FBFF36F8F7FE72046FCF759FB00F00A
:1085E0003FFA79E72046FCF753FB00F039FA2046C2
:1085F000FCF7CEFA0028EED05EB1FFF77BF92046FB
:10860000FCF794F907463946A068FFF7F7FAFFF739
:108610009BF9002081E7000004ED00E070B50546FD
:108620000C4655B900BFBF2080F31188BFF34F8FB0
:10863000BFF36F8F00BF00BFFEE754B900BFBF207C
:1086400080F31188BFF34F8FBFF36F8F00BF00BF60
:10865000FEE7FFF74FF9134802686868131A2068AD
:10866000401C08B9002619E00F49286809688842AB
:1086700006D06868904203D80126002020600DE0F3
:108680002068984207D92068C01A20602846FFF762
:1086900087FA002602E0002020600126FFF754F947
:1086A000304670BD680500207C0500202DE9FF4F95
:1086B00085B0804689461746DDE912ABB800FCF765
:1086C00027FB064656B15020FCF722FB04460CB1AE
:1086D000266304E03046FFF755F900E000247CB142
:1086E0000020CDE900ABCDE902403A46494640467C
:1086F000089BFCF78AF92046FCF752F8012501E0B7
:108700004FF0FF35284609B0BDE8F08F2DE9F04164
:108710004FF000084448006800287CD143480068B6
:10872000451C4248056015BB41480068006808B90F
:10873000012000E0002050B900BFBF2080F3118865
:10874000BFF34F8FBFF36F8F00BF00BFFEE7384806
:108750000768384800683649086036480760364878
:108760000068401C34490860FCF72EFA00BF33480B
:10877000006885423CD300BF2D480068006808B9F6
:10878000012000E0002020B14FF0FF302B490860AD
:108790002DE027480068C068C4686668B54202D208
:1087A0002648066023E0201DFFF759F8A06A18B19B
:1087B00004F11800FFF753F894F82C1001208840BA
:1087C0001F49096808431E490860E16A01EB8101FD
:1087D0001C4A02EB8100211DFFF77FF81A49E06A6D
:1087E0000968C96A8842C7D34FF00108C4E700BFCF
:1087F00015480068C06A00EB8000124951F820005B
:10880000012801D94FF001081048006808B14FF065
:10881000010805E0FFE70E480068401C0C490860AD
:108820004046BDE8F081000090050020680500206A
:10883000580500205C0500207C05002084050020F0
:108840006C0500204C2F00205405002078050020E6
:108850007405002070B505462C460026002D4ED02C
:1088600028480068844201D1012000E0002050B96E
:1088700000BFBF2080F31188BFF34F8FBFF36F8F0E
:1088800000BF00BFFEE7606C50B900BFBF2080F39F
:108890001188BFF34F8FBFF36F8F00BF00BFFEE79C
:1088A000606C401E6064216CE06A884227D0606C76
:1088B00028BB201DFEF7D3FF40B994F82C100120EF
:1088C00088401149096881430F480160206CE062CB
:1088D000E06AC0F10A00A06194F82C1001208840E1
:1088E00009490968084308490860E16A01EB810108
:1088F000064A02EB8100211DFEF7EFFF01263046FC
:1089000070BD0000540500206C0500204C2F002095
:1089100070B505462C460026002D4DD02749E06A4B
:108920000968C96A884240D2A06900F0004028B9AD
:1089300022480068C06AC0F10A00A061E16A01EB48
:1089400081011F4A02EB81016069884201D1012047
:1089500000E0002018B3201DFEF781FF40B994F815
:108960002C1001208840174909688143154801608F
:1089700012480068C06AE06294F82C100120884018
:108980001049096808430F490860E16A01EB810159
:108990000B4A02EB8100211DFEF79FFF03E0074811
:1089A0000068C06AE062012606E00449206C09689C
:1089B000C96A884200D20126304670BD54050020A5
:1089C0004C2F00206C05002070B50646F068C46886
:1089D00054B900BFBF2080F31188BFF34F8FBFF39E
:1089E0006F8F00BF00BFFEE704F11800FEF737FFEE
:1089F00015480068A8B9201DFEF731FF94F82C1027
:108A00000120884011490968084310490860E16A5B
:108A100001EB81010E4A02EB8100211DFEF75DFF93
:108A200004E004F118010B48FEF757FF0A49E06A19
:108A30000968C96A884204D90125012007490860EC
:108A400000E00025284670BD900500206C05002040
:108A50004C2F00203C3000205405002078050020D9
:108A600070B5002400263648006850B900BFBF200A
:108A700080F31188BFF34F8FBFF36F8F00BF00BF2C
:108A8000FEE7FEF737FF2E480068401E2C490860BD
:108A90000846006800284FD12A48006800284BD0BB
:108AA00024E02948C068C46804F11800FEF7D7FE26
:108AB000201DFEF7D4FE94F82C1001208840234995
:108AC0000968084321490860E16A01EB8101204AF5
:108AD00002EB8100211DFEF700FF1E49E06A0968D4
:108AE000C96A884202D301201B4908601648006801
:108AF00008B9012000E000200028D2D00CB1FCF71A
:108B000063F81648056865B100BFFFF7FFFD10B1B7
:108B10000120114908606D1E002DF6D100200F497B
:108B200008600D48006838B1012630070C4908601C
:108B3000BFF34F8FBFF36F8FFEF706FF304670BD58
:108B400090050020640500203C3000206C050020CA
:108B50004C2F0020540500207805002074050020CB
:108B600004ED00E00000000000000000010203042A
:108B700006070809000000000000000001020304CD
:108B800006070809000000000102030400000000BD
:108B90000102030402040608020C08100000000091
:108BA00000000000000000000000000000F07090D5
:108BB0009070F000001F1413131C1F0000F0709041
:108BC0009070F000001F1413131C1F0000F0709031
:108BD0009070F000001F1413131C1F0000F0709021
:108BE0009070F000001F1413131C1F0000F0709011
:108BF0009070F000001F1413131C1F0000F0709001
:108C00009070F000001F1413131C1F0000F07090F0
:108C10009070F000001F1413131C1F0000F07090E0
:108C20009070F000001F1413131C1F0000000000C0
:108C30000000000000000000000000000000000034
:108C40000000000000000000000000000000000024
:108C500000000000000000000000000000F0709024
:108C60009070F000001F1413131C1F0000F0709090
:108C70009070F000001F1413131C1F0000F0709080
:108C80009070F000001F1413131C1F0000F0709070
:108C90009070F000001F1413131C1F0000F0709060
:108CA0009070F000001F1413131C1F0000F0709050
:108CB0009070F000001F1413131C1F0000F0709040
:108CC0009070F000001F1413131C1F0000F0709030
:108CD0009070F000001F1413131C1F0000F0709020
:108CE0009070F000001F1413131C1F0000F0709010
:108CF0009070F000001F1413131C1F0000F0709000
:108D00009070F000001F1413131C1F0000F07090EF
:108D10009070F000001F1413131C1F0000F07090DF
:108D20009070F000001F1413131C1F0000F07090CF
:108D30009070F000001F1413131C1F0000F07090BF
:108D40009070F000001F1413131C1F0000F07090AF
:108D50009070F000001F1413131C1F00000000008F
:108D60000000000000000000000000000000000003
:108D700000000000000000000000000000000000F3
:108D800000000000000000000000000000000000E3
:108D900000000000000000000000000000000000D3
:108DA000000000000000000000000000000000F0D3
:108DB000000000000000001B180000000000F03060
:108DC00000F0300000000000000000000080C0A0A3
:108DD00080E0800000021F041E0500000080E038D3
:108DE0002060000000081171121A0C00C02020C081
:108DF00080402000100905000C12120C0000F090B9
:108E000070000000001E1112140C1710000000F07A
:108E1000300000000000000000000000000000C062
:108E2000300800000000000F304000000000083053
:108E3000C0000000000040300F000000000000C033
:108E40000000000000010D0307090100000000E020
:108E5000000000000001010F0101010000000000FE
:108E600000000000000000987800000000000000F2
:108E700000000000000101010101010000000000EC
:108E800000000000000000181800000000000000B2
:108E9000807010000040300E0100000000C0602013
:108EA00020608000000F1813121807000000202017
:108EB000E0000000001010101F10100000402020E3
:108EC00020C00000001018141211100000402020D3
:108ED00020E0000000081011111A0C00000000C072
:108EE00020E0000004060504041F04000080602048
:108EF0002020000000091111111B0E0000804020ED
:108F00002060400000071A1111110E0000202020DF
:108F100020E020000000001C030000000040A02012
:108F200020E08000000E111111130C0000C0202061
:108F3000204080000009121212090700000000C042
:108F4000C00000000000001818000000000000C071
:108F5000C000000000000098780000000000808041
:108F60004060000000000302040C000000808080CC
:108F700080808000000202020202020000204040C5
:108F8000800000000008040402010000002010100E
:108F900090E000000000001A19000000008040204E
:108FA0002020C000001F204E49694F000000C03043
:108FB00070800000101C030202031C0000F010105F
:108FC00010B06000001F111111120E0000C020101F
:108FD00010102000000708101010080000F01010FA
:108FE0001020C000001F10101008070000F0F01043
:108FF00010101000001F1F11111110000000F010C0
:109000001010100000001F010101000000C020101E
:1090100010302000000F081011110F0000F00000A8
:109020000000F000001F010101011F00001010F0FE
:10903000101010000010101F101010000000101071
:1090400010F0000000081010100F000000F0008069
:10905000C0201000001F0301030618100000F000DC
:109060000000000000001F101010100000F0E000D1
:109070008070F000001F000703001F0000F07080E8
:109080000000F000001F000106181F0000E0301073
:109090001030C000000F18101018070000F010105A
:1090A0001010E000001F01010101000000E030107D
:1090B0001030C000000F18103058470000F010109A
:1090C0001090E000001F0101030D10000060B0903F
:1090D000103020000008101111130E00001010F0C5
:1090E000101010000000001F0000000000F0000041
:1090F0000000F000000F181010180700007080002A
:1091000000C03000000007181C03000070E000C021
:10911000C000F010001F1C0307180F000010608033
:109120008060100000100C03030C10001030C00011
:1091300000E030000000001F0300000000101010CD
:10914000907010000018141310101000000000F0B0
:10915000101010000000007F4040400000106080B0
:1091600000000000000000030C7040000010101010
:10917000F0000000004040407F0000000000C030D0
:1091800070800000000101000001000000000000EC
:109190000000000000404040404040000000081037
:1091A000200000000000000000000000000080809F
:1091B00080800000000D1412120B1F0000F00080D0
:1091C00080800000001F091010190F0000000080AF
:1091D00080800000000F191010100900000080802E
:1091E0008000F000000F111010091F0000008080A7
:1091F00080800000000F1A12121A1300008080E015
:10920000909090100000001F00000000000080807F
:1092100080808000007B95949497700000F000801F
:1092200080800000001F010000011F00008080807E
:10923000B0300000000000001F00000000808080AF
:10924000B0300000008080807F00000000F000004F
:1092500000808000001F0402070C1000001010F0B6
:10926000000000000000000F10101000008080803F
:1092700000808000001F00011F001F000080008090
:1092800080800000001F010000011F00000080809E
:1092900080800000000F101010190F000080008067
:1092A0008080000000FF091010190F00000080806E
:1092B00080008000000F11101009FF0000008000E6
:1092C0008080800000001F010000000000008080FE
:1092D000808000000009121214150C00008080E04C
:1092E000808080000000001F10101000008000002F
:1092F00000808000000F1010100F1F000080000081
:10930000000080000001061818070000800000809F
:1093100000000080011E1C030F100F000080800061
:10932000008080000010090606191000008000006F
:10933000000080000081865838060100008080808F
:10934000808080000010181412111000000000E04E
:10935000101010000000023D40404000000000F8E6
:1093600000000000000000FF00000000001010F0EE
:1093700000000000004040780502000000000000EE
:10938000000000000002010102020100F8080808C4
:10939000F80000001F1010101F0000004C240140B6
:1093A000080000200000010000010101010200008E
:1093B0000101000100800000000001010002000026
:1093C0000000020100020000000001018000000016
:1093D0000001000110000000000002010600000072
:1093E00000010000000400000000010180250000D1
:1093F000004B00000096000000E100003024010056
:1094000000C20100008403000008070020A107003B
:1094100000CA080002000000000001010400000072
:1094200000000101060000000001000080000000B3
:109430000000020103010300000001010000000020
:109440000000000106000000000100002A000000EA
:109450003C2D0000353030303030000035373630AC
:1094600030300000313135323030000031393230A7
:1094700030000000323330343030000033383430C4
:1094800030000000353736303000000039363030DB
:1094900000000000343630383030000037343830C7
:1094A000300000004C454431000000004C4544327F
:1094B0000000000052533438350000003C3C3C00B2
:1094C0002D3E00003E00000040000000575332389F
:1094D000313242004F4C4544000000004C454400EE
:1094E0004944000048414C460000000045494748B7
:1094F000544800005349585445454E544800000014
:1095000046554C4C00000000515541525445520004
:109510005B205D0052656400537065656400000067
:1095200046697865640000004C69676874206D695D
:10953000640000004D6F64650000000050617373AB
:10954000697665206D6F6465000000004163746991
:109550007665206D6F646500537769746368206D6C
:109560006F646500427265617468206D6F646500A8
:10957000426C696E6B206D6F646500004375727399
:109580006F72207374796C65000000005265766517
:109590007273650072657665727365004261756409
:1095A0007261746500000000426C75650000000087
:1095B00053617665000000004F6666004C6967687D
:1095C00074206869676800004C6F636B00000000DE
:1095D000626C616E6B0000004E6F726D616C00001A
:1095E00052616E646F6D00004F6E000047726565DA
:1095F0006E0000004C6F6E672062656570000000B1
:10960000436C69636B20626565700000427265613E
:109610007468207374657000426C696E6B206672AA
:10962000657100004D656E75206E756D6265720026
:109630004469720053746F7020636F6C6F72000026
:10964000437720636F6C6F720000000043637720E4
:10965000636F6C6F7200000053746570206D6F74DF
:109660006F720000416374697665206D73000000BD
:1096700052656672657368206D730000526573658C
:10968000740000004C6967687400000046617374E0
:1096900000000000556C7472612D666173740000E7
:1096A00073686F77000000004C69676874206C6F06
:1096B00077000000536C6F7700000000556C7472E7
:1096C000612D736C6F7700004B657900EC96000894
:1096D00000000020980500001C0700089098000872
:1096E00098050020E02E0000500C00081103221203
:1096F0007A1204534880BA0F140A1140140A112038
:10970000140A111014EA0814A149301220174088D5
:109710001388130A1BF401316A043811190E119BC6
:1097200044011C3B0802143113C8962A080B4BDC79
:1097300094085AD4085AB4085A58205ACC1013B076
:109740009539871A7C18411ABC185159281AF420E7
:1097500029085AC82869205AA4405AAC0869185ADE
:1097600034305A0C405A18085AE840DAB8485A645B
:10977000105A7008DA582069305A30485A84085A0A
:109780007C685A70105A240869385AD838DA8C50D4
:109790005ABC105A2808DAA8F85A94185AC4105A11
:1097A0004C085AC8085AC0085A5008DA10605AA023
:1097B00050DAD0185A34B01AE01029085A9C10DA3E
:1097C00064B85A4C38DA3C405A8C085A6C085A7CB7
:1097D000085A84085A9C085A64086A74D059085A6E
:1097E00054085A5C08E9985A180869181159805A9F
:1097F000E4105A08105AEC10DAF4485A94F85A8CCB
:10980000085AD8305AB4106ABC08697859F85A40D6
:10981000085A4C0869205AE040DA20985A14105A25
:10982000EC08DAA8201ACC3312091AFF02192C12FC
:10983000015B20040C1A340C5A030C1A4C0C5A0607
:109840000C9A7C241A9C0C5A070C9AD4309AEC245B
:10985000130C026B200848190C69241A640C5A0571
:109860000C9A8C181AA40C5A0B0C9AFC188B140323
:10987000849A440C1A740C696C1A940C69309AAC72
:10988000180138055CFFFF01011AAA010140B20965
:04000005080000CD22
:00000001FF
